{
  "_format": "hh-sol-artifact-1",
  "contractName": "Book",
  "sourceName": "contracts/Book.sol",
  "abi": [
    {
      "inputs": [],
      "stateMutability": "nonpayable",
      "type": "constructor"
    },
    {
      "anonymous": false,
      "inputs": [
        {
          "indexed": true,
          "internalType": "address",
          "name": "owner",
          "type": "address"
        },
        {
          "indexed": true,
          "internalType": "address",
          "name": "approved",
          "type": "address"
        },
        {
          "indexed": true,
          "internalType": "uint256",
          "name": "tokenId",
          "type": "uint256"
        }
      ],
      "name": "Approval",
      "type": "event"
    },
    {
      "anonymous": false,
      "inputs": [
        {
          "indexed": true,
          "internalType": "address",
          "name": "owner",
          "type": "address"
        },
        {
          "indexed": true,
          "internalType": "address",
          "name": "operator",
          "type": "address"
        },
        {
          "indexed": false,
          "internalType": "bool",
          "name": "approved",
          "type": "bool"
        }
      ],
      "name": "ApprovalForAll",
      "type": "event"
    },
    {
      "anonymous": false,
      "inputs": [
        {
          "indexed": true,
          "internalType": "bytes32",
          "name": "role",
          "type": "bytes32"
        },
        {
          "indexed": true,
          "internalType": "bytes32",
          "name": "previousAdminRole",
          "type": "bytes32"
        },
        {
          "indexed": true,
          "internalType": "bytes32",
          "name": "newAdminRole",
          "type": "bytes32"
        }
      ],
      "name": "RoleAdminChanged",
      "type": "event"
    },
    {
      "anonymous": false,
      "inputs": [
        {
          "indexed": true,
          "internalType": "bytes32",
          "name": "role",
          "type": "bytes32"
        },
        {
          "indexed": true,
          "internalType": "address",
          "name": "account",
          "type": "address"
        },
        {
          "indexed": true,
          "internalType": "address",
          "name": "sender",
          "type": "address"
        }
      ],
      "name": "RoleGranted",
      "type": "event"
    },
    {
      "anonymous": false,
      "inputs": [
        {
          "indexed": true,
          "internalType": "bytes32",
          "name": "role",
          "type": "bytes32"
        },
        {
          "indexed": true,
          "internalType": "address",
          "name": "account",
          "type": "address"
        },
        {
          "indexed": true,
          "internalType": "address",
          "name": "sender",
          "type": "address"
        }
      ],
      "name": "RoleRevoked",
      "type": "event"
    },
    {
      "anonymous": false,
      "inputs": [
        {
          "indexed": true,
          "internalType": "address",
          "name": "from",
          "type": "address"
        },
        {
          "indexed": true,
          "internalType": "address",
          "name": "to",
          "type": "address"
        },
        {
          "indexed": true,
          "internalType": "uint256",
          "name": "tokenId",
          "type": "uint256"
        }
      ],
      "name": "Transfer",
      "type": "event"
    },
    {
      "inputs": [],
      "name": "DEFAULT_ADMIN_ROLE",
      "outputs": [
        {
          "internalType": "bytes32",
          "name": "",
          "type": "bytes32"
        }
      ],
      "stateMutability": "view",
      "type": "function"
    },
    {
      "inputs": [
        {
          "internalType": "address",
          "name": "to",
          "type": "address"
        },
        {
          "internalType": "uint256",
          "name": "tokenId",
          "type": "uint256"
        }
      ],
      "name": "approve",
      "outputs": [],
      "stateMutability": "nonpayable",
      "type": "function"
    },
    {
      "inputs": [
        {
          "internalType": "address",
          "name": "owner",
          "type": "address"
        }
      ],
      "name": "balanceOf",
      "outputs": [
        {
          "internalType": "uint256",
          "name": "",
          "type": "uint256"
        }
      ],
      "stateMutability": "view",
      "type": "function"
    },
    {
      "inputs": [
        {
          "internalType": "enum Book.BookStatus",
          "name": "_status",
          "type": "uint8"
        },
        {
          "internalType": "uint256",
          "name": "_idBook",
          "type": "uint256"
        }
      ],
      "name": "changeBookStatus",
      "outputs": [],
      "stateMutability": "nonpayable",
      "type": "function"
    },
    {
      "inputs": [
        {
          "internalType": "string",
          "name": "_name",
          "type": "string"
        },
        {
          "internalType": "string",
          "name": "_description",
          "type": "string"
        },
        {
          "internalType": "enum Book.BookStatus",
          "name": "_status",
          "type": "uint8"
        }
      ],
      "name": "createBook",
      "outputs": [],
      "stateMutability": "nonpayable",
      "type": "function"
    },
    {
      "inputs": [
        {
          "internalType": "uint256",
          "name": "tokenId",
          "type": "uint256"
        }
      ],
      "name": "getApproved",
      "outputs": [
        {
          "internalType": "address",
          "name": "",
          "type": "address"
        }
      ],
      "stateMutability": "view",
      "type": "function"
    },
    {
      "inputs": [
        {
          "internalType": "address",
          "name": "_owner",
          "type": "address"
        }
      ],
      "name": "getBooks",
      "outputs": [
        {
          "components": [
            {
              "internalType": "uint256",
              "name": "id",
              "type": "uint256"
            },
            {
              "internalType": "address",
              "name": "owner",
              "type": "address"
            },
            {
              "internalType": "string",
              "name": "name",
              "type": "string"
            },
            {
              "internalType": "string",
              "name": "description",
              "type": "string"
            },
            {
              "internalType": "enum Book.BookStatus",
              "name": "status",
              "type": "uint8"
            }
          ],
          "internalType": "struct Book.BookDetails[]",
          "name": "",
          "type": "tuple[]"
        }
      ],
      "stateMutability": "view",
      "type": "function"
    },
    {
      "inputs": [
        {
          "internalType": "bytes32",
          "name": "role",
          "type": "bytes32"
        }
      ],
      "name": "getRoleAdmin",
      "outputs": [
        {
          "internalType": "bytes32",
          "name": "",
          "type": "bytes32"
        }
      ],
      "stateMutability": "view",
      "type": "function"
    },
    {
      "inputs": [
        {
          "internalType": "bytes32",
          "name": "role",
          "type": "bytes32"
        },
        {
          "internalType": "address",
          "name": "account",
          "type": "address"
        }
      ],
      "name": "grantRole",
      "outputs": [],
      "stateMutability": "nonpayable",
      "type": "function"
    },
    {
      "inputs": [
        {
          "internalType": "bytes32",
          "name": "role",
          "type": "bytes32"
        },
        {
          "internalType": "address",
          "name": "account",
          "type": "address"
        }
      ],
      "name": "hasRole",
      "outputs": [
        {
          "internalType": "bool",
          "name": "",
          "type": "bool"
        }
      ],
      "stateMutability": "view",
      "type": "function"
    },
    {
      "inputs": [
        {
          "internalType": "address",
          "name": "owner",
          "type": "address"
        },
        {
          "internalType": "address",
          "name": "operator",
          "type": "address"
        }
      ],
      "name": "isApprovedForAll",
      "outputs": [
        {
          "internalType": "bool",
          "name": "",
          "type": "bool"
        }
      ],
      "stateMutability": "view",
      "type": "function"
    },
    {
      "inputs": [],
      "name": "name",
      "outputs": [
        {
          "internalType": "string",
          "name": "",
          "type": "string"
        }
      ],
      "stateMutability": "view",
      "type": "function"
    },
    {
      "inputs": [
        {
          "internalType": "uint256",
          "name": "tokenId",
          "type": "uint256"
        }
      ],
      "name": "ownerOf",
      "outputs": [
        {
          "internalType": "address",
          "name": "",
          "type": "address"
        }
      ],
      "stateMutability": "view",
      "type": "function"
    },
    {
      "inputs": [
        {
          "internalType": "bytes32",
          "name": "role",
          "type": "bytes32"
        },
        {
          "internalType": "address",
          "name": "account",
          "type": "address"
        }
      ],
      "name": "renounceRole",
      "outputs": [],
      "stateMutability": "nonpayable",
      "type": "function"
    },
    {
      "inputs": [
        {
          "internalType": "bytes32",
          "name": "role",
          "type": "bytes32"
        },
        {
          "internalType": "address",
          "name": "account",
          "type": "address"
        }
      ],
      "name": "revokeRole",
      "outputs": [],
      "stateMutability": "nonpayable",
      "type": "function"
    },
    {
      "inputs": [
        {
          "internalType": "address",
          "name": "from",
          "type": "address"
        },
        {
          "internalType": "address",
          "name": "to",
          "type": "address"
        },
        {
          "internalType": "uint256",
          "name": "tokenId",
          "type": "uint256"
        }
      ],
      "name": "safeTransferFrom",
      "outputs": [],
      "stateMutability": "nonpayable",
      "type": "function"
    },
    {
      "inputs": [
        {
          "internalType": "address",
          "name": "from",
          "type": "address"
        },
        {
          "internalType": "address",
          "name": "to",
          "type": "address"
        },
        {
          "internalType": "uint256",
          "name": "tokenId",
          "type": "uint256"
        },
        {
          "internalType": "bytes",
          "name": "data",
          "type": "bytes"
        }
      ],
      "name": "safeTransferFrom",
      "outputs": [],
      "stateMutability": "nonpayable",
      "type": "function"
    },
    {
      "inputs": [
        {
          "internalType": "address",
          "name": "operator",
          "type": "address"
        },
        {
          "internalType": "bool",
          "name": "approved",
          "type": "bool"
        }
      ],
      "name": "setApprovalForAll",
      "outputs": [],
      "stateMutability": "nonpayable",
      "type": "function"
    },
    {
      "inputs": [
        {
          "internalType": "bytes4",
          "name": "interfaceId",
          "type": "bytes4"
        }
      ],
      "name": "supportsInterface",
      "outputs": [
        {
          "internalType": "bool",
          "name": "",
          "type": "bool"
        }
      ],
      "stateMutability": "view",
      "type": "function"
    },
    {
      "inputs": [],
      "name": "symbol",
      "outputs": [
        {
          "internalType": "string",
          "name": "",
          "type": "string"
        }
      ],
      "stateMutability": "view",
      "type": "function"
    },
    {
      "inputs": [
        {
          "internalType": "uint256",
          "name": "tokenId",
          "type": "uint256"
        }
      ],
      "name": "tokenURI",
      "outputs": [
        {
          "internalType": "string",
          "name": "",
          "type": "string"
        }
      ],
      "stateMutability": "view",
      "type": "function"
    },
    {
      "inputs": [
        {
          "internalType": "address",
          "name": "from",
          "type": "address"
        },
        {
          "internalType": "address",
          "name": "to",
          "type": "address"
        },
        {
          "internalType": "uint256",
          "name": "tokenId",
          "type": "uint256"
        }
      ],
      "name": "transferFrom",
      "outputs": [],
      "stateMutability": "nonpayable",
      "type": "function"
    }
  ],
  "bytecode": "0x60806040523480156200001157600080fd5b5060405180604001604052806006815260200165109bdbdad25160d21b81525060405180604001604052806003815260200162424f4f60e81b81525081600090816200005e91906200013b565b5060016200006d82826200013b565b5050506200008760086200008d60201b62000c181760201c565b62000207565b80546001019055565b634e487b7160e01b600052604160045260246000fd5b600181811c90821680620000c157607f821691505b602082108103620000e257634e487b7160e01b600052602260045260246000fd5b50919050565b601f8211156200013657600081815260208120601f850160051c81016020861015620001115750805b601f850160051c820191505b8181101562000132578281556001016200011d565b5050505b505050565b81516001600160401b0381111562000157576200015762000096565b6200016f81620001688454620000ac565b84620000e8565b602080601f831160018114620001a757600084156200018e5750858301515b600019600386901b1c1916600185901b17855562000132565b600085815260208120601f198616915b82811015620001d857888601518255948401946001909101908401620001b7565b5085821015620001f75787850151600019600388901b60f8161c191681555b5050505050600190811b01905550565b611f6280620002176000396000f3fe608060405234801561001057600080fd5b50600436106101425760003560e01c806370a08231116100b8578063a217fddf1161007c578063a217fddf146102b5578063a22cb465146102bd578063b88d4fde146102d0578063c87b56dd146102e3578063d547741f146102f6578063e985e9c51461030957600080fd5b806370a08231146102545780637541bad3146102675780638140a0671461027a57806391d148541461029a57806395d89b41146102ad57600080fd5b8063248a9ca31161010a578063248a9ca3146101d75780632f2ff15d1461020857806336568abe1461021b57806342842e0e146101c45780634be497c91461022e5780636352211e1461024157600080fd5b806301ffc9a71461014757806306fdde031461016f578063081812fc14610184578063095ea7b3146101af57806323b872dd146101c4575b600080fd5b61015a610155366004611755565b610345565b60405190151581526020015b60405180910390f35b610177610365565b60405161016691906117c2565b6101976101923660046117d5565b6103f7565b6040516001600160a01b039091168152602001610166565b6101c26101bd36600461180a565b61041e565b005b6101c26101d2366004611834565b610538565b6101fa6101e53660046117d5565b60009081526006602052604090206001015490565b604051908152602001610166565b6101c2610216366004611870565b61056e565b6101c2610229366004611870565b610593565b6101c261023c3660046118ab565b610611565b61019761024f3660046117d5565b6106d3565b6101fa6102623660046118c7565b610733565b6101c261027536600461198e565b6107b9565b61028d6102883660046118c7565b6108d0565b6040516101669190611a18565b61015a6102a8366004611870565b610abc565b610177610ae7565b6101fa600081565b6101c26102cb366004611ae7565b610af6565b6101c26102de366004611b23565b610b01565b6101776102f13660046117d5565b610b7f565b6101c2610304366004611870565b610bf3565b61015a610317366004611b9f565b6001600160a01b03918216600090815260056020908152604080832093909416825291909152205460ff1690565b600061035082610c21565b8061035f575061035f82610c71565b92915050565b60606000805461037490611bc9565b80601f01602080910402602001604051908101604052809291908181526020018280546103a090611bc9565b80156103ed5780601f106103c2576101008083540402835291602001916103ed565b820191906000526020600020905b8154815290600101906020018083116103d057829003601f168201915b5050505050905090565b600061040282610c96565b506000908152600460205260409020546001600160a01b031690565b6000610429826106d3565b9050806001600160a01b0316836001600160a01b03160361049b5760405162461bcd60e51b815260206004820152602160248201527f4552433732313a20617070726f76616c20746f2063757272656e74206f776e656044820152603960f91b60648201526084015b60405180910390fd5b336001600160a01b03821614806104b757506104b78133610317565b6105295760405162461bcd60e51b815260206004820152603d60248201527f4552433732313a20617070726f76652063616c6c6572206973206e6f7420746f60448201527f6b656e206f776e6572206f7220617070726f76656420666f7220616c6c0000006064820152608401610492565b6105338383610cf8565b505050565b60405162461bcd60e51b815260206004820152600b60248201526a139bdd08185b1b1bddd95960aa1b6044820152606401610492565b60008281526006602052604090206001015461058981610d66565b6105338383610d70565b6001600160a01b03811633146106035760405162461bcd60e51b815260206004820152602f60248201527f416363657373436f6e74726f6c3a2063616e206f6e6c792072656e6f756e636560448201526e103937b632b9903337b91039b2b63360891b6064820152608401610492565b61060d8282610df6565b5050565b60005b336000908152600760205260409020548110156105335733600090815260076020526040902080548391908390811061064f5761064f611c03565b906000526020600020906005020160000154036106c15733600090815260076020526040902080548491908390811061068a5761068a611c03565b60009182526020909120600460059092020101805460ff191660018360028111156106b7576106b7611a02565b0217905550505050565b806106cb81611c2f565b915050610614565b6000818152600260205260408120546001600160a01b03168061035f5760405162461bcd60e51b8152602060048201526018602482015277115490cdcc8c4e881a5b9d985b1a59081d1bdad95b88125160421b6044820152606401610492565b60006001600160a01b03821661079d5760405162461bcd60e51b815260206004820152602960248201527f4552433732313a2061646472657373207a65726f206973206e6f7420612076616044820152683634b21037bbb732b960b91b6064820152608401610492565b506001600160a01b031660009081526003602052604090205490565b60006107c460085490565b905060006040518060a00160405280838152602001336001600160a01b0316815260200186815260200185815260200184600281111561080657610806611a02565b90523360009081526007602090815260408083208054600180820183559185529383902085516005909502019384559184015191830180546001600160a01b0319166001600160a01b0390931692909217909155820151919250829160028201906108719082611c96565b50606082015160038201906108869082611c96565b50608082015160048201805460ff191660018360028111156108aa576108aa611a02565b021790555050506108bf600880546001019055565b6108c93383610e5d565b5050505050565b6001600160a01b0381166000908152600760209081526040808320805482518185028101850190935280835260609492939192909184015b82821015610ab15760008481526020908190206040805160a081018252600586029092018054835260018101546001600160a01b0316938301939093526002830180549293929184019161095b90611bc9565b80601f016020809104026020016040519081016040528092919081815260200182805461098790611bc9565b80156109d45780601f106109a9576101008083540402835291602001916109d4565b820191906000526020600020905b8154815290600101906020018083116109b757829003601f168201915b505050505081526020016003820180546109ed90611bc9565b80601f0160208091040260200160405190810160405280929190818152602001828054610a1990611bc9565b8015610a665780601f10610a3b57610100808354040283529160200191610a66565b820191906000526020600020905b815481529060010190602001808311610a4957829003601f168201915b5050509183525050600482015460209091019060ff166002811115610a8d57610a8d611a02565b6002811115610a9e57610a9e611a02565b8152505081526020019060010190610908565b505050509050919050565b60009182526006602090815260408084206001600160a01b0393909316845291905290205460ff1690565b60606001805461037490611bc9565b61060d338383610fe8565b610b0b33836110b6565b610b6d5760405162461bcd60e51b815260206004820152602d60248201527f4552433732313a2063616c6c6572206973206e6f7420746f6b656e206f776e6560448201526c1c881bdc88185c1c1c9bdd9959609a1b6064820152608401610492565b610b7984848484611135565b50505050565b6060610b8a82610c96565b6000610ba160408051602081019091526000815290565b90506000815111610bc15760405180602001604052806000815250610bec565b80610bcb84611168565b604051602001610bdc929190611d56565b6040516020818303038152906040525b9392505050565b600082815260066020526040902060010154610c0e81610d66565b6105338383610df6565b80546001019055565b60006001600160e01b031982166380ac58cd60e01b1480610c5257506001600160e01b03198216635b5e139f60e01b145b8061035f57506301ffc9a760e01b6001600160e01b031983161461035f565b60006001600160e01b03198216637965db0b60e01b148061035f575061035f82610c21565b6000818152600260205260409020546001600160a01b0316610cf55760405162461bcd60e51b8152602060048201526018602482015277115490cdcc8c4e881a5b9d985b1a59081d1bdad95b88125160421b6044820152606401610492565b50565b600081815260046020526040902080546001600160a01b0319166001600160a01b0384169081179091558190610d2d826106d3565b6001600160a01b03167f8c5be1e5ebec7d5bd14f71427d1e84f3dd0314c0f7b2291e5b200ac8c7c3b92560405160405180910390a45050565b610cf581336111fb565b610d7a8282610abc565b61060d5760008281526006602090815260408083206001600160a01b03851684529091529020805460ff19166001179055610db23390565b6001600160a01b0316816001600160a01b0316837f2f8788117e7eff1d82e926ec794901d17c78024a50270940304540a733656f0d60405160405180910390a45050565b610e008282610abc565b1561060d5760008281526006602090815260408083206001600160a01b0385168085529252808320805460ff1916905551339285917ff6391f5c32d9c69d2a47ea670b442974b53935d1edc7fd64eb21e047a839171b9190a45050565b6001600160a01b038216610eb35760405162461bcd60e51b815260206004820181905260248201527f4552433732313a206d696e7420746f20746865207a65726f20616464726573736044820152606401610492565b6000818152600260205260409020546001600160a01b031615610f185760405162461bcd60e51b815260206004820152601c60248201527f4552433732313a20746f6b656e20616c7265616479206d696e746564000000006044820152606401610492565b6000818152600260205260409020546001600160a01b031615610f7d5760405162461bcd60e51b815260206004820152601c60248201527f4552433732313a20746f6b656e20616c7265616479206d696e746564000000006044820152606401610492565b6001600160a01b038216600081815260036020908152604080832080546001019055848352600290915280822080546001600160a01b0319168417905551839291907fddf252ad1be2c89b69c2b068fc378daa952ba7f163c4a11628f55a4df523b3ef908290a45050565b816001600160a01b0316836001600160a01b0316036110495760405162461bcd60e51b815260206004820152601960248201527f4552433732313a20617070726f766520746f2063616c6c6572000000000000006044820152606401610492565b6001600160a01b03838116600081815260056020908152604080832094871680845294825291829020805460ff191686151590811790915591519182527f17307eab39ab6107e8899845ad3d59bd9653f200f220920489ca2b5937696c31910160405180910390a3505050565b6000806110c2836106d3565b9050806001600160a01b0316846001600160a01b0316148061110957506001600160a01b0380821660009081526005602090815260408083209388168352929052205460ff165b8061112d5750836001600160a01b0316611122846103f7565b6001600160a01b0316145b949350505050565b611140848484611254565b61114c848484846113b8565b610b795760405162461bcd60e51b815260040161049290611d85565b60606000611175836114b9565b600101905060008167ffffffffffffffff811115611195576111956118e2565b6040519080825280601f01601f1916602001820160405280156111bf576020820181803683370190505b5090508181016020015b600019016f181899199a1a9b1b9c1cb0b131b232b360811b600a86061a8153600a85049450846111c957509392505050565b6112058282610abc565b61060d5761121281611591565b61121d8360206115a3565b60405160200161122e929190611dd7565b60408051601f198184030181529082905262461bcd60e51b8252610492916004016117c2565b826001600160a01b0316611267826106d3565b6001600160a01b03161461128d5760405162461bcd60e51b815260040161049290611e4c565b6001600160a01b0382166112ef5760405162461bcd60e51b8152602060048201526024808201527f4552433732313a207472616e7366657220746f20746865207a65726f206164646044820152637265737360e01b6064820152608401610492565b826001600160a01b0316611302826106d3565b6001600160a01b0316146113285760405162461bcd60e51b815260040161049290611e4c565b600081815260046020908152604080832080546001600160a01b03199081169091556001600160a01b0387811680865260038552838620805460001901905590871680865283862080546001019055868652600290945282852080549092168417909155905184937fddf252ad1be2c89b69c2b068fc378daa952ba7f163c4a11628f55a4df523b3ef91a4505050565b60006001600160a01b0384163b156114ae57604051630a85bd0160e11b81526001600160a01b0385169063150b7a02906113fc903390899088908890600401611e91565b6020604051808303816000875af1925050508015611437575060408051601f3d908101601f1916820190925261143491810190611ece565b60015b611494573d808015611465576040519150601f19603f3d011682016040523d82523d6000602084013e61146a565b606091505b50805160000361148c5760405162461bcd60e51b815260040161049290611d85565b805181602001fd5b6001600160e01b031916630a85bd0160e11b14905061112d565b506001949350505050565b60008072184f03e93ff9f4daa797ed6e38ed64bf6a1f0160401b83106114f85772184f03e93ff9f4daa797ed6e38ed64bf6a1f0160401b830492506040015b6d04ee2d6d415b85acef81000000008310611524576d04ee2d6d415b85acef8100000000830492506020015b662386f26fc10000831061154257662386f26fc10000830492506010015b6305f5e100831061155a576305f5e100830492506008015b612710831061156e57612710830492506004015b60648310611580576064830492506002015b600a831061035f5760010192915050565b606061035f6001600160a01b03831660145b606060006115b2836002611eeb565b6115bd906002611f02565b67ffffffffffffffff8111156115d5576115d56118e2565b6040519080825280601f01601f1916602001820160405280156115ff576020820181803683370190505b509050600360fc1b8160008151811061161a5761161a611c03565b60200101906001600160f81b031916908160001a905350600f60fb1b8160018151811061164957611649611c03565b60200101906001600160f81b031916908160001a905350600061166d846002611eeb565b611678906001611f02565b90505b60018111156116f0576f181899199a1a9b1b9c1cb0b131b232b360811b85600f16601081106116ac576116ac611c03565b1a60f81b8282815181106116c2576116c2611c03565b60200101906001600160f81b031916908160001a90535060049490941c936116e981611f15565b905061167b565b508315610bec5760405162461bcd60e51b815260206004820181905260248201527f537472696e67733a20686578206c656e67746820696e73756666696369656e746044820152606401610492565b6001600160e01b031981168114610cf557600080fd5b60006020828403121561176757600080fd5b8135610bec8161173f565b60005b8381101561178d578181015183820152602001611775565b50506000910152565b600081518084526117ae816020860160208601611772565b601f01601f19169290920160200192915050565b602081526000610bec6020830184611796565b6000602082840312156117e757600080fd5b5035919050565b80356001600160a01b038116811461180557600080fd5b919050565b6000806040838503121561181d57600080fd5b611826836117ee565b946020939093013593505050565b60008060006060848603121561184957600080fd5b611852846117ee565b9250611860602085016117ee565b9150604084013590509250925092565b6000806040838503121561188357600080fd5b82359150611893602084016117ee565b90509250929050565b80356003811061180557600080fd5b600080604083850312156118be57600080fd5b6118268361189c565b6000602082840312156118d957600080fd5b610bec826117ee565b634e487b7160e01b600052604160045260246000fd5b600067ffffffffffffffff80841115611913576119136118e2565b604051601f8501601f19908116603f0116810190828211818310171561193b5761193b6118e2565b8160405280935085815286868601111561195457600080fd5b858560208301376000602087830101525050509392505050565b600082601f83011261197f57600080fd5b610bec838335602085016118f8565b6000806000606084860312156119a357600080fd5b833567ffffffffffffffff808211156119bb57600080fd5b6119c78783880161196e565b945060208601359150808211156119dd57600080fd5b506119ea8682870161196e565b9250506119f96040850161189c565b90509250925092565b634e487b7160e01b600052602160045260246000fd5b60006020808301818452808551808352604092508286019150828160051b8701018488016000805b84811015611ad857898403603f19018652825180518552888101516001600160a01b0316898601528781015160a089870181905290611a8182880182611796565b91505060608083015187830382890152611a9b8382611796565b92505050608080830151925060038310611ac357634e487b7160e01b85526021600452602485fd5b95909501529487019491870191600101611a40565b50919998505050505050505050565b60008060408385031215611afa57600080fd5b611b03836117ee565b915060208301358015158114611b1857600080fd5b809150509250929050565b60008060008060808587031215611b3957600080fd5b611b42856117ee565b9350611b50602086016117ee565b925060408501359150606085013567ffffffffffffffff811115611b7357600080fd5b8501601f81018713611b8457600080fd5b611b93878235602084016118f8565b91505092959194509250565b60008060408385031215611bb257600080fd5b611bbb836117ee565b9150611893602084016117ee565b600181811c90821680611bdd57607f821691505b602082108103611bfd57634e487b7160e01b600052602260045260246000fd5b50919050565b634e487b7160e01b600052603260045260246000fd5b634e487b7160e01b600052601160045260246000fd5b600060018201611c4157611c41611c19565b5060010190565b601f82111561053357600081815260208120601f850160051c81016020861015611c6f5750805b601f850160051c820191505b81811015611c8e57828155600101611c7b565b505050505050565b815167ffffffffffffffff811115611cb057611cb06118e2565b611cc481611cbe8454611bc9565b84611c48565b602080601f831160018114611cf95760008415611ce15750858301515b600019600386901b1c1916600185901b178555611c8e565b600085815260208120601f198616915b82811015611d2857888601518255948401946001909101908401611d09565b5085821015611d465787850151600019600388901b60f8161c191681555b5050505050600190811b01905550565b60008351611d68818460208801611772565b835190830190611d7c818360208801611772565b01949350505050565b60208082526032908201527f4552433732313a207472616e7366657220746f206e6f6e20455243373231526560408201527131b2b4bb32b91034b6b83632b6b2b73a32b960711b606082015260800190565b7f416363657373436f6e74726f6c3a206163636f756e7420000000000000000000815260008351611e0f816017850160208801611772565b7001034b99036b4b9b9b4b733903937b6329607d1b6017918401918201528351611e40816028840160208801611772565b01602801949350505050565b60208082526025908201527f4552433732313a207472616e736665722066726f6d20696e636f72726563742060408201526437bbb732b960d91b606082015260800190565b6001600160a01b0385811682528416602082015260408101839052608060608201819052600090611ec490830184611796565b9695505050505050565b600060208284031215611ee057600080fd5b8151610bec8161173f565b808202811582820484141761035f5761035f611c19565b8082018082111561035f5761035f611c19565b600081611f2457611f24611c19565b50600019019056fea26469706673582212208a658d0ef11557a7e32cf83008111957bd0defc38d34b6f7bd87aed2ba74026064736f6c63430008110033",
  "linkReferences": {},
  "deployedLinkReferences": {}
}