{
  "_format": "hh-sol-artifact-1",
  "contractName": "Book",
  "sourceName": "contracts/Book.sol",
  "abi": [
    {
      "inputs": [],
      "stateMutability": "nonpayable",
      "type": "constructor"
    },
    {
      "anonymous": false,
      "inputs": [
        {
          "indexed": true,
          "internalType": "address",
          "name": "owner",
          "type": "address"
        },
        {
          "indexed": true,
          "internalType": "address",
          "name": "approved",
          "type": "address"
        },
        {
          "indexed": true,
          "internalType": "uint256",
          "name": "tokenId",
          "type": "uint256"
        }
      ],
      "name": "Approval",
      "type": "event"
    },
    {
      "anonymous": false,
      "inputs": [
        {
          "indexed": true,
          "internalType": "address",
          "name": "owner",
          "type": "address"
        },
        {
          "indexed": true,
          "internalType": "address",
          "name": "operator",
          "type": "address"
        },
        {
          "indexed": false,
          "internalType": "bool",
          "name": "approved",
          "type": "bool"
        }
      ],
      "name": "ApprovalForAll",
      "type": "event"
    },
    {
      "anonymous": false,
      "inputs": [
        {
          "indexed": true,
          "internalType": "bytes32",
          "name": "role",
          "type": "bytes32"
        },
        {
          "indexed": true,
          "internalType": "bytes32",
          "name": "previousAdminRole",
          "type": "bytes32"
        },
        {
          "indexed": true,
          "internalType": "bytes32",
          "name": "newAdminRole",
          "type": "bytes32"
        }
      ],
      "name": "RoleAdminChanged",
      "type": "event"
    },
    {
      "anonymous": false,
      "inputs": [
        {
          "indexed": true,
          "internalType": "bytes32",
          "name": "role",
          "type": "bytes32"
        },
        {
          "indexed": true,
          "internalType": "address",
          "name": "account",
          "type": "address"
        },
        {
          "indexed": true,
          "internalType": "address",
          "name": "sender",
          "type": "address"
        }
      ],
      "name": "RoleGranted",
      "type": "event"
    },
    {
      "anonymous": false,
      "inputs": [
        {
          "indexed": true,
          "internalType": "bytes32",
          "name": "role",
          "type": "bytes32"
        },
        {
          "indexed": true,
          "internalType": "address",
          "name": "account",
          "type": "address"
        },
        {
          "indexed": true,
          "internalType": "address",
          "name": "sender",
          "type": "address"
        }
      ],
      "name": "RoleRevoked",
      "type": "event"
    },
    {
      "anonymous": false,
      "inputs": [
        {
          "indexed": true,
          "internalType": "address",
          "name": "from",
          "type": "address"
        },
        {
          "indexed": true,
          "internalType": "address",
          "name": "to",
          "type": "address"
        },
        {
          "indexed": true,
          "internalType": "uint256",
          "name": "tokenId",
          "type": "uint256"
        }
      ],
      "name": "Transfer",
      "type": "event"
    },
    {
      "inputs": [],
      "name": "DEFAULT_ADMIN_ROLE",
      "outputs": [
        {
          "internalType": "bytes32",
          "name": "",
          "type": "bytes32"
        }
      ],
      "stateMutability": "view",
      "type": "function"
    },
    {
      "inputs": [
        {
          "internalType": "address",
          "name": "to",
          "type": "address"
        },
        {
          "internalType": "uint256",
          "name": "tokenId",
          "type": "uint256"
        }
      ],
      "name": "approve",
      "outputs": [],
      "stateMutability": "nonpayable",
      "type": "function"
    },
    {
      "inputs": [
        {
          "internalType": "address",
          "name": "owner",
          "type": "address"
        }
      ],
      "name": "balanceOf",
      "outputs": [
        {
          "internalType": "uint256",
          "name": "",
          "type": "uint256"
        }
      ],
      "stateMutability": "view",
      "type": "function"
    },
    {
      "inputs": [
        {
          "internalType": "enum Book.BookStatus",
          "name": "_status",
          "type": "uint8"
        },
        {
          "internalType": "uint256",
          "name": "_idBook",
          "type": "uint256"
        }
      ],
      "name": "changeBookStatus",
      "outputs": [],
      "stateMutability": "nonpayable",
      "type": "function"
    },
    {
      "inputs": [
        {
          "internalType": "string",
          "name": "_name",
          "type": "string"
        },
        {
          "internalType": "string",
          "name": "_description",
          "type": "string"
        },
        {
          "internalType": "enum Book.BookStatus",
          "name": "_status",
          "type": "uint8"
        }
      ],
      "name": "createBook",
      "outputs": [],
      "stateMutability": "nonpayable",
      "type": "function"
    },
    {
      "inputs": [],
      "name": "getAllBooks",
      "outputs": [
        {
          "components": [
            {
              "internalType": "uint256",
              "name": "id",
              "type": "uint256"
            },
            {
              "internalType": "address",
              "name": "owner",
              "type": "address"
            },
            {
              "internalType": "string",
              "name": "name",
              "type": "string"
            },
            {
              "internalType": "string",
              "name": "description",
              "type": "string"
            },
            {
              "internalType": "enum Book.BookStatus",
              "name": "status",
              "type": "uint8"
            }
          ],
          "internalType": "struct Book.BookDetails[]",
          "name": "",
          "type": "tuple[]"
        }
      ],
      "stateMutability": "view",
      "type": "function"
    },
    {
      "inputs": [
        {
          "internalType": "uint256",
          "name": "tokenId",
          "type": "uint256"
        }
      ],
      "name": "getApproved",
      "outputs": [
        {
          "internalType": "address",
          "name": "",
          "type": "address"
        }
      ],
      "stateMutability": "view",
      "type": "function"
    },
    {
      "inputs": [
        {
          "internalType": "uint256",
          "name": "_id",
          "type": "uint256"
        }
      ],
      "name": "getBookById",
      "outputs": [
        {
          "components": [
            {
              "internalType": "uint256",
              "name": "id",
              "type": "uint256"
            },
            {
              "internalType": "address",
              "name": "owner",
              "type": "address"
            },
            {
              "internalType": "string",
              "name": "name",
              "type": "string"
            },
            {
              "internalType": "string",
              "name": "description",
              "type": "string"
            },
            {
              "internalType": "enum Book.BookStatus",
              "name": "status",
              "type": "uint8"
            }
          ],
          "internalType": "struct Book.BookDetails",
          "name": "",
          "type": "tuple"
        }
      ],
      "stateMutability": "view",
      "type": "function"
    },
    {
      "inputs": [
        {
          "internalType": "address",
          "name": "_owner",
          "type": "address"
        }
      ],
      "name": "getBooksByOwner",
      "outputs": [
        {
          "components": [
            {
              "internalType": "uint256",
              "name": "id",
              "type": "uint256"
            },
            {
              "internalType": "address",
              "name": "owner",
              "type": "address"
            },
            {
              "internalType": "string",
              "name": "name",
              "type": "string"
            },
            {
              "internalType": "string",
              "name": "description",
              "type": "string"
            },
            {
              "internalType": "enum Book.BookStatus",
              "name": "status",
              "type": "uint8"
            }
          ],
          "internalType": "struct Book.BookDetails[]",
          "name": "",
          "type": "tuple[]"
        }
      ],
      "stateMutability": "view",
      "type": "function"
    },
    {
      "inputs": [
        {
          "internalType": "bytes32",
          "name": "role",
          "type": "bytes32"
        }
      ],
      "name": "getRoleAdmin",
      "outputs": [
        {
          "internalType": "bytes32",
          "name": "",
          "type": "bytes32"
        }
      ],
      "stateMutability": "view",
      "type": "function"
    },
    {
      "inputs": [
        {
          "internalType": "bytes32",
          "name": "role",
          "type": "bytes32"
        },
        {
          "internalType": "address",
          "name": "account",
          "type": "address"
        }
      ],
      "name": "grantRole",
      "outputs": [],
      "stateMutability": "nonpayable",
      "type": "function"
    },
    {
      "inputs": [
        {
          "internalType": "bytes32",
          "name": "role",
          "type": "bytes32"
        },
        {
          "internalType": "address",
          "name": "account",
          "type": "address"
        }
      ],
      "name": "hasRole",
      "outputs": [
        {
          "internalType": "bool",
          "name": "",
          "type": "bool"
        }
      ],
      "stateMutability": "view",
      "type": "function"
    },
    {
      "inputs": [
        {
          "internalType": "address",
          "name": "owner",
          "type": "address"
        },
        {
          "internalType": "address",
          "name": "operator",
          "type": "address"
        }
      ],
      "name": "isApprovedForAll",
      "outputs": [
        {
          "internalType": "bool",
          "name": "",
          "type": "bool"
        }
      ],
      "stateMutability": "view",
      "type": "function"
    },
    {
      "inputs": [],
      "name": "name",
      "outputs": [
        {
          "internalType": "string",
          "name": "",
          "type": "string"
        }
      ],
      "stateMutability": "view",
      "type": "function"
    },
    {
      "inputs": [
        {
          "internalType": "uint256",
          "name": "tokenId",
          "type": "uint256"
        }
      ],
      "name": "ownerOf",
      "outputs": [
        {
          "internalType": "address",
          "name": "",
          "type": "address"
        }
      ],
      "stateMutability": "view",
      "type": "function"
    },
    {
      "inputs": [
        {
          "internalType": "bytes32",
          "name": "role",
          "type": "bytes32"
        },
        {
          "internalType": "address",
          "name": "account",
          "type": "address"
        }
      ],
      "name": "renounceRole",
      "outputs": [],
      "stateMutability": "nonpayable",
      "type": "function"
    },
    {
      "inputs": [
        {
          "internalType": "bytes32",
          "name": "role",
          "type": "bytes32"
        },
        {
          "internalType": "address",
          "name": "account",
          "type": "address"
        }
      ],
      "name": "revokeRole",
      "outputs": [],
      "stateMutability": "nonpayable",
      "type": "function"
    },
    {
      "inputs": [
        {
          "internalType": "address",
          "name": "from",
          "type": "address"
        },
        {
          "internalType": "address",
          "name": "to",
          "type": "address"
        },
        {
          "internalType": "uint256",
          "name": "tokenId",
          "type": "uint256"
        }
      ],
      "name": "safeTransferFrom",
      "outputs": [],
      "stateMutability": "nonpayable",
      "type": "function"
    },
    {
      "inputs": [
        {
          "internalType": "address",
          "name": "from",
          "type": "address"
        },
        {
          "internalType": "address",
          "name": "to",
          "type": "address"
        },
        {
          "internalType": "uint256",
          "name": "tokenId",
          "type": "uint256"
        },
        {
          "internalType": "bytes",
          "name": "data",
          "type": "bytes"
        }
      ],
      "name": "safeTransferFrom",
      "outputs": [],
      "stateMutability": "nonpayable",
      "type": "function"
    },
    {
      "inputs": [
        {
          "internalType": "address",
          "name": "operator",
          "type": "address"
        },
        {
          "internalType": "bool",
          "name": "approved",
          "type": "bool"
        }
      ],
      "name": "setApprovalForAll",
      "outputs": [],
      "stateMutability": "nonpayable",
      "type": "function"
    },
    {
      "inputs": [
        {
          "internalType": "bytes4",
          "name": "interfaceId",
          "type": "bytes4"
        }
      ],
      "name": "supportsInterface",
      "outputs": [
        {
          "internalType": "bool",
          "name": "",
          "type": "bool"
        }
      ],
      "stateMutability": "view",
      "type": "function"
    },
    {
      "inputs": [],
      "name": "symbol",
      "outputs": [
        {
          "internalType": "string",
          "name": "",
          "type": "string"
        }
      ],
      "stateMutability": "view",
      "type": "function"
    },
    {
      "inputs": [
        {
          "internalType": "uint256",
          "name": "tokenId",
          "type": "uint256"
        }
      ],
      "name": "tokenURI",
      "outputs": [
        {
          "internalType": "string",
          "name": "",
          "type": "string"
        }
      ],
      "stateMutability": "view",
      "type": "function"
    },
    {
      "inputs": [
        {
          "internalType": "address",
          "name": "from",
          "type": "address"
        },
        {
          "internalType": "address",
          "name": "to",
          "type": "address"
        },
        {
          "internalType": "uint256",
          "name": "tokenId",
          "type": "uint256"
        }
      ],
      "name": "transferFrom",
      "outputs": [],
      "stateMutability": "nonpayable",
      "type": "function"
    }
  ],
  "bytecode": "0x60806040523480156200001157600080fd5b5060405180604001604052806006815260200165109bdbdad25160d21b81525060405180604001604052806003815260200162424f4f60e81b81525081600090816200005e91906200013b565b5060016200006d82826200013b565b5050506200008760096200008d60201b620011481760201c565b62000207565b80546001019055565b634e487b7160e01b600052604160045260246000fd5b600181811c90821680620000c157607f821691505b602082108103620000e257634e487b7160e01b600052602260045260246000fd5b50919050565b601f8211156200013657600081815260208120601f850160051c81016020861015620001115750805b601f850160051c820191505b8181101562000132578281556001016200011d565b5050505b505050565b81516001600160401b0381111562000157576200015762000096565b6200016f81620001688454620000ac565b84620000e8565b602080601f831160018114620001a757600084156200018e5750858301515b600019600386901b1c1916600185901b17855562000132565b600085815260208120601f198616915b82811015620001d857888601518255948401946001909101908401620001b7565b5085821015620001f75787850151600019600388901b60f8161c191681555b5050505050600190811b01905550565b61250e80620002176000396000f3fe608060405234801561001057600080fd5b50600436106101585760003560e01c80635ff47114116100c3578063a217fddf1161007c578063a217fddf146102f3578063a22cb465146102fb578063b88d4fde1461030e578063c87b56dd14610321578063d547741f14610334578063e985e9c51461034757600080fd5b80635ff471141461028c5780636352211e1461029f57806370a08231146102b25780637541bad3146102c557806391d14854146102d857806395d89b41146102eb57600080fd5b80632f2ff15d116101155780632f2ff15d1461021e578063354528e81461023157806336568abe14610246578063418b79ab1461025957806342842e0e146101da5780634be497c91461027957600080fd5b806301ffc9a71461015d57806306fdde0314610185578063081812fc1461019a578063095ea7b3146101c557806323b872dd146101da578063248a9ca3146101ed575b600080fd5b61017061016b366004611ccd565b610383565b60405190151581526020015b60405180910390f35b61018d6103a3565b60405161017c9190611d3a565b6101ad6101a8366004611d4d565b610435565b6040516001600160a01b03909116815260200161017c565b6101d86101d3366004611d82565b61045c565b005b6101d86101e8366004611dac565b610576565b6102106101fb366004611d4d565b60009081526006602052604090206001015490565b60405190815260200161017c565b6101d861022c366004611de8565b6105ac565b6102396105d1565b60405161017c9190611eab565b6101d8610254366004611de8565b610818565b61026c610267366004611d4d565b610896565b60405161017c9190611f0d565b6101d8610287366004611f2f565b610a76565b61023961029a366004611f4b565b610b58565b6101ad6102ad366004611d4d565b610dec565b6102106102c0366004611f4b565b610e4c565b6101d86102d3366004612012565b610ed2565b6101706102e6366004611de8565b610fec565b61018d611017565b610210600081565b6101d8610309366004612086565b611026565b6101d861031c3660046120c2565b611031565b61018d61032f366004611d4d565b6110af565b6101d8610342366004611de8565b611123565b61017061035536600461213e565b6001600160a01b03918216600090815260056020908152604080832093909416825291909152205460ff1690565b600061038e82611151565b8061039d575061039d826111a1565b92915050565b6060600080546103b290612168565b80601f01602080910402602001604051908101604052809291908181526020018280546103de90612168565b801561042b5780601f106104005761010080835404028352916020019161042b565b820191906000526020600020905b81548152906001019060200180831161040e57829003601f168201915b5050505050905090565b6000610440826111c6565b506000908152600460205260409020546001600160a01b031690565b600061046782610dec565b9050806001600160a01b0316836001600160a01b0316036104d95760405162461bcd60e51b815260206004820152602160248201527f4552433732313a20617070726f76616c20746f2063757272656e74206f776e656044820152603960f91b60648201526084015b60405180910390fd5b336001600160a01b03821614806104f557506104f58133610355565b6105675760405162461bcd60e51b815260206004820152603d60248201527f4552433732313a20617070726f76652063616c6c6572206973206e6f7420746f60448201527f6b656e206f776e6572206f7220617070726f76656420666f7220616c6c00000060648201526084016104d0565b6105718383611228565b505050565b60405162461bcd60e51b815260206004820152600b60248201526a139bdd08185b1b1bddd95960aa1b60448201526064016104d0565b6000828152600660205260409020600101546105c781611296565b61057183836112a0565b606060006105de60095490565b67ffffffffffffffff8111156105f6576105f6611f66565b60405190808252806020026020018201604052801561062f57816020015b61061c611c6f565b8152602001906001900390816106145790505b50905060005b600161064060095490565b61064a91906121b2565b81101561081257600081815260086020908152604091829020825160a0810184528154815260018201546001600160a01b031692810192909252600281018054929391929184019161069b90612168565b80601f01602080910402602001604051908101604052809291908181526020018280546106c790612168565b80156107145780601f106106e957610100808354040283529160200191610714565b820191906000526020600020905b8154815290600101906020018083116106f757829003601f168201915b5050505050815260200160038201805461072d90612168565b80601f016020809104026020016040519081016040528092919081815260200182805461075990612168565b80156107a65780601f1061077b576101008083540402835291602001916107a6565b820191906000526020600020905b81548152906001019060200180831161078957829003601f168201915b5050509183525050600482015460209091019060ff1660028111156107cd576107cd611e14565b60028111156107de576107de611e14565b815250508282815181106107f4576107f46121c5565b6020026020010181905250808061080a906121db565b915050610635565b50919050565b6001600160a01b03811633146108885760405162461bcd60e51b815260206004820152602f60248201527f416363657373436f6e74726f6c3a2063616e206f6e6c792072656e6f756e636560448201526e103937b632b9903337b91039b2b63360891b60648201526084016104d0565b6108928282611326565b5050565b61089e611c6f565b60095482106108e05760405162461bcd60e51b815260206004820152600e60248201526d109bdbdac81b9bdd08199bdd5b9960921b60448201526064016104d0565b600082815260086020908152604091829020825160a0810184528154815260018201546001600160a01b031692810192909252600281018054929391929184019161092a90612168565b80601f016020809104026020016040519081016040528092919081815260200182805461095690612168565b80156109a35780601f10610978576101008083540402835291602001916109a3565b820191906000526020600020905b81548152906001019060200180831161098657829003601f168201915b505050505081526020016003820180546109bc90612168565b80601f01602080910402602001604051908101604052809291908181526020018280546109e890612168565b8015610a355780601f10610a0a57610100808354040283529160200191610a35565b820191906000526020600020905b815481529060010190602001808311610a1857829003601f168201915b5050509183525050600482015460209091019060ff166002811115610a5c57610a5c611e14565b6002811115610a6d57610a6d611e14565b90525092915050565b6009548110610ab85760405162461bcd60e51b815260206004820152600e60248201526d109bdbdac81b9bdd08199bdd5b9960921b60448201526064016104d0565b6000818152600860205260409020600101546001600160a01b03163314610b215760405162461bcd60e51b815260206004820152601960248201527f4e6f7420746865206f776e6572206f662074686520626f6f6b0000000000000060448201526064016104d0565b6000818152600860205260409020600401805483919060ff19166001836002811115610b4f57610b4f611e14565b02179055505050565b6001600160a01b0381166000908152600760205260408120546060919067ffffffffffffffff811115610b8d57610b8d611f66565b604051908082528060200260200182016040528015610bc657816020015b610bb3611c6f565b815260200190600190039081610bab5790505b50905060005b6001600160a01b038416600090815260076020526040902054811015610de5576001600160a01b03841660009081526007602052604081208054600892919084908110610c1b57610c1b6121c5565b600091825260208083209091015483528281019390935260409182019020815160a0810183528154815260018201546001600160a01b0316938101939093526002810180549192840191610c6e90612168565b80601f0160208091040260200160405190810160405280929190818152602001828054610c9a90612168565b8015610ce75780601f10610cbc57610100808354040283529160200191610ce7565b820191906000526020600020905b815481529060010190602001808311610cca57829003601f168201915b50505050508152602001600382018054610d0090612168565b80601f0160208091040260200160405190810160405280929190818152602001828054610d2c90612168565b8015610d795780601f10610d4e57610100808354040283529160200191610d79565b820191906000526020600020905b815481529060010190602001808311610d5c57829003601f168201915b5050509183525050600482015460209091019060ff166002811115610da057610da0611e14565b6002811115610db157610db1611e14565b81525050828281518110610dc757610dc76121c5565b60200260200101819052508080610ddd906121db565b915050610bcc565b5092915050565b6000818152600260205260408120546001600160a01b03168061039d5760405162461bcd60e51b8152602060048201526018602482015277115490cdcc8c4e881a5b9d985b1a59081d1bdad95b88125160421b60448201526064016104d0565b60006001600160a01b038216610eb65760405162461bcd60e51b815260206004820152602960248201527f4552433732313a2061646472657373207a65726f206973206e6f7420612076616044820152683634b21037bbb732b960b91b60648201526084016104d0565b506001600160a01b031660009081526003602052604090205490565b6000610edd60095490565b905060006040518060a00160405280838152602001336001600160a01b03168152602001868152602001858152602001846002811115610f1f57610f1f611e14565b9052336000908152600760209081526040808320805460018082018355918552838520018790558684526008835292819020845181559184015192820180546001600160a01b0319166001600160a01b03909416939093179092559082015191925082916002820190610f929082612242565b5060608201516003820190610fa79082612242565b50608082015160048201805460ff19166001836002811115610fcb57610fcb611e14565b02179055505060098054600101905550610fe5338361138d565b5050505050565b60009182526006602090815260408084206001600160a01b0393909316845291905290205460ff1690565b6060600180546103b290612168565b610892338383611518565b61103b33836115e6565b61109d5760405162461bcd60e51b815260206004820152602d60248201527f4552433732313a2063616c6c6572206973206e6f7420746f6b656e206f776e6560448201526c1c881bdc88185c1c1c9bdd9959609a1b60648201526084016104d0565b6110a984848484611665565b50505050565b60606110ba826111c6565b60006110d160408051602081019091526000815290565b905060008151116110f1576040518060200160405280600081525061111c565b806110fb84611698565b60405160200161110c929190612302565b6040516020818303038152906040525b9392505050565b60008281526006602052604090206001015461113e81611296565b6105718383611326565b80546001019055565b60006001600160e01b031982166380ac58cd60e01b148061118257506001600160e01b03198216635b5e139f60e01b145b8061039d57506301ffc9a760e01b6001600160e01b031983161461039d565b60006001600160e01b03198216637965db0b60e01b148061039d575061039d82611151565b6000818152600260205260409020546001600160a01b03166112255760405162461bcd60e51b8152602060048201526018602482015277115490cdcc8c4e881a5b9d985b1a59081d1bdad95b88125160421b60448201526064016104d0565b50565b600081815260046020526040902080546001600160a01b0319166001600160a01b038416908117909155819061125d82610dec565b6001600160a01b03167f8c5be1e5ebec7d5bd14f71427d1e84f3dd0314c0f7b2291e5b200ac8c7c3b92560405160405180910390a45050565b611225813361172b565b6112aa8282610fec565b6108925760008281526006602090815260408083206001600160a01b03851684529091529020805460ff191660011790556112e23390565b6001600160a01b0316816001600160a01b0316837f2f8788117e7eff1d82e926ec794901d17c78024a50270940304540a733656f0d60405160405180910390a45050565b6113308282610fec565b156108925760008281526006602090815260408083206001600160a01b0385168085529252808320805460ff1916905551339285917ff6391f5c32d9c69d2a47ea670b442974b53935d1edc7fd64eb21e047a839171b9190a45050565b6001600160a01b0382166113e35760405162461bcd60e51b815260206004820181905260248201527f4552433732313a206d696e7420746f20746865207a65726f206164647265737360448201526064016104d0565b6000818152600260205260409020546001600160a01b0316156114485760405162461bcd60e51b815260206004820152601c60248201527f4552433732313a20746f6b656e20616c7265616479206d696e7465640000000060448201526064016104d0565b6000818152600260205260409020546001600160a01b0316156114ad5760405162461bcd60e51b815260206004820152601c60248201527f4552433732313a20746f6b656e20616c7265616479206d696e7465640000000060448201526064016104d0565b6001600160a01b038216600081815260036020908152604080832080546001019055848352600290915280822080546001600160a01b0319168417905551839291907fddf252ad1be2c89b69c2b068fc378daa952ba7f163c4a11628f55a4df523b3ef908290a45050565b816001600160a01b0316836001600160a01b0316036115795760405162461bcd60e51b815260206004820152601960248201527f4552433732313a20617070726f766520746f2063616c6c65720000000000000060448201526064016104d0565b6001600160a01b03838116600081815260056020908152604080832094871680845294825291829020805460ff191686151590811790915591519182527f17307eab39ab6107e8899845ad3d59bd9653f200f220920489ca2b5937696c31910160405180910390a3505050565b6000806115f283610dec565b9050806001600160a01b0316846001600160a01b0316148061163957506001600160a01b0380821660009081526005602090815260408083209388168352929052205460ff165b8061165d5750836001600160a01b031661165284610435565b6001600160a01b0316145b949350505050565b611670848484611784565b61167c848484846118e8565b6110a95760405162461bcd60e51b81526004016104d090612331565b606060006116a5836119e9565b600101905060008167ffffffffffffffff8111156116c5576116c5611f66565b6040519080825280601f01601f1916602001820160405280156116ef576020820181803683370190505b5090508181016020015b600019016f181899199a1a9b1b9c1cb0b131b232b360811b600a86061a8153600a85049450846116f957509392505050565b6117358282610fec565b6108925761174281611ac1565b61174d836020611ad3565b60405160200161175e929190612383565b60408051601f198184030181529082905262461bcd60e51b82526104d091600401611d3a565b826001600160a01b031661179782610dec565b6001600160a01b0316146117bd5760405162461bcd60e51b81526004016104d0906123f8565b6001600160a01b03821661181f5760405162461bcd60e51b8152602060048201526024808201527f4552433732313a207472616e7366657220746f20746865207a65726f206164646044820152637265737360e01b60648201526084016104d0565b826001600160a01b031661183282610dec565b6001600160a01b0316146118585760405162461bcd60e51b81526004016104d0906123f8565b600081815260046020908152604080832080546001600160a01b03199081169091556001600160a01b0387811680865260038552838620805460001901905590871680865283862080546001019055868652600290945282852080549092168417909155905184937fddf252ad1be2c89b69c2b068fc378daa952ba7f163c4a11628f55a4df523b3ef91a4505050565b60006001600160a01b0384163b156119de57604051630a85bd0160e11b81526001600160a01b0385169063150b7a029061192c90339089908890889060040161243d565b6020604051808303816000875af1925050508015611967575060408051601f3d908101601f191682019092526119649181019061247a565b60015b6119c4573d808015611995576040519150601f19603f3d011682016040523d82523d6000602084013e61199a565b606091505b5080516000036119bc5760405162461bcd60e51b81526004016104d090612331565b805181602001fd5b6001600160e01b031916630a85bd0160e11b14905061165d565b506001949350505050565b60008072184f03e93ff9f4daa797ed6e38ed64bf6a1f0160401b8310611a285772184f03e93ff9f4daa797ed6e38ed64bf6a1f0160401b830492506040015b6d04ee2d6d415b85acef81000000008310611a54576d04ee2d6d415b85acef8100000000830492506020015b662386f26fc100008310611a7257662386f26fc10000830492506010015b6305f5e1008310611a8a576305f5e100830492506008015b6127108310611a9e57612710830492506004015b60648310611ab0576064830492506002015b600a831061039d5760010192915050565b606061039d6001600160a01b03831660145b60606000611ae2836002612497565b611aed9060026124ae565b67ffffffffffffffff811115611b0557611b05611f66565b6040519080825280601f01601f191660200182016040528015611b2f576020820181803683370190505b509050600360fc1b81600081518110611b4a57611b4a6121c5565b60200101906001600160f81b031916908160001a905350600f60fb1b81600181518110611b7957611b796121c5565b60200101906001600160f81b031916908160001a9053506000611b9d846002612497565b611ba89060016124ae565b90505b6001811115611c20576f181899199a1a9b1b9c1cb0b131b232b360811b85600f1660108110611bdc57611bdc6121c5565b1a60f81b828281518110611bf257611bf26121c5565b60200101906001600160f81b031916908160001a90535060049490941c93611c19816124c1565b9050611bab565b50831561111c5760405162461bcd60e51b815260206004820181905260248201527f537472696e67733a20686578206c656e67746820696e73756666696369656e7460448201526064016104d0565b6040518060a001604052806000815260200160006001600160a01b03168152602001606081526020016060815260200160006002811115611cb257611cb2611e14565b905290565b6001600160e01b03198116811461122557600080fd5b600060208284031215611cdf57600080fd5b813561111c81611cb7565b60005b83811015611d05578181015183820152602001611ced565b50506000910152565b60008151808452611d26816020860160208601611cea565b601f01601f19169290920160200192915050565b60208152600061111c6020830184611d0e565b600060208284031215611d5f57600080fd5b5035919050565b80356001600160a01b0381168114611d7d57600080fd5b919050565b60008060408385031215611d9557600080fd5b611d9e83611d66565b946020939093013593505050565b600080600060608486031215611dc157600080fd5b611dca84611d66565b9250611dd860208501611d66565b9150604084013590509250925092565b60008060408385031215611dfb57600080fd5b82359150611e0b60208401611d66565b90509250929050565b634e487b7160e01b600052602160045260246000fd5b8051825260018060a01b0360208201511660208301526000604082015160a06040850152611e5b60a0850182611d0e565b905060608301518482036060860152611e748282611d0e565b915050608083015160038110611e9a57634e487b7160e01b600052602160045260246000fd5b806080860152508091505092915050565b6000602080830181845280855180835260408601915060408160051b870101925083870160005b82811015611f0057603f19888603018452611eee858351611e2a565b94509285019290850190600101611ed2565b5092979650505050505050565b60208152600061111c6020830184611e2a565b803560038110611d7d57600080fd5b60008060408385031215611f4257600080fd5b611d9e83611f20565b600060208284031215611f5d57600080fd5b61111c82611d66565b634e487b7160e01b600052604160045260246000fd5b600067ffffffffffffffff80841115611f9757611f97611f66565b604051601f8501601f19908116603f01168101908282118183101715611fbf57611fbf611f66565b81604052809350858152868686011115611fd857600080fd5b858560208301376000602087830101525050509392505050565b600082601f83011261200357600080fd5b61111c83833560208501611f7c565b60008060006060848603121561202757600080fd5b833567ffffffffffffffff8082111561203f57600080fd5b61204b87838801611ff2565b9450602086013591508082111561206157600080fd5b5061206e86828701611ff2565b92505061207d60408501611f20565b90509250925092565b6000806040838503121561209957600080fd5b6120a283611d66565b9150602083013580151581146120b757600080fd5b809150509250929050565b600080600080608085870312156120d857600080fd5b6120e185611d66565b93506120ef60208601611d66565b925060408501359150606085013567ffffffffffffffff81111561211257600080fd5b8501601f8101871361212357600080fd5b61213287823560208401611f7c565b91505092959194509250565b6000806040838503121561215157600080fd5b61215a83611d66565b9150611e0b60208401611d66565b600181811c9082168061217c57607f821691505b60208210810361081257634e487b7160e01b600052602260045260246000fd5b634e487b7160e01b600052601160045260246000fd5b8181038181111561039d5761039d61219c565b634e487b7160e01b600052603260045260246000fd5b6000600182016121ed576121ed61219c565b5060010190565b601f82111561057157600081815260208120601f850160051c8101602086101561221b5750805b601f850160051c820191505b8181101561223a57828155600101612227565b505050505050565b815167ffffffffffffffff81111561225c5761225c611f66565b6122708161226a8454612168565b846121f4565b602080601f8311600181146122a5576000841561228d5750858301515b600019600386901b1c1916600185901b17855561223a565b600085815260208120601f198616915b828110156122d4578886015182559484019460019091019084016122b5565b50858210156122f25787850151600019600388901b60f8161c191681555b5050505050600190811b01905550565b60008351612314818460208801611cea565b835190830190612328818360208801611cea565b01949350505050565b60208082526032908201527f4552433732313a207472616e7366657220746f206e6f6e20455243373231526560408201527131b2b4bb32b91034b6b83632b6b2b73a32b960711b606082015260800190565b7f416363657373436f6e74726f6c3a206163636f756e74200000000000000000008152600083516123bb816017850160208801611cea565b7001034b99036b4b9b9b4b733903937b6329607d1b60179184019182015283516123ec816028840160208801611cea565b01602801949350505050565b60208082526025908201527f4552433732313a207472616e736665722066726f6d20696e636f72726563742060408201526437bbb732b960d91b606082015260800190565b6001600160a01b038581168252841660208201526040810183905260806060820181905260009061247090830184611d0e565b9695505050505050565b60006020828403121561248c57600080fd5b815161111c81611cb7565b808202811582820484141761039d5761039d61219c565b8082018082111561039d5761039d61219c565b6000816124d0576124d061219c565b50600019019056fea2646970667358221220c41fe6135ecfb114d1f0953b28e710cc69c882fe581a21a0c5f5d39d5c1dd80764736f6c63430008110033",
  "linkReferences": {},
  "deployedLinkReferences": {}
}