{
  "_format": "hh-sol-artifact-1",
  "contractName": "Chapter",
  "sourceName": "contracts/Chapter.sol",
  "abi": [
    {
      "inputs": [],
      "stateMutability": "nonpayable",
      "type": "constructor"
    },
    {
      "anonymous": false,
      "inputs": [
        {
          "indexed": true,
          "internalType": "address",
          "name": "owner",
          "type": "address"
        },
        {
          "indexed": true,
          "internalType": "address",
          "name": "approved",
          "type": "address"
        },
        {
          "indexed": true,
          "internalType": "uint256",
          "name": "tokenId",
          "type": "uint256"
        }
      ],
      "name": "Approval",
      "type": "event"
    },
    {
      "anonymous": false,
      "inputs": [
        {
          "indexed": true,
          "internalType": "address",
          "name": "owner",
          "type": "address"
        },
        {
          "indexed": true,
          "internalType": "address",
          "name": "operator",
          "type": "address"
        },
        {
          "indexed": false,
          "internalType": "bool",
          "name": "approved",
          "type": "bool"
        }
      ],
      "name": "ApprovalForAll",
      "type": "event"
    },
    {
      "anonymous": false,
      "inputs": [
        {
          "indexed": true,
          "internalType": "bytes32",
          "name": "role",
          "type": "bytes32"
        },
        {
          "indexed": true,
          "internalType": "bytes32",
          "name": "previousAdminRole",
          "type": "bytes32"
        },
        {
          "indexed": true,
          "internalType": "bytes32",
          "name": "newAdminRole",
          "type": "bytes32"
        }
      ],
      "name": "RoleAdminChanged",
      "type": "event"
    },
    {
      "anonymous": false,
      "inputs": [
        {
          "indexed": true,
          "internalType": "bytes32",
          "name": "role",
          "type": "bytes32"
        },
        {
          "indexed": true,
          "internalType": "address",
          "name": "account",
          "type": "address"
        },
        {
          "indexed": true,
          "internalType": "address",
          "name": "sender",
          "type": "address"
        }
      ],
      "name": "RoleGranted",
      "type": "event"
    },
    {
      "anonymous": false,
      "inputs": [
        {
          "indexed": true,
          "internalType": "bytes32",
          "name": "role",
          "type": "bytes32"
        },
        {
          "indexed": true,
          "internalType": "address",
          "name": "account",
          "type": "address"
        },
        {
          "indexed": true,
          "internalType": "address",
          "name": "sender",
          "type": "address"
        }
      ],
      "name": "RoleRevoked",
      "type": "event"
    },
    {
      "anonymous": false,
      "inputs": [
        {
          "indexed": true,
          "internalType": "address",
          "name": "from",
          "type": "address"
        },
        {
          "indexed": true,
          "internalType": "address",
          "name": "to",
          "type": "address"
        },
        {
          "indexed": true,
          "internalType": "uint256",
          "name": "tokenId",
          "type": "uint256"
        }
      ],
      "name": "Transfer",
      "type": "event"
    },
    {
      "inputs": [],
      "name": "DEFAULT_ADMIN_ROLE",
      "outputs": [
        {
          "internalType": "bytes32",
          "name": "",
          "type": "bytes32"
        }
      ],
      "stateMutability": "view",
      "type": "function"
    },
    {
      "inputs": [
        {
          "internalType": "address",
          "name": "to",
          "type": "address"
        },
        {
          "internalType": "uint256",
          "name": "tokenId",
          "type": "uint256"
        }
      ],
      "name": "approve",
      "outputs": [],
      "stateMutability": "nonpayable",
      "type": "function"
    },
    {
      "inputs": [
        {
          "internalType": "address",
          "name": "owner",
          "type": "address"
        }
      ],
      "name": "balanceOf",
      "outputs": [
        {
          "internalType": "uint256",
          "name": "",
          "type": "uint256"
        }
      ],
      "stateMutability": "view",
      "type": "function"
    },
    {
      "inputs": [
        {
          "internalType": "uint256",
          "name": "_bookId",
          "type": "uint256"
        },
        {
          "internalType": "string",
          "name": "_name",
          "type": "string"
        },
        {
          "internalType": "string",
          "name": "_publicContent",
          "type": "string"
        },
        {
          "internalType": "string",
          "name": "_privateContent",
          "type": "string"
        }
      ],
      "name": "createChapter",
      "outputs": [],
      "stateMutability": "nonpayable",
      "type": "function"
    },
    {
      "inputs": [
        {
          "internalType": "uint256",
          "name": "tokenId",
          "type": "uint256"
        }
      ],
      "name": "getApproved",
      "outputs": [
        {
          "internalType": "address",
          "name": "",
          "type": "address"
        }
      ],
      "stateMutability": "view",
      "type": "function"
    },
    {
      "inputs": [
        {
          "internalType": "uint256",
          "name": "_bookID",
          "type": "uint256"
        }
      ],
      "name": "getChapters",
      "outputs": [
        {
          "components": [
            {
              "internalType": "uint256",
              "name": "id",
              "type": "uint256"
            },
            {
              "internalType": "address",
              "name": "owner",
              "type": "address"
            },
            {
              "internalType": "string",
              "name": "name",
              "type": "string"
            },
            {
              "internalType": "string",
              "name": "publicContent",
              "type": "string"
            },
            {
              "internalType": "string",
              "name": "privateContent",
              "type": "string"
            },
            {
              "internalType": "uint256",
              "name": "bookId",
              "type": "uint256"
            }
          ],
          "internalType": "struct Chapter.ChapterDetails[]",
          "name": "",
          "type": "tuple[]"
        }
      ],
      "stateMutability": "view",
      "type": "function"
    },
    {
      "inputs": [
        {
          "internalType": "bytes32",
          "name": "role",
          "type": "bytes32"
        }
      ],
      "name": "getRoleAdmin",
      "outputs": [
        {
          "internalType": "bytes32",
          "name": "",
          "type": "bytes32"
        }
      ],
      "stateMutability": "view",
      "type": "function"
    },
    {
      "inputs": [
        {
          "internalType": "bytes32",
          "name": "role",
          "type": "bytes32"
        },
        {
          "internalType": "address",
          "name": "account",
          "type": "address"
        }
      ],
      "name": "grantRole",
      "outputs": [],
      "stateMutability": "nonpayable",
      "type": "function"
    },
    {
      "inputs": [
        {
          "internalType": "bytes32",
          "name": "role",
          "type": "bytes32"
        },
        {
          "internalType": "address",
          "name": "account",
          "type": "address"
        }
      ],
      "name": "hasRole",
      "outputs": [
        {
          "internalType": "bool",
          "name": "",
          "type": "bool"
        }
      ],
      "stateMutability": "view",
      "type": "function"
    },
    {
      "inputs": [
        {
          "internalType": "address",
          "name": "owner",
          "type": "address"
        },
        {
          "internalType": "address",
          "name": "operator",
          "type": "address"
        }
      ],
      "name": "isApprovedForAll",
      "outputs": [
        {
          "internalType": "bool",
          "name": "",
          "type": "bool"
        }
      ],
      "stateMutability": "view",
      "type": "function"
    },
    {
      "inputs": [],
      "name": "name",
      "outputs": [
        {
          "internalType": "string",
          "name": "",
          "type": "string"
        }
      ],
      "stateMutability": "view",
      "type": "function"
    },
    {
      "inputs": [
        {
          "internalType": "uint256",
          "name": "tokenId",
          "type": "uint256"
        }
      ],
      "name": "ownerOf",
      "outputs": [
        {
          "internalType": "address",
          "name": "",
          "type": "address"
        }
      ],
      "stateMutability": "view",
      "type": "function"
    },
    {
      "inputs": [
        {
          "internalType": "bytes32",
          "name": "role",
          "type": "bytes32"
        },
        {
          "internalType": "address",
          "name": "account",
          "type": "address"
        }
      ],
      "name": "renounceRole",
      "outputs": [],
      "stateMutability": "nonpayable",
      "type": "function"
    },
    {
      "inputs": [
        {
          "internalType": "bytes32",
          "name": "role",
          "type": "bytes32"
        },
        {
          "internalType": "address",
          "name": "account",
          "type": "address"
        }
      ],
      "name": "revokeRole",
      "outputs": [],
      "stateMutability": "nonpayable",
      "type": "function"
    },
    {
      "inputs": [
        {
          "internalType": "address",
          "name": "from",
          "type": "address"
        },
        {
          "internalType": "address",
          "name": "to",
          "type": "address"
        },
        {
          "internalType": "uint256",
          "name": "tokenId",
          "type": "uint256"
        }
      ],
      "name": "safeTransferFrom",
      "outputs": [],
      "stateMutability": "nonpayable",
      "type": "function"
    },
    {
      "inputs": [
        {
          "internalType": "address",
          "name": "from",
          "type": "address"
        },
        {
          "internalType": "address",
          "name": "to",
          "type": "address"
        },
        {
          "internalType": "uint256",
          "name": "tokenId",
          "type": "uint256"
        },
        {
          "internalType": "bytes",
          "name": "data",
          "type": "bytes"
        }
      ],
      "name": "safeTransferFrom",
      "outputs": [],
      "stateMutability": "nonpayable",
      "type": "function"
    },
    {
      "inputs": [
        {
          "internalType": "address",
          "name": "operator",
          "type": "address"
        },
        {
          "internalType": "bool",
          "name": "approved",
          "type": "bool"
        }
      ],
      "name": "setApprovalForAll",
      "outputs": [],
      "stateMutability": "nonpayable",
      "type": "function"
    },
    {
      "inputs": [
        {
          "internalType": "bytes4",
          "name": "interfaceId",
          "type": "bytes4"
        }
      ],
      "name": "supportsInterface",
      "outputs": [
        {
          "internalType": "bool",
          "name": "",
          "type": "bool"
        }
      ],
      "stateMutability": "view",
      "type": "function"
    },
    {
      "inputs": [],
      "name": "symbol",
      "outputs": [
        {
          "internalType": "string",
          "name": "",
          "type": "string"
        }
      ],
      "stateMutability": "view",
      "type": "function"
    },
    {
      "inputs": [
        {
          "internalType": "uint256",
          "name": "tokenId",
          "type": "uint256"
        }
      ],
      "name": "tokenURI",
      "outputs": [
        {
          "internalType": "string",
          "name": "",
          "type": "string"
        }
      ],
      "stateMutability": "view",
      "type": "function"
    },
    {
      "inputs": [
        {
          "internalType": "address",
          "name": "from",
          "type": "address"
        },
        {
          "internalType": "address",
          "name": "to",
          "type": "address"
        },
        {
          "internalType": "uint256",
          "name": "tokenId",
          "type": "uint256"
        }
      ],
      "name": "transferFrom",
      "outputs": [],
      "stateMutability": "nonpayable",
      "type": "function"
    }
  ],
  "bytecode": "0x60806040523480156200001157600080fd5b506040518060400160405280600981526020016810da185c1d195c925160ba1b8152506040518060400160405280600381526020016243484160e81b81525081600090816200006191906200013e565b5060016200007082826200013e565b5050506200008a60086200009060201b62000b801760201c565b6200020a565b80546001019055565b634e487b7160e01b600052604160045260246000fd5b600181811c90821680620000c457607f821691505b602082108103620000e557634e487b7160e01b600052602260045260246000fd5b50919050565b601f8211156200013957600081815260208120601f850160051c81016020861015620001145750805b601f850160051c820191505b81811015620001355782815560010162000120565b5050505b505050565b81516001600160401b038111156200015a576200015a62000099565b62000172816200016b8454620000af565b84620000eb565b602080601f831160018114620001aa5760008415620001915750858301515b600019600386901b1c1916600185901b17855562000135565b600085815260208120601f198616915b82811015620001db57888601518255948401946001909101908401620001ba565b5085821015620001fa5787850151600019600388901b60f8161c191681555b5050505050600190811b01905550565b611e78806200021a6000396000f3fe608060405234801561001057600080fd5b50600436106101375760003560e01c806370a08231116100b8578063a22cb4651161007c578063a22cb4651461027f578063ac678a9314610292578063b88d4fde146102b2578063c87b56dd146102c5578063d547741f146102d8578063e985e9c5146102eb57600080fd5b806370a082311461023657806391d148541461024957806395d89b411461025c57806399e7177914610264578063a217fddf1461027757600080fd5b8063248a9ca3116100ff578063248a9ca3146101cc5780632f2ff15d146101fd57806336568abe1461021057806342842e0e146101b95780636352211e1461022357600080fd5b806301ffc9a71461013c57806306fdde0314610164578063081812fc14610179578063095ea7b3146101a457806323b872dd146101b9575b600080fd5b61014f61014a3660046116bd565b610327565b60405190151581526020015b60405180910390f35b61016c610347565b60405161015b919061172a565b61018c61018736600461173d565b6103d9565b6040516001600160a01b03909116815260200161015b565b6101b76101b2366004611772565b610400565b005b6101b76101c736600461179c565b61051a565b6101ef6101da36600461173d565b60009081526006602052604090206001015490565b60405190815260200161015b565b6101b761020b3660046117d8565b610550565b6101b761021e3660046117d8565b610575565b61018c61023136600461173d565b6105f3565b6101ef610244366004611804565b610653565b61014f6102573660046117d8565b6106d9565b61016c610704565b6101b76102723660046118cb565b610713565b6101ef600081565b6101b761028d36600461195d565b61080c565b6102a56102a036600461173d565b610817565b60405161015b9190611999565b6101b76102c0366004611a66565b610a69565b61016c6102d336600461173d565b610ae7565b6101b76102e63660046117d8565b610b5b565b61014f6102f9366004611ad6565b6001600160a01b03918216600090815260056020908152604080832093909416825291909152205460ff1690565b600061033282610b89565b80610341575061034182610bd9565b92915050565b60606000805461035690611b00565b80601f016020809104026020016040519081016040528092919081815260200182805461038290611b00565b80156103cf5780601f106103a4576101008083540402835291602001916103cf565b820191906000526020600020905b8154815290600101906020018083116103b257829003601f168201915b5050505050905090565b60006103e482610bfe565b506000908152600460205260409020546001600160a01b031690565b600061040b826105f3565b9050806001600160a01b0316836001600160a01b03160361047d5760405162461bcd60e51b815260206004820152602160248201527f4552433732313a20617070726f76616c20746f2063757272656e74206f776e656044820152603960f91b60648201526084015b60405180910390fd5b336001600160a01b0382161480610499575061049981336102f9565b61050b5760405162461bcd60e51b815260206004820152603d60248201527f4552433732313a20617070726f76652063616c6c6572206973206e6f7420746f60448201527f6b656e206f776e6572206f7220617070726f76656420666f7220616c6c0000006064820152608401610474565b6105158383610c60565b505050565b60405162461bcd60e51b815260206004820152600b60248201526a139bdd08185b1b1bddd95960aa1b6044820152606401610474565b60008281526006602052604090206001015461056b81610cce565b6105158383610cd8565b6001600160a01b03811633146105e55760405162461bcd60e51b815260206004820152602f60248201527f416363657373436f6e74726f6c3a2063616e206f6e6c792072656e6f756e636560448201526e103937b632b9903337b91039b2b63360891b6064820152608401610474565b6105ef8282610d5e565b5050565b6000818152600260205260408120546001600160a01b0316806103415760405162461bcd60e51b8152602060048201526018602482015277115490cdcc8c4e881a5b9d985b1a59081d1bdad95b88125160421b6044820152606401610474565b60006001600160a01b0382166106bd5760405162461bcd60e51b815260206004820152602960248201527f4552433732313a2061646472657373207a65726f206973206e6f7420612076616044820152683634b21037bbb732b960b91b6064820152608401610474565b506001600160a01b031660009081526003602052604090205490565b60009182526006602090815260408084206001600160a01b0393909316845291905290205460ff1690565b60606001805461035690611b00565b600061071e60085490565b6040805160c081018252828152336020820152908101869052606081018590526080810184905260a0810187905290915061075d600880546001019055565b60008681526007602090815260408083208054600180820183559185529383902085516006909502019384559184015191830180546001600160a01b0319166001600160a01b039093169290921790915582015182919060028201906107c39082611b80565b50606082015160038201906107d89082611b80565b50608082015160048201906107ed9082611b80565b5060a0820151816005015550506108043383610dc5565b505050505050565b6105ef338383610f50565b606060076000838152602001908152602001600020805480602002602001604051908101604052809291908181526020016000905b82821015610a5e5760008481526020908190206040805160c081018252600686029092018054835260018101546001600160a01b0316938301939093526002830180549293929184019161089f90611b00565b80601f01602080910402602001604051908101604052809291908181526020018280546108cb90611b00565b80156109185780601f106108ed57610100808354040283529160200191610918565b820191906000526020600020905b8154815290600101906020018083116108fb57829003601f168201915b5050505050815260200160038201805461093190611b00565b80601f016020809104026020016040519081016040528092919081815260200182805461095d90611b00565b80156109aa5780601f1061097f576101008083540402835291602001916109aa565b820191906000526020600020905b81548152906001019060200180831161098d57829003601f168201915b505050505081526020016004820180546109c390611b00565b80601f01602080910402602001604051908101604052809291908181526020018280546109ef90611b00565b8015610a3c5780601f10610a1157610100808354040283529160200191610a3c565b820191906000526020600020905b815481529060010190602001808311610a1f57829003601f168201915b505050505081526020016005820154815250508152602001906001019061084c565b505050509050919050565b610a73338361101e565b610ad55760405162461bcd60e51b815260206004820152602d60248201527f4552433732313a2063616c6c6572206973206e6f7420746f6b656e206f776e6560448201526c1c881bdc88185c1c1c9bdd9959609a1b6064820152608401610474565b610ae18484848461109d565b50505050565b6060610af282610bfe565b6000610b0960408051602081019091526000815290565b90506000815111610b295760405180602001604052806000815250610b54565b80610b33846110d0565b604051602001610b44929190611c40565b6040516020818303038152906040525b9392505050565b600082815260066020526040902060010154610b7681610cce565b6105158383610d5e565b80546001019055565b60006001600160e01b031982166380ac58cd60e01b1480610bba57506001600160e01b03198216635b5e139f60e01b145b8061034157506301ffc9a760e01b6001600160e01b0319831614610341565b60006001600160e01b03198216637965db0b60e01b1480610341575061034182610b89565b6000818152600260205260409020546001600160a01b0316610c5d5760405162461bcd60e51b8152602060048201526018602482015277115490cdcc8c4e881a5b9d985b1a59081d1bdad95b88125160421b6044820152606401610474565b50565b600081815260046020526040902080546001600160a01b0319166001600160a01b0384169081179091558190610c95826105f3565b6001600160a01b03167f8c5be1e5ebec7d5bd14f71427d1e84f3dd0314c0f7b2291e5b200ac8c7c3b92560405160405180910390a45050565b610c5d8133611163565b610ce282826106d9565b6105ef5760008281526006602090815260408083206001600160a01b03851684529091529020805460ff19166001179055610d1a3390565b6001600160a01b0316816001600160a01b0316837f2f8788117e7eff1d82e926ec794901d17c78024a50270940304540a733656f0d60405160405180910390a45050565b610d6882826106d9565b156105ef5760008281526006602090815260408083206001600160a01b0385168085529252808320805460ff1916905551339285917ff6391f5c32d9c69d2a47ea670b442974b53935d1edc7fd64eb21e047a839171b9190a45050565b6001600160a01b038216610e1b5760405162461bcd60e51b815260206004820181905260248201527f4552433732313a206d696e7420746f20746865207a65726f20616464726573736044820152606401610474565b6000818152600260205260409020546001600160a01b031615610e805760405162461bcd60e51b815260206004820152601c60248201527f4552433732313a20746f6b656e20616c7265616479206d696e746564000000006044820152606401610474565b6000818152600260205260409020546001600160a01b031615610ee55760405162461bcd60e51b815260206004820152601c60248201527f4552433732313a20746f6b656e20616c7265616479206d696e746564000000006044820152606401610474565b6001600160a01b038216600081815260036020908152604080832080546001019055848352600290915280822080546001600160a01b0319168417905551839291907fddf252ad1be2c89b69c2b068fc378daa952ba7f163c4a11628f55a4df523b3ef908290a45050565b816001600160a01b0316836001600160a01b031603610fb15760405162461bcd60e51b815260206004820152601960248201527f4552433732313a20617070726f766520746f2063616c6c6572000000000000006044820152606401610474565b6001600160a01b03838116600081815260056020908152604080832094871680845294825291829020805460ff191686151590811790915591519182527f17307eab39ab6107e8899845ad3d59bd9653f200f220920489ca2b5937696c31910160405180910390a3505050565b60008061102a836105f3565b9050806001600160a01b0316846001600160a01b0316148061107157506001600160a01b0380821660009081526005602090815260408083209388168352929052205460ff165b806110955750836001600160a01b031661108a846103d9565b6001600160a01b0316145b949350505050565b6110a88484846111bc565b6110b484848484611320565b610ae15760405162461bcd60e51b815260040161047490611c6f565b606060006110dd83611421565b600101905060008167ffffffffffffffff8111156110fd576110fd61181f565b6040519080825280601f01601f191660200182016040528015611127576020820181803683370190505b5090508181016020015b600019016f181899199a1a9b1b9c1cb0b131b232b360811b600a86061a8153600a850494508461113157509392505050565b61116d82826106d9565b6105ef5761117a816114f9565b61118583602061150b565b604051602001611196929190611cc1565b60408051601f198184030181529082905262461bcd60e51b82526104749160040161172a565b826001600160a01b03166111cf826105f3565b6001600160a01b0316146111f55760405162461bcd60e51b815260040161047490611d36565b6001600160a01b0382166112575760405162461bcd60e51b8152602060048201526024808201527f4552433732313a207472616e7366657220746f20746865207a65726f206164646044820152637265737360e01b6064820152608401610474565b826001600160a01b031661126a826105f3565b6001600160a01b0316146112905760405162461bcd60e51b815260040161047490611d36565b600081815260046020908152604080832080546001600160a01b03199081169091556001600160a01b0387811680865260038552838620805460001901905590871680865283862080546001019055868652600290945282852080549092168417909155905184937fddf252ad1be2c89b69c2b068fc378daa952ba7f163c4a11628f55a4df523b3ef91a4505050565b60006001600160a01b0384163b1561141657604051630a85bd0160e11b81526001600160a01b0385169063150b7a0290611364903390899088908890600401611d7b565b6020604051808303816000875af192505050801561139f575060408051601f3d908101601f1916820190925261139c91810190611db8565b60015b6113fc573d8080156113cd576040519150601f19603f3d011682016040523d82523d6000602084013e6113d2565b606091505b5080516000036113f45760405162461bcd60e51b815260040161047490611c6f565b805181602001fd5b6001600160e01b031916630a85bd0160e11b149050611095565b506001949350505050565b60008072184f03e93ff9f4daa797ed6e38ed64bf6a1f0160401b83106114605772184f03e93ff9f4daa797ed6e38ed64bf6a1f0160401b830492506040015b6d04ee2d6d415b85acef8100000000831061148c576d04ee2d6d415b85acef8100000000830492506020015b662386f26fc1000083106114aa57662386f26fc10000830492506010015b6305f5e10083106114c2576305f5e100830492506008015b61271083106114d657612710830492506004015b606483106114e8576064830492506002015b600a83106103415760010192915050565b60606103416001600160a01b03831660145b6060600061151a836002611deb565b611525906002611e02565b67ffffffffffffffff81111561153d5761153d61181f565b6040519080825280601f01601f191660200182016040528015611567576020820181803683370190505b509050600360fc1b8160008151811061158257611582611e15565b60200101906001600160f81b031916908160001a905350600f60fb1b816001815181106115b1576115b1611e15565b60200101906001600160f81b031916908160001a90535060006115d5846002611deb565b6115e0906001611e02565b90505b6001811115611658576f181899199a1a9b1b9c1cb0b131b232b360811b85600f166010811061161457611614611e15565b1a60f81b82828151811061162a5761162a611e15565b60200101906001600160f81b031916908160001a90535060049490941c9361165181611e2b565b90506115e3565b508315610b545760405162461bcd60e51b815260206004820181905260248201527f537472696e67733a20686578206c656e67746820696e73756666696369656e746044820152606401610474565b6001600160e01b031981168114610c5d57600080fd5b6000602082840312156116cf57600080fd5b8135610b54816116a7565b60005b838110156116f55781810151838201526020016116dd565b50506000910152565b600081518084526117168160208601602086016116da565b601f01601f19169290920160200192915050565b602081526000610b5460208301846116fe565b60006020828403121561174f57600080fd5b5035919050565b80356001600160a01b038116811461176d57600080fd5b919050565b6000806040838503121561178557600080fd5b61178e83611756565b946020939093013593505050565b6000806000606084860312156117b157600080fd5b6117ba84611756565b92506117c860208501611756565b9150604084013590509250925092565b600080604083850312156117eb57600080fd5b823591506117fb60208401611756565b90509250929050565b60006020828403121561181657600080fd5b610b5482611756565b634e487b7160e01b600052604160045260246000fd5b600067ffffffffffffffff808411156118505761185061181f565b604051601f8501601f19908116603f011681019082821181831017156118785761187861181f565b8160405280935085815286868601111561189157600080fd5b858560208301376000602087830101525050509392505050565b600082601f8301126118bc57600080fd5b610b5483833560208501611835565b600080600080608085870312156118e157600080fd5b84359350602085013567ffffffffffffffff8082111561190057600080fd5b61190c888389016118ab565b9450604087013591508082111561192257600080fd5b61192e888389016118ab565b9350606087013591508082111561194457600080fd5b50611951878288016118ab565b91505092959194509250565b6000806040838503121561197057600080fd5b61197983611756565b91506020830135801515811461198e57600080fd5b809150509250929050565b60006020808301818452808551808352604092508286019150828160051b87010184880160005b83811015611a5857888303603f19018552815180518452878101516001600160a01b0316888501528681015160c088860181905290611a01828701826116fe565b91505060608083015186830382880152611a1b83826116fe565b9250505060808083015186830382880152611a3683826116fe565b60a09485015197909401969096525050948701949250908601906001016119c0565b509098975050505050505050565b60008060008060808587031215611a7c57600080fd5b611a8585611756565b9350611a9360208601611756565b925060408501359150606085013567ffffffffffffffff811115611ab657600080fd5b8501601f81018713611ac757600080fd5b61195187823560208401611835565b60008060408385031215611ae957600080fd5b611af283611756565b91506117fb60208401611756565b600181811c90821680611b1457607f821691505b602082108103611b3457634e487b7160e01b600052602260045260246000fd5b50919050565b601f82111561051557600081815260208120601f850160051c81016020861015611b615750805b601f850160051c820191505b8181101561080457828155600101611b6d565b815167ffffffffffffffff811115611b9a57611b9a61181f565b611bae81611ba88454611b00565b84611b3a565b602080601f831160018114611be35760008415611bcb5750858301515b600019600386901b1c1916600185901b178555610804565b600085815260208120601f198616915b82811015611c1257888601518255948401946001909101908401611bf3565b5085821015611c305787850151600019600388901b60f8161c191681555b5050505050600190811b01905550565b60008351611c528184602088016116da565b835190830190611c668183602088016116da565b01949350505050565b60208082526032908201527f4552433732313a207472616e7366657220746f206e6f6e20455243373231526560408201527131b2b4bb32b91034b6b83632b6b2b73a32b960711b606082015260800190565b7f416363657373436f6e74726f6c3a206163636f756e7420000000000000000000815260008351611cf98160178501602088016116da565b7001034b99036b4b9b9b4b733903937b6329607d1b6017918401918201528351611d2a8160288401602088016116da565b01602801949350505050565b60208082526025908201527f4552433732313a207472616e736665722066726f6d20696e636f72726563742060408201526437bbb732b960d91b606082015260800190565b6001600160a01b0385811682528416602082015260408101839052608060608201819052600090611dae908301846116fe565b9695505050505050565b600060208284031215611dca57600080fd5b8151610b54816116a7565b634e487b7160e01b600052601160045260246000fd5b808202811582820484141761034157610341611dd5565b8082018082111561034157610341611dd5565b634e487b7160e01b600052603260045260246000fd5b600081611e3a57611e3a611dd5565b50600019019056fea2646970667358221220279d81f9693c37a761c00a34c64274cd046cf7b47f75272222cbdf5dcb6cf9e364736f6c63430008110033",
  "linkReferences": {},
  "deployedLinkReferences": {}
}