{
  "_format": "hh-sol-artifact-1",
  "contractName": "Chapter",
  "sourceName": "contracts/Chapter.sol",
  "abi": [
    {
      "inputs": [],
      "stateMutability": "nonpayable",
      "type": "constructor"
    },
    {
      "anonymous": false,
      "inputs": [
        {
          "indexed": true,
          "internalType": "address",
          "name": "owner",
          "type": "address"
        },
        {
          "indexed": true,
          "internalType": "address",
          "name": "approved",
          "type": "address"
        },
        {
          "indexed": true,
          "internalType": "uint256",
          "name": "tokenId",
          "type": "uint256"
        }
      ],
      "name": "Approval",
      "type": "event"
    },
    {
      "anonymous": false,
      "inputs": [
        {
          "indexed": true,
          "internalType": "address",
          "name": "owner",
          "type": "address"
        },
        {
          "indexed": true,
          "internalType": "address",
          "name": "operator",
          "type": "address"
        },
        {
          "indexed": false,
          "internalType": "bool",
          "name": "approved",
          "type": "bool"
        }
      ],
      "name": "ApprovalForAll",
      "type": "event"
    },
    {
      "anonymous": false,
      "inputs": [
        {
          "indexed": true,
          "internalType": "bytes32",
          "name": "role",
          "type": "bytes32"
        },
        {
          "indexed": true,
          "internalType": "bytes32",
          "name": "previousAdminRole",
          "type": "bytes32"
        },
        {
          "indexed": true,
          "internalType": "bytes32",
          "name": "newAdminRole",
          "type": "bytes32"
        }
      ],
      "name": "RoleAdminChanged",
      "type": "event"
    },
    {
      "anonymous": false,
      "inputs": [
        {
          "indexed": true,
          "internalType": "bytes32",
          "name": "role",
          "type": "bytes32"
        },
        {
          "indexed": true,
          "internalType": "address",
          "name": "account",
          "type": "address"
        },
        {
          "indexed": true,
          "internalType": "address",
          "name": "sender",
          "type": "address"
        }
      ],
      "name": "RoleGranted",
      "type": "event"
    },
    {
      "anonymous": false,
      "inputs": [
        {
          "indexed": true,
          "internalType": "bytes32",
          "name": "role",
          "type": "bytes32"
        },
        {
          "indexed": true,
          "internalType": "address",
          "name": "account",
          "type": "address"
        },
        {
          "indexed": true,
          "internalType": "address",
          "name": "sender",
          "type": "address"
        }
      ],
      "name": "RoleRevoked",
      "type": "event"
    },
    {
      "anonymous": false,
      "inputs": [
        {
          "indexed": true,
          "internalType": "address",
          "name": "from",
          "type": "address"
        },
        {
          "indexed": true,
          "internalType": "address",
          "name": "to",
          "type": "address"
        },
        {
          "indexed": true,
          "internalType": "uint256",
          "name": "tokenId",
          "type": "uint256"
        }
      ],
      "name": "Transfer",
      "type": "event"
    },
    {
      "inputs": [],
      "name": "DEFAULT_ADMIN_ROLE",
      "outputs": [
        {
          "internalType": "bytes32",
          "name": "",
          "type": "bytes32"
        }
      ],
      "stateMutability": "view",
      "type": "function"
    },
    {
      "inputs": [
        {
          "internalType": "address",
          "name": "to",
          "type": "address"
        },
        {
          "internalType": "uint256",
          "name": "tokenId",
          "type": "uint256"
        }
      ],
      "name": "approve",
      "outputs": [],
      "stateMutability": "nonpayable",
      "type": "function"
    },
    {
      "inputs": [
        {
          "internalType": "address",
          "name": "owner",
          "type": "address"
        }
      ],
      "name": "balanceOf",
      "outputs": [
        {
          "internalType": "uint256",
          "name": "",
          "type": "uint256"
        }
      ],
      "stateMutability": "view",
      "type": "function"
    },
    {
      "inputs": [
        {
          "internalType": "uint256",
          "name": "_bookId",
          "type": "uint256"
        },
        {
          "internalType": "string",
          "name": "_name",
          "type": "string"
        },
        {
          "internalType": "string",
          "name": "_publicContent",
          "type": "string"
        },
        {
          "internalType": "string",
          "name": "_privateContent",
          "type": "string"
        }
      ],
      "name": "createChapter",
      "outputs": [],
      "stateMutability": "nonpayable",
      "type": "function"
    },
    {
      "inputs": [
        {
          "internalType": "uint256",
          "name": "_chapterId",
          "type": "uint256"
        },
        {
          "internalType": "string",
          "name": "_name",
          "type": "string"
        },
        {
          "internalType": "string",
          "name": "_publicContent",
          "type": "string"
        },
        {
          "internalType": "string",
          "name": "_privateContent",
          "type": "string"
        }
      ],
      "name": "editChapter",
      "outputs": [],
      "stateMutability": "nonpayable",
      "type": "function"
    },
    {
      "inputs": [
        {
          "internalType": "uint256",
          "name": "tokenId",
          "type": "uint256"
        }
      ],
      "name": "getApproved",
      "outputs": [
        {
          "internalType": "address",
          "name": "",
          "type": "address"
        }
      ],
      "stateMutability": "view",
      "type": "function"
    },
    {
      "inputs": [
        {
          "internalType": "uint256",
          "name": "_bookID",
          "type": "uint256"
        }
      ],
      "name": "getChapters",
      "outputs": [
        {
          "components": [
            {
              "internalType": "uint256",
              "name": "id",
              "type": "uint256"
            },
            {
              "internalType": "address",
              "name": "owner",
              "type": "address"
            },
            {
              "internalType": "string",
              "name": "name",
              "type": "string"
            },
            {
              "internalType": "string",
              "name": "publicContent",
              "type": "string"
            },
            {
              "internalType": "string",
              "name": "privateContent",
              "type": "string"
            },
            {
              "internalType": "uint256",
              "name": "bookId",
              "type": "uint256"
            }
          ],
          "internalType": "struct IChapter.ChapterDetails[]",
          "name": "",
          "type": "tuple[]"
        }
      ],
      "stateMutability": "view",
      "type": "function"
    },
    {
      "inputs": [
        {
          "internalType": "bytes32",
          "name": "role",
          "type": "bytes32"
        }
      ],
      "name": "getRoleAdmin",
      "outputs": [
        {
          "internalType": "bytes32",
          "name": "",
          "type": "bytes32"
        }
      ],
      "stateMutability": "view",
      "type": "function"
    },
    {
      "inputs": [
        {
          "internalType": "bytes32",
          "name": "role",
          "type": "bytes32"
        },
        {
          "internalType": "address",
          "name": "account",
          "type": "address"
        }
      ],
      "name": "grantRole",
      "outputs": [],
      "stateMutability": "nonpayable",
      "type": "function"
    },
    {
      "inputs": [
        {
          "internalType": "bytes32",
          "name": "role",
          "type": "bytes32"
        },
        {
          "internalType": "address",
          "name": "account",
          "type": "address"
        }
      ],
      "name": "hasRole",
      "outputs": [
        {
          "internalType": "bool",
          "name": "",
          "type": "bool"
        }
      ],
      "stateMutability": "view",
      "type": "function"
    },
    {
      "inputs": [
        {
          "internalType": "address",
          "name": "owner",
          "type": "address"
        },
        {
          "internalType": "address",
          "name": "operator",
          "type": "address"
        }
      ],
      "name": "isApprovedForAll",
      "outputs": [
        {
          "internalType": "bool",
          "name": "",
          "type": "bool"
        }
      ],
      "stateMutability": "view",
      "type": "function"
    },
    {
      "inputs": [],
      "name": "name",
      "outputs": [
        {
          "internalType": "string",
          "name": "",
          "type": "string"
        }
      ],
      "stateMutability": "view",
      "type": "function"
    },
    {
      "inputs": [
        {
          "internalType": "uint256",
          "name": "tokenId",
          "type": "uint256"
        }
      ],
      "name": "ownerOf",
      "outputs": [
        {
          "internalType": "address",
          "name": "",
          "type": "address"
        }
      ],
      "stateMutability": "view",
      "type": "function"
    },
    {
      "inputs": [
        {
          "internalType": "bytes32",
          "name": "role",
          "type": "bytes32"
        },
        {
          "internalType": "address",
          "name": "account",
          "type": "address"
        }
      ],
      "name": "renounceRole",
      "outputs": [],
      "stateMutability": "nonpayable",
      "type": "function"
    },
    {
      "inputs": [
        {
          "internalType": "bytes32",
          "name": "role",
          "type": "bytes32"
        },
        {
          "internalType": "address",
          "name": "account",
          "type": "address"
        }
      ],
      "name": "revokeRole",
      "outputs": [],
      "stateMutability": "nonpayable",
      "type": "function"
    },
    {
      "inputs": [
        {
          "internalType": "address",
          "name": "",
          "type": "address"
        },
        {
          "internalType": "address",
          "name": "",
          "type": "address"
        },
        {
          "internalType": "uint256",
          "name": "",
          "type": "uint256"
        }
      ],
      "name": "safeTransferFrom",
      "outputs": [],
      "stateMutability": "nonpayable",
      "type": "function"
    },
    {
      "inputs": [
        {
          "internalType": "address",
          "name": "from",
          "type": "address"
        },
        {
          "internalType": "address",
          "name": "to",
          "type": "address"
        },
        {
          "internalType": "uint256",
          "name": "tokenId",
          "type": "uint256"
        },
        {
          "internalType": "bytes",
          "name": "data",
          "type": "bytes"
        }
      ],
      "name": "safeTransferFrom",
      "outputs": [],
      "stateMutability": "nonpayable",
      "type": "function"
    },
    {
      "inputs": [
        {
          "internalType": "address",
          "name": "operator",
          "type": "address"
        },
        {
          "internalType": "bool",
          "name": "approved",
          "type": "bool"
        }
      ],
      "name": "setApprovalForAll",
      "outputs": [],
      "stateMutability": "nonpayable",
      "type": "function"
    },
    {
      "inputs": [
        {
          "internalType": "bytes4",
          "name": "interfaceId",
          "type": "bytes4"
        }
      ],
      "name": "supportsInterface",
      "outputs": [
        {
          "internalType": "bool",
          "name": "",
          "type": "bool"
        }
      ],
      "stateMutability": "view",
      "type": "function"
    },
    {
      "inputs": [],
      "name": "symbol",
      "outputs": [
        {
          "internalType": "string",
          "name": "",
          "type": "string"
        }
      ],
      "stateMutability": "view",
      "type": "function"
    },
    {
      "inputs": [
        {
          "internalType": "uint256",
          "name": "tokenId",
          "type": "uint256"
        }
      ],
      "name": "tokenURI",
      "outputs": [
        {
          "internalType": "string",
          "name": "",
          "type": "string"
        }
      ],
      "stateMutability": "view",
      "type": "function"
    },
    {
      "inputs": [
        {
          "internalType": "address",
          "name": "",
          "type": "address"
        },
        {
          "internalType": "address",
          "name": "",
          "type": "address"
        },
        {
          "internalType": "uint256",
          "name": "",
          "type": "uint256"
        }
      ],
      "name": "transferFrom",
      "outputs": [],
      "stateMutability": "nonpayable",
      "type": "function"
    }
  ],
  "bytecode": "0x60806040523480156200001157600080fd5b506040518060400160405280600981526020016810da185c1d195c925160ba1b8152506040518060400160405280600381526020016243484160e81b81525081600090816200006191906200013e565b5060016200007082826200013e565b5050506200008a60086200009060201b62000ce01760201c565b6200020a565b80546001019055565b634e487b7160e01b600052604160045260246000fd5b600181811c90821680620000c457607f821691505b602082108103620000e557634e487b7160e01b600052602260045260246000fd5b50919050565b601f8211156200013957600081815260208120601f850160051c81016020861015620001145750805b601f850160051c820191505b81811015620001355782815560010162000120565b5050505b505050565b81516001600160401b038111156200015a576200015a62000099565b62000172816200016b8454620000af565b84620000eb565b602080601f831160018114620001aa5760008415620001915750858301515b600019600386901b1c1916600185901b17855562000135565b600085815260208120601f198616915b82811015620001db57888601518255948401946001909101908401620001ba565b5085821015620001fa5787850151600019600388901b60f8161c191681555b5050505050600190811b01905550565b611ff1806200021a6000396000f3fe608060405234801561001057600080fd5b50600436106101425760003560e01c806391d14854116100b8578063ac678a931161007c578063ac678a931461029d578063b88d4fde146102bd578063c87b56dd146102d0578063d16fd40c146102e3578063d547741f146102f6578063e985e9c51461030957600080fd5b806391d148541461025457806395d89b411461026757806399e717791461026f578063a217fddf14610282578063a22cb4651461028a57600080fd5b8063248a9ca31161010a578063248a9ca3146101d75780632f2ff15d1461020857806336568abe1461021b57806342842e0e146101c45780636352211e1461022e57806370a082311461024157600080fd5b806301ffc9a71461014757806306fdde031461016f578063081812fc14610184578063095ea7b3146101af57806323b872dd146101c4575b600080fd5b61015a61015536600461181d565b610345565b60405190151581526020015b60405180910390f35b610177610365565b604051610166919061188a565b61019761019236600461189d565b6103f7565b6040516001600160a01b039091168152602001610166565b6101c26101bd3660046118d2565b61041e565b005b6101c26101d23660046118fc565b610538565b6101fa6101e536600461189d565b60009081526006602052604090206001015490565b604051908152602001610166565b6101c2610216366004611938565b61056e565b6101c2610229366004611938565b610593565b61019761023c36600461189d565b610611565b6101fa61024f366004611964565b610671565b61015a610262366004611938565b6106f7565b610177610722565b6101c261027d366004611a2b565b610731565b6101fa600081565b6101c2610298366004611abd565b61082a565b6102b06102ab36600461189d565b610835565b6040516101669190611af9565b6101c26102cb366004611bc6565b610a87565b6101776102de36600461189d565b610b05565b6101c26102f1366004611a2b565b610b79565b6101c2610304366004611938565b610cbb565b61015a610317366004611c36565b6001600160a01b03918216600090815260056020908152604080832093909416825291909152205460ff1690565b600061035082610ce9565b8061035f575061035f82610d39565b92915050565b60606000805461037490611c60565b80601f01602080910402602001604051908101604052809291908181526020018280546103a090611c60565b80156103ed5780601f106103c2576101008083540402835291602001916103ed565b820191906000526020600020905b8154815290600101906020018083116103d057829003601f168201915b5050505050905090565b600061040282610d5e565b506000908152600460205260409020546001600160a01b031690565b600061042982610611565b9050806001600160a01b0316836001600160a01b03160361049b5760405162461bcd60e51b815260206004820152602160248201527f4552433732313a20617070726f76616c20746f2063757272656e74206f776e656044820152603960f91b60648201526084015b60405180910390fd5b336001600160a01b03821614806104b757506104b78133610317565b6105295760405162461bcd60e51b815260206004820152603d60248201527f4552433732313a20617070726f76652063616c6c6572206973206e6f7420746f60448201527f6b656e206f776e6572206f7220617070726f76656420666f7220616c6c0000006064820152608401610492565b6105338383610dc0565b505050565b60405162461bcd60e51b815260206004820152600b60248201526a139bdd08185b1b1bddd95960aa1b6044820152606401610492565b60008281526006602052604090206001015461058981610e2e565b6105338383610e38565b6001600160a01b03811633146106035760405162461bcd60e51b815260206004820152602f60248201527f416363657373436f6e74726f6c3a2063616e206f6e6c792072656e6f756e636560448201526e103937b632b9903337b91039b2b63360891b6064820152608401610492565b61060d8282610ebe565b5050565b6000818152600260205260408120546001600160a01b03168061035f5760405162461bcd60e51b8152602060048201526018602482015277115490cdcc8c4e881a5b9d985b1a59081d1bdad95b88125160421b6044820152606401610492565b60006001600160a01b0382166106db5760405162461bcd60e51b815260206004820152602960248201527f4552433732313a2061646472657373207a65726f206973206e6f7420612076616044820152683634b21037bbb732b960b91b6064820152608401610492565b506001600160a01b031660009081526003602052604090205490565b60009182526006602090815260408084206001600160a01b0393909316845291905290205460ff1690565b60606001805461037490611c60565b600061073c60085490565b6040805160c081018252828152336020820152908101869052606081018590526080810184905260a0810187905290915061077b600880546001019055565b60008681526007602090815260408083208054600180820183559185529383902085516006909502019384559184015191830180546001600160a01b0319166001600160a01b039093169290921790915582015182919060028201906107e19082611ce0565b50606082015160038201906107f69082611ce0565b506080820151600482019061080b9082611ce0565b5060a0820151816005015550506108223383610f25565b505050505050565b61060d3383836110b0565b606060076000838152602001908152602001600020805480602002602001604051908101604052809291908181526020016000905b82821015610a7c5760008481526020908190206040805160c081018252600686029092018054835260018101546001600160a01b031693830193909352600283018054929392918401916108bd90611c60565b80601f01602080910402602001604051908101604052809291908181526020018280546108e990611c60565b80156109365780601f1061090b57610100808354040283529160200191610936565b820191906000526020600020905b81548152906001019060200180831161091957829003601f168201915b5050505050815260200160038201805461094f90611c60565b80601f016020809104026020016040519081016040528092919081815260200182805461097b90611c60565b80156109c85780601f1061099d576101008083540402835291602001916109c8565b820191906000526020600020905b8154815290600101906020018083116109ab57829003601f168201915b505050505081526020016004820180546109e190611c60565b80601f0160208091040260200160405190810160405280929190818152602001828054610a0d90611c60565b8015610a5a5780601f10610a2f57610100808354040283529160200191610a5a565b820191906000526020600020905b815481529060010190602001808311610a3d57829003601f168201915b505050505081526020016005820154815250508152602001906001019061086a565b505050509050919050565b610a91338361117e565b610af35760405162461bcd60e51b815260206004820152602d60248201527f4552433732313a2063616c6c6572206973206e6f7420746f6b656e206f776e6560448201526c1c881bdc88185c1c1c9bdd9959609a1b6064820152608401610492565b610aff848484846111fd565b50505050565b6060610b1082610d5e565b6000610b2760408051602081019091526000815290565b90506000815111610b475760405180602001604052806000815250610b72565b80610b5184611230565b604051602001610b62929190611da0565b6040516020818303038152906040525b9392505050565b33610b8385610611565b6001600160a01b031614610bd25760405162461bcd60e51b815260206004820152601660248201527521b430b83a32b91d102737ba103a34329037bbb732b960511b6044820152606401610492565b6000848152600760205260408120905b81548110156108225785828281548110610bfe57610bfe611dcf565b90600052602060002090600602016000015403610ca95784828281548110610c2857610c28611dcf565b90600052602060002090600602016002019081610c459190611ce0565b5083828281548110610c5957610c59611dcf565b90600052602060002090600602016003019081610c769190611ce0565b5082828281548110610c8a57610c8a611dcf565b90600052602060002090600602016004019081610ca79190611ce0565b505b80610cb381611dfb565b915050610be2565b600082815260066020526040902060010154610cd681610e2e565b6105338383610ebe565b80546001019055565b60006001600160e01b031982166380ac58cd60e01b1480610d1a57506001600160e01b03198216635b5e139f60e01b145b8061035f57506301ffc9a760e01b6001600160e01b031983161461035f565b60006001600160e01b03198216637965db0b60e01b148061035f575061035f82610ce9565b6000818152600260205260409020546001600160a01b0316610dbd5760405162461bcd60e51b8152602060048201526018602482015277115490cdcc8c4e881a5b9d985b1a59081d1bdad95b88125160421b6044820152606401610492565b50565b600081815260046020526040902080546001600160a01b0319166001600160a01b0384169081179091558190610df582610611565b6001600160a01b03167f8c5be1e5ebec7d5bd14f71427d1e84f3dd0314c0f7b2291e5b200ac8c7c3b92560405160405180910390a45050565b610dbd81336112c3565b610e4282826106f7565b61060d5760008281526006602090815260408083206001600160a01b03851684529091529020805460ff19166001179055610e7a3390565b6001600160a01b0316816001600160a01b0316837f2f8788117e7eff1d82e926ec794901d17c78024a50270940304540a733656f0d60405160405180910390a45050565b610ec882826106f7565b1561060d5760008281526006602090815260408083206001600160a01b0385168085529252808320805460ff1916905551339285917ff6391f5c32d9c69d2a47ea670b442974b53935d1edc7fd64eb21e047a839171b9190a45050565b6001600160a01b038216610f7b5760405162461bcd60e51b815260206004820181905260248201527f4552433732313a206d696e7420746f20746865207a65726f20616464726573736044820152606401610492565b6000818152600260205260409020546001600160a01b031615610fe05760405162461bcd60e51b815260206004820152601c60248201527f4552433732313a20746f6b656e20616c7265616479206d696e746564000000006044820152606401610492565b6000818152600260205260409020546001600160a01b0316156110455760405162461bcd60e51b815260206004820152601c60248201527f4552433732313a20746f6b656e20616c7265616479206d696e746564000000006044820152606401610492565b6001600160a01b038216600081815260036020908152604080832080546001019055848352600290915280822080546001600160a01b0319168417905551839291907fddf252ad1be2c89b69c2b068fc378daa952ba7f163c4a11628f55a4df523b3ef908290a45050565b816001600160a01b0316836001600160a01b0316036111115760405162461bcd60e51b815260206004820152601960248201527f4552433732313a20617070726f766520746f2063616c6c6572000000000000006044820152606401610492565b6001600160a01b03838116600081815260056020908152604080832094871680845294825291829020805460ff191686151590811790915591519182527f17307eab39ab6107e8899845ad3d59bd9653f200f220920489ca2b5937696c31910160405180910390a3505050565b60008061118a83610611565b9050806001600160a01b0316846001600160a01b031614806111d157506001600160a01b0380821660009081526005602090815260408083209388168352929052205460ff165b806111f55750836001600160a01b03166111ea846103f7565b6001600160a01b0316145b949350505050565b61120884848461131c565b61121484848484611480565b610aff5760405162461bcd60e51b815260040161049290611e14565b6060600061123d83611581565b600101905060008167ffffffffffffffff81111561125d5761125d61197f565b6040519080825280601f01601f191660200182016040528015611287576020820181803683370190505b5090508181016020015b600019016f181899199a1a9b1b9c1cb0b131b232b360811b600a86061a8153600a850494508461129157509392505050565b6112cd82826106f7565b61060d576112da81611659565b6112e583602061166b565b6040516020016112f6929190611e66565b60408051601f198184030181529082905262461bcd60e51b82526104929160040161188a565b826001600160a01b031661132f82610611565b6001600160a01b0316146113555760405162461bcd60e51b815260040161049290611edb565b6001600160a01b0382166113b75760405162461bcd60e51b8152602060048201526024808201527f4552433732313a207472616e7366657220746f20746865207a65726f206164646044820152637265737360e01b6064820152608401610492565b826001600160a01b03166113ca82610611565b6001600160a01b0316146113f05760405162461bcd60e51b815260040161049290611edb565b600081815260046020908152604080832080546001600160a01b03199081169091556001600160a01b0387811680865260038552838620805460001901905590871680865283862080546001019055868652600290945282852080549092168417909155905184937fddf252ad1be2c89b69c2b068fc378daa952ba7f163c4a11628f55a4df523b3ef91a4505050565b60006001600160a01b0384163b1561157657604051630a85bd0160e11b81526001600160a01b0385169063150b7a02906114c4903390899088908890600401611f20565b6020604051808303816000875af19250505080156114ff575060408051601f3d908101601f191682019092526114fc91810190611f5d565b60015b61155c573d80801561152d576040519150601f19603f3d011682016040523d82523d6000602084013e611532565b606091505b5080516000036115545760405162461bcd60e51b815260040161049290611e14565b805181602001fd5b6001600160e01b031916630a85bd0160e11b1490506111f5565b506001949350505050565b60008072184f03e93ff9f4daa797ed6e38ed64bf6a1f0160401b83106115c05772184f03e93ff9f4daa797ed6e38ed64bf6a1f0160401b830492506040015b6d04ee2d6d415b85acef810000000083106115ec576d04ee2d6d415b85acef8100000000830492506020015b662386f26fc10000831061160a57662386f26fc10000830492506010015b6305f5e1008310611622576305f5e100830492506008015b612710831061163657612710830492506004015b60648310611648576064830492506002015b600a831061035f5760010192915050565b606061035f6001600160a01b03831660145b6060600061167a836002611f7a565b611685906002611f91565b67ffffffffffffffff81111561169d5761169d61197f565b6040519080825280601f01601f1916602001820160405280156116c7576020820181803683370190505b509050600360fc1b816000815181106116e2576116e2611dcf565b60200101906001600160f81b031916908160001a905350600f60fb1b8160018151811061171157611711611dcf565b60200101906001600160f81b031916908160001a9053506000611735846002611f7a565b611740906001611f91565b90505b60018111156117b8576f181899199a1a9b1b9c1cb0b131b232b360811b85600f166010811061177457611774611dcf565b1a60f81b82828151811061178a5761178a611dcf565b60200101906001600160f81b031916908160001a90535060049490941c936117b181611fa4565b9050611743565b508315610b725760405162461bcd60e51b815260206004820181905260248201527f537472696e67733a20686578206c656e67746820696e73756666696369656e746044820152606401610492565b6001600160e01b031981168114610dbd57600080fd5b60006020828403121561182f57600080fd5b8135610b7281611807565b60005b8381101561185557818101518382015260200161183d565b50506000910152565b6000815180845261187681602086016020860161183a565b601f01601f19169290920160200192915050565b602081526000610b72602083018461185e565b6000602082840312156118af57600080fd5b5035919050565b80356001600160a01b03811681146118cd57600080fd5b919050565b600080604083850312156118e557600080fd5b6118ee836118b6565b946020939093013593505050565b60008060006060848603121561191157600080fd5b61191a846118b6565b9250611928602085016118b6565b9150604084013590509250925092565b6000806040838503121561194b57600080fd5b8235915061195b602084016118b6565b90509250929050565b60006020828403121561197657600080fd5b610b72826118b6565b634e487b7160e01b600052604160045260246000fd5b600067ffffffffffffffff808411156119b0576119b061197f565b604051601f8501601f19908116603f011681019082821181831017156119d8576119d861197f565b816040528093508581528686860111156119f157600080fd5b858560208301376000602087830101525050509392505050565b600082601f830112611a1c57600080fd5b610b7283833560208501611995565b60008060008060808587031215611a4157600080fd5b84359350602085013567ffffffffffffffff80821115611a6057600080fd5b611a6c88838901611a0b565b94506040870135915080821115611a8257600080fd5b611a8e88838901611a0b565b93506060870135915080821115611aa457600080fd5b50611ab187828801611a0b565b91505092959194509250565b60008060408385031215611ad057600080fd5b611ad9836118b6565b915060208301358015158114611aee57600080fd5b809150509250929050565b60006020808301818452808551808352604092508286019150828160051b87010184880160005b83811015611bb857888303603f19018552815180518452878101516001600160a01b0316888501528681015160c088860181905290611b618287018261185e565b91505060608083015186830382880152611b7b838261185e565b9250505060808083015186830382880152611b96838261185e565b60a0948501519790940196909652505094870194925090860190600101611b20565b509098975050505050505050565b60008060008060808587031215611bdc57600080fd5b611be5856118b6565b9350611bf3602086016118b6565b925060408501359150606085013567ffffffffffffffff811115611c1657600080fd5b8501601f81018713611c2757600080fd5b611ab187823560208401611995565b60008060408385031215611c4957600080fd5b611c52836118b6565b915061195b602084016118b6565b600181811c90821680611c7457607f821691505b602082108103611c9457634e487b7160e01b600052602260045260246000fd5b50919050565b601f82111561053357600081815260208120601f850160051c81016020861015611cc15750805b601f850160051c820191505b8181101561082257828155600101611ccd565b815167ffffffffffffffff811115611cfa57611cfa61197f565b611d0e81611d088454611c60565b84611c9a565b602080601f831160018114611d435760008415611d2b5750858301515b600019600386901b1c1916600185901b178555610822565b600085815260208120601f198616915b82811015611d7257888601518255948401946001909101908401611d53565b5085821015611d905787850151600019600388901b60f8161c191681555b5050505050600190811b01905550565b60008351611db281846020880161183a565b835190830190611dc681836020880161183a565b01949350505050565b634e487b7160e01b600052603260045260246000fd5b634e487b7160e01b600052601160045260246000fd5b600060018201611e0d57611e0d611de5565b5060010190565b60208082526032908201527f4552433732313a207472616e7366657220746f206e6f6e20455243373231526560408201527131b2b4bb32b91034b6b83632b6b2b73a32b960711b606082015260800190565b7f416363657373436f6e74726f6c3a206163636f756e7420000000000000000000815260008351611e9e81601785016020880161183a565b7001034b99036b4b9b9b4b733903937b6329607d1b6017918401918201528351611ecf81602884016020880161183a565b01602801949350505050565b60208082526025908201527f4552433732313a207472616e736665722066726f6d20696e636f72726563742060408201526437bbb732b960d91b606082015260800190565b6001600160a01b0385811682528416602082015260408101839052608060608201819052600090611f539083018461185e565b9695505050505050565b600060208284031215611f6f57600080fd5b8151610b7281611807565b808202811582820484141761035f5761035f611de5565b8082018082111561035f5761035f611de5565b600081611fb357611fb3611de5565b50600019019056fea264697066735822122083c282bde6fb618d679c3d310b38543d4239e1d2930dacc56b28f93d0c8c77b264736f6c63430008110033",
  "linkReferences": {},
  "deployedLinkReferences": {}
}