{
  "_format": "hh-sol-artifact-1",
  "contractName": "Feedback",
  "sourceName": "contracts/Feedback.sol",
  "abi": [
    {
      "inputs": [
        {
          "internalType": "address",
          "name": "_chapterContractAddress",
          "type": "address"
        }
      ],
      "stateMutability": "nonpayable",
      "type": "constructor"
    },
    {
      "anonymous": false,
      "inputs": [
        {
          "indexed": true,
          "internalType": "address",
          "name": "owner",
          "type": "address"
        },
        {
          "indexed": true,
          "internalType": "address",
          "name": "approved",
          "type": "address"
        },
        {
          "indexed": true,
          "internalType": "uint256",
          "name": "tokenId",
          "type": "uint256"
        }
      ],
      "name": "Approval",
      "type": "event"
    },
    {
      "anonymous": false,
      "inputs": [
        {
          "indexed": true,
          "internalType": "address",
          "name": "owner",
          "type": "address"
        },
        {
          "indexed": true,
          "internalType": "address",
          "name": "operator",
          "type": "address"
        },
        {
          "indexed": false,
          "internalType": "bool",
          "name": "approved",
          "type": "bool"
        }
      ],
      "name": "ApprovalForAll",
      "type": "event"
    },
    {
      "anonymous": false,
      "inputs": [
        {
          "indexed": true,
          "internalType": "bytes32",
          "name": "role",
          "type": "bytes32"
        },
        {
          "indexed": true,
          "internalType": "bytes32",
          "name": "previousAdminRole",
          "type": "bytes32"
        },
        {
          "indexed": true,
          "internalType": "bytes32",
          "name": "newAdminRole",
          "type": "bytes32"
        }
      ],
      "name": "RoleAdminChanged",
      "type": "event"
    },
    {
      "anonymous": false,
      "inputs": [
        {
          "indexed": true,
          "internalType": "bytes32",
          "name": "role",
          "type": "bytes32"
        },
        {
          "indexed": true,
          "internalType": "address",
          "name": "account",
          "type": "address"
        },
        {
          "indexed": true,
          "internalType": "address",
          "name": "sender",
          "type": "address"
        }
      ],
      "name": "RoleGranted",
      "type": "event"
    },
    {
      "anonymous": false,
      "inputs": [
        {
          "indexed": true,
          "internalType": "bytes32",
          "name": "role",
          "type": "bytes32"
        },
        {
          "indexed": true,
          "internalType": "address",
          "name": "account",
          "type": "address"
        },
        {
          "indexed": true,
          "internalType": "address",
          "name": "sender",
          "type": "address"
        }
      ],
      "name": "RoleRevoked",
      "type": "event"
    },
    {
      "anonymous": false,
      "inputs": [
        {
          "indexed": true,
          "internalType": "address",
          "name": "from",
          "type": "address"
        },
        {
          "indexed": true,
          "internalType": "address",
          "name": "to",
          "type": "address"
        },
        {
          "indexed": true,
          "internalType": "uint256",
          "name": "tokenId",
          "type": "uint256"
        }
      ],
      "name": "Transfer",
      "type": "event"
    },
    {
      "inputs": [],
      "name": "DEFAULT_ADMIN_ROLE",
      "outputs": [
        {
          "internalType": "bytes32",
          "name": "",
          "type": "bytes32"
        }
      ],
      "stateMutability": "view",
      "type": "function"
    },
    {
      "inputs": [
        {
          "internalType": "uint256",
          "name": "_feedbackId",
          "type": "uint256"
        }
      ],
      "name": "acceptFeedback",
      "outputs": [],
      "stateMutability": "nonpayable",
      "type": "function"
    },
    {
      "inputs": [
        {
          "internalType": "uint256",
          "name": "_chapterId",
          "type": "uint256"
        }
      ],
      "name": "applyToWhitelist",
      "outputs": [],
      "stateMutability": "nonpayable",
      "type": "function"
    },
    {
      "inputs": [
        {
          "internalType": "address",
          "name": "to",
          "type": "address"
        },
        {
          "internalType": "uint256",
          "name": "tokenId",
          "type": "uint256"
        }
      ],
      "name": "approve",
      "outputs": [],
      "stateMutability": "nonpayable",
      "type": "function"
    },
    {
      "inputs": [
        {
          "internalType": "address",
          "name": "owner",
          "type": "address"
        }
      ],
      "name": "balanceOf",
      "outputs": [
        {
          "internalType": "uint256",
          "name": "",
          "type": "uint256"
        }
      ],
      "stateMutability": "view",
      "type": "function"
    },
    {
      "inputs": [
        {
          "internalType": "uint256",
          "name": "_feedbackId",
          "type": "uint256"
        },
        {
          "internalType": "enum Feedback.FeedbackStatus",
          "name": "_status",
          "type": "uint8"
        }
      ],
      "name": "changeFeedbackStatus",
      "outputs": [],
      "stateMutability": "nonpayable",
      "type": "function"
    },
    {
      "inputs": [
        {
          "internalType": "uint256",
          "name": "_waitingListId",
          "type": "uint256"
        },
        {
          "internalType": "enum Feedback.WaitingListStatus",
          "name": "_status",
          "type": "uint8"
        }
      ],
      "name": "changeWhiteListStatus",
      "outputs": [],
      "stateMutability": "nonpayable",
      "type": "function"
    },
    {
      "inputs": [
        {
          "internalType": "uint256",
          "name": "",
          "type": "uint256"
        },
        {
          "internalType": "uint256",
          "name": "",
          "type": "uint256"
        }
      ],
      "name": "chapterFeedbacks",
      "outputs": [
        {
          "internalType": "uint256",
          "name": "",
          "type": "uint256"
        }
      ],
      "stateMutability": "view",
      "type": "function"
    },
    {
      "inputs": [],
      "name": "chapterIdContract",
      "outputs": [
        {
          "internalType": "contract IChapter",
          "name": "",
          "type": "address"
        }
      ],
      "stateMutability": "view",
      "type": "function"
    },
    {
      "inputs": [
        {
          "internalType": "uint256",
          "name": "",
          "type": "uint256"
        },
        {
          "internalType": "uint256",
          "name": "",
          "type": "uint256"
        }
      ],
      "name": "chapterWaitingLists",
      "outputs": [
        {
          "internalType": "uint256",
          "name": "",
          "type": "uint256"
        }
      ],
      "stateMutability": "view",
      "type": "function"
    },
    {
      "inputs": [
        {
          "internalType": "uint256",
          "name": "_chapterId",
          "type": "uint256"
        },
        {
          "internalType": "string",
          "name": "_content",
          "type": "string"
        },
        {
          "internalType": "uint256",
          "name": "_rating",
          "type": "uint256"
        }
      ],
      "name": "createFeedback",
      "outputs": [],
      "stateMutability": "nonpayable",
      "type": "function"
    },
    {
      "inputs": [
        {
          "internalType": "uint256",
          "name": "",
          "type": "uint256"
        }
      ],
      "name": "feedbacks",
      "outputs": [
        {
          "internalType": "uint256",
          "name": "id",
          "type": "uint256"
        },
        {
          "internalType": "address",
          "name": "owner",
          "type": "address"
        },
        {
          "internalType": "uint256",
          "name": "chapterId",
          "type": "uint256"
        },
        {
          "internalType": "string",
          "name": "content",
          "type": "string"
        },
        {
          "internalType": "uint256",
          "name": "rating",
          "type": "uint256"
        },
        {
          "internalType": "enum Feedback.FeedbackStatus",
          "name": "status",
          "type": "uint8"
        }
      ],
      "stateMutability": "view",
      "type": "function"
    },
    {
      "inputs": [
        {
          "internalType": "uint256",
          "name": "_chapterId",
          "type": "uint256"
        }
      ],
      "name": "getAllFeedbacks",
      "outputs": [
        {
          "components": [
            {
              "internalType": "uint256",
              "name": "id",
              "type": "uint256"
            },
            {
              "internalType": "address",
              "name": "owner",
              "type": "address"
            },
            {
              "internalType": "uint256",
              "name": "chapterId",
              "type": "uint256"
            },
            {
              "internalType": "string",
              "name": "content",
              "type": "string"
            },
            {
              "internalType": "uint256",
              "name": "rating",
              "type": "uint256"
            },
            {
              "internalType": "enum Feedback.FeedbackStatus",
              "name": "status",
              "type": "uint8"
            }
          ],
          "internalType": "struct Feedback.FeedbackDetails[]",
          "name": "",
          "type": "tuple[]"
        }
      ],
      "stateMutability": "view",
      "type": "function"
    },
    {
      "inputs": [
        {
          "internalType": "uint256",
          "name": "tokenId",
          "type": "uint256"
        }
      ],
      "name": "getApproved",
      "outputs": [
        {
          "internalType": "address",
          "name": "",
          "type": "address"
        }
      ],
      "stateMutability": "view",
      "type": "function"
    },
    {
      "inputs": [
        {
          "internalType": "bytes32",
          "name": "role",
          "type": "bytes32"
        }
      ],
      "name": "getRoleAdmin",
      "outputs": [
        {
          "internalType": "bytes32",
          "name": "",
          "type": "bytes32"
        }
      ],
      "stateMutability": "view",
      "type": "function"
    },
    {
      "inputs": [
        {
          "internalType": "bytes32",
          "name": "role",
          "type": "bytes32"
        },
        {
          "internalType": "address",
          "name": "account",
          "type": "address"
        }
      ],
      "name": "grantRole",
      "outputs": [],
      "stateMutability": "nonpayable",
      "type": "function"
    },
    {
      "inputs": [
        {
          "internalType": "bytes32",
          "name": "role",
          "type": "bytes32"
        },
        {
          "internalType": "address",
          "name": "account",
          "type": "address"
        }
      ],
      "name": "hasRole",
      "outputs": [
        {
          "internalType": "bool",
          "name": "",
          "type": "bool"
        }
      ],
      "stateMutability": "view",
      "type": "function"
    },
    {
      "inputs": [
        {
          "internalType": "address",
          "name": "owner",
          "type": "address"
        },
        {
          "internalType": "address",
          "name": "operator",
          "type": "address"
        }
      ],
      "name": "isApprovedForAll",
      "outputs": [
        {
          "internalType": "bool",
          "name": "",
          "type": "bool"
        }
      ],
      "stateMutability": "view",
      "type": "function"
    },
    {
      "inputs": [
        {
          "internalType": "address",
          "name": "_user",
          "type": "address"
        },
        {
          "internalType": "uint256",
          "name": "_chapterId",
          "type": "uint256"
        }
      ],
      "name": "isWhitelisted",
      "outputs": [
        {
          "internalType": "bool",
          "name": "",
          "type": "bool"
        }
      ],
      "stateMutability": "view",
      "type": "function"
    },
    {
      "inputs": [],
      "name": "name",
      "outputs": [
        {
          "internalType": "string",
          "name": "",
          "type": "string"
        }
      ],
      "stateMutability": "view",
      "type": "function"
    },
    {
      "inputs": [
        {
          "internalType": "uint256",
          "name": "tokenId",
          "type": "uint256"
        }
      ],
      "name": "ownerOf",
      "outputs": [
        {
          "internalType": "address",
          "name": "",
          "type": "address"
        }
      ],
      "stateMutability": "view",
      "type": "function"
    },
    {
      "inputs": [
        {
          "internalType": "uint256",
          "name": "_feedbackId",
          "type": "uint256"
        }
      ],
      "name": "rejectFeedback",
      "outputs": [],
      "stateMutability": "nonpayable",
      "type": "function"
    },
    {
      "inputs": [
        {
          "internalType": "bytes32",
          "name": "role",
          "type": "bytes32"
        },
        {
          "internalType": "address",
          "name": "account",
          "type": "address"
        }
      ],
      "name": "renounceRole",
      "outputs": [],
      "stateMutability": "nonpayable",
      "type": "function"
    },
    {
      "inputs": [
        {
          "internalType": "bytes32",
          "name": "role",
          "type": "bytes32"
        },
        {
          "internalType": "address",
          "name": "account",
          "type": "address"
        }
      ],
      "name": "revokeRole",
      "outputs": [],
      "stateMutability": "nonpayable",
      "type": "function"
    },
    {
      "inputs": [
        {
          "internalType": "address",
          "name": "from",
          "type": "address"
        },
        {
          "internalType": "address",
          "name": "to",
          "type": "address"
        },
        {
          "internalType": "uint256",
          "name": "tokenId",
          "type": "uint256"
        }
      ],
      "name": "safeTransferFrom",
      "outputs": [],
      "stateMutability": "nonpayable",
      "type": "function"
    },
    {
      "inputs": [
        {
          "internalType": "address",
          "name": "from",
          "type": "address"
        },
        {
          "internalType": "address",
          "name": "to",
          "type": "address"
        },
        {
          "internalType": "uint256",
          "name": "tokenId",
          "type": "uint256"
        },
        {
          "internalType": "bytes",
          "name": "data",
          "type": "bytes"
        }
      ],
      "name": "safeTransferFrom",
      "outputs": [],
      "stateMutability": "nonpayable",
      "type": "function"
    },
    {
      "inputs": [
        {
          "internalType": "address",
          "name": "operator",
          "type": "address"
        },
        {
          "internalType": "bool",
          "name": "approved",
          "type": "bool"
        }
      ],
      "name": "setApprovalForAll",
      "outputs": [],
      "stateMutability": "nonpayable",
      "type": "function"
    },
    {
      "inputs": [
        {
          "internalType": "bytes4",
          "name": "interfaceId",
          "type": "bytes4"
        }
      ],
      "name": "supportsInterface",
      "outputs": [
        {
          "internalType": "bool",
          "name": "",
          "type": "bool"
        }
      ],
      "stateMutability": "view",
      "type": "function"
    },
    {
      "inputs": [],
      "name": "symbol",
      "outputs": [
        {
          "internalType": "string",
          "name": "",
          "type": "string"
        }
      ],
      "stateMutability": "view",
      "type": "function"
    },
    {
      "inputs": [
        {
          "internalType": "uint256",
          "name": "tokenId",
          "type": "uint256"
        }
      ],
      "name": "tokenURI",
      "outputs": [
        {
          "internalType": "string",
          "name": "",
          "type": "string"
        }
      ],
      "stateMutability": "view",
      "type": "function"
    },
    {
      "inputs": [
        {
          "internalType": "address",
          "name": "from",
          "type": "address"
        },
        {
          "internalType": "address",
          "name": "to",
          "type": "address"
        },
        {
          "internalType": "uint256",
          "name": "tokenId",
          "type": "uint256"
        }
      ],
      "name": "transferFrom",
      "outputs": [],
      "stateMutability": "nonpayable",
      "type": "function"
    },
    {
      "inputs": [
        {
          "internalType": "uint256",
          "name": "",
          "type": "uint256"
        }
      ],
      "name": "waitingList",
      "outputs": [
        {
          "internalType": "uint256",
          "name": "id",
          "type": "uint256"
        },
        {
          "internalType": "address",
          "name": "owner",
          "type": "address"
        },
        {
          "internalType": "uint256",
          "name": "chapterId",
          "type": "uint256"
        },
        {
          "internalType": "enum Feedback.WaitingListStatus",
          "name": "status",
          "type": "uint8"
        }
      ],
      "stateMutability": "view",
      "type": "function"
    }
  ],
  "bytecode": "0x60806040523480156200001157600080fd5b50604051620027f8380380620027f88339810160408190526200003491620000f0565b6040518060400160405280600a81526020016911995959189858dad25160b21b8152506040518060400160405280600381526020016246424960e81b8152508160009081620000849190620001c7565b506001620000938282620001c7565b5050600d80546001600160a01b0319166001600160a01b03841617905550620000c96007620000e7602090811b620012a617901c565b620000e06008620000e760201b620012a61760201c565b5062000293565b80546001019055565b6000602082840312156200010357600080fd5b81516001600160a01b03811681146200011b57600080fd5b9392505050565b634e487b7160e01b600052604160045260246000fd5b600181811c908216806200014d57607f821691505b6020821081036200016e57634e487b7160e01b600052602260045260246000fd5b50919050565b601f821115620001c257600081815260208120601f850160051c810160208610156200019d5750805b601f850160051c820191505b81811015620001be57828155600101620001a9565b5050505b505050565b81516001600160401b03811115620001e357620001e362000122565b620001fb81620001f4845462000138565b8462000174565b602080601f8311600181146200023357600084156200021a5750858301515b600019600386901b1c1916600185901b178555620001be565b600085815260208120601f198616915b82811015620002645788860151825594840194600190910190840162000243565b5085821015620002835787850151600019600388901b60f8161c191681555b5050505050600190811b01905550565b61255580620002a36000396000f3fe608060405234801561001057600080fd5b50600436106101f05760003560e01c806370a082311161010f578063c1d738a6116100a2578063d547741f11610071578063d547741f1461044e578063e148ca3914610461578063e7a20f3f14610474578063e985e9c5146104c657600080fd5b8063c1d738a614610402578063c87b56dd14610415578063d117b8bd14610428578063d20eb0161461043b57600080fd5b8063a217fddf116100de578063a217fddf146103b4578063a22cb465146103bc578063b88d4fde146103cf578063bfa121eb146103e257600080fd5b806370a0823114610373578063830639ac1461038657806391d148541461039957806395d89b41146103ac57600080fd5b80632dc12c5311610187578063442886d411610156578063442886d4146103275780635c9698771461033a5780636352211e1461034d5780636f15561d1461036057600080fd5b80632dc12c53146102ee5780632f2ff15d1461030157806336568abe1461031457806342842e0e1461028557600080fd5b80630a98140c116101c35780630a98140c1461027257806323b872dd14610285578063248a9ca3146102985780632bb8b0dc146102c957600080fd5b806301ffc9a7146101f557806306fdde031461021d578063081812fc14610232578063095ea7b31461025d575b600080fd5b610208610203366004611ca4565b610502565b60405190151581526020015b60405180910390f35b610225610522565b6040516102149190611d11565b610245610240366004611d24565b6105b4565b6040516001600160a01b039091168152602001610214565b61027061026b366004611d52565b6105db565b005b610270610280366004611d8b565b6106f5565b610270610293366004611dbb565b6107fa565b6102bb6102a6366004611d24565b60009081526006602052604090206001015490565b604051908152602001610214565b6102dc6102d7366004611d24565b610830565b60405161021496959493929190611e30565b6102706102fc366004611d24565b6108fd565b61027061030f366004611e7f565b61090b565b610270610322366004611e7f565b610930565b600d54610245906001600160a01b031681565b6102bb610348366004611ea4565b6109ae565b61024561035b366004611d24565b6109df565b6102bb61036e366004611ea4565b610a3f565b6102bb610381366004611ec6565b610a5b565b610208610394366004611d52565b610ae1565b6102086103a7366004611e7f565b610bfe565b610225610c29565b6102bb600081565b6102706103ca366004611ee3565b610c38565b6102706103dd366004611fa2565b610c43565b6103f56103f0366004611d24565b610cc1565b6040516102149190612022565b610270610410366004611d8b565b610ed3565b610225610423366004611d24565b610fce565b6102706104363660046120d8565b611042565b610270610449366004611d24565b6111a2565b61027061045c366004611e7f565b6111ad565b61027061046f366004611d24565b6111d2565b6104b6610482366004611d24565b600b60205260009081526040902080546001820154600283015460039093015491926001600160a01b039091169160ff1684565b604051610214949392919061213c565b6102086104d4366004612171565b6001600160a01b03918216600090815260056020908152604080832093909416825291909152205460ff1690565b600061050d826112af565b8061051c575061051c826112ff565b92915050565b6060600080546105319061219f565b80601f016020809104026020016040519081016040528092919081815260200182805461055d9061219f565b80156105aa5780601f1061057f576101008083540402835291602001916105aa565b820191906000526020600020905b81548152906001019060200180831161058d57829003601f168201915b5050505050905090565b60006105bf82611324565b506000908152600460205260409020546001600160a01b031690565b60006105e6826109df565b9050806001600160a01b0316836001600160a01b0316036106585760405162461bcd60e51b815260206004820152602160248201527f4552433732313a20617070726f76616c20746f2063757272656e74206f776e656044820152603960f91b60648201526084015b60405180910390fd5b336001600160a01b0382161480610674575061067481336104d4565b6106e65760405162461bcd60e51b815260206004820152603d60248201527f4552433732313a20617070726f76652063616c6c6572206973206e6f7420746f60448201527f6b656e206f776e6572206f7220617070726f76656420666f7220616c6c000000606482015260840161064f565b6106f08383611383565b505050565b60008281526009602052604090819020600d54600282015492516331a9108f60e11b81526004810193909352909133916001600160a01b031690636352211e90602401602060405180830381865afa158015610755573d6000803e3d6000fd5b505050506040513d601f19601f8201168201806040525081019061077991906121d9565b6001600160a01b0316146107cf5760405162461bcd60e51b815260206004820152601c60248201527f4e6f7420746865206f776e6572206f6620746865206368617074657200000000604482015260640161064f565b60058101805483919060ff191660018360028111156107f0576107f0611dfc565b0217905550505050565b60405162461bcd60e51b815260206004820152600b60248201526a139bdd08185b1b1bddd95960aa1b604482015260640161064f565b600960205260009081526040902080546001820154600283015460038401805493946001600160a01b039093169391929161086a9061219f565b80601f01602080910402602001604051908101604052809291908181526020018280546108969061219f565b80156108e35780601f106108b8576101008083540402835291602001916108e3565b820191906000526020600020905b8154815290600101906020018083116108c657829003601f168201915b50505050600483015460059093015491929160ff16905086565b6109088160016106f5565b50565b600082815260066020526040902060010154610926816113f1565b6106f083836113fb565b6001600160a01b03811633146109a05760405162461bcd60e51b815260206004820152602f60248201527f416363657373436f6e74726f6c3a2063616e206f6e6c792072656e6f756e636560448201526e103937b632b9903337b91039b2b63360891b606482015260840161064f565b6109aa8282611481565b5050565b600c60205281600052604060002081815481106109ca57600080fd5b90600052602060002001600091509150505481565b6000818152600260205260408120546001600160a01b03168061051c5760405162461bcd60e51b8152602060048201526018602482015277115490cdcc8c4e881a5b9d985b1a59081d1bdad95b88125160421b604482015260640161064f565b600a60205281600052604060002081815481106109ca57600080fd5b60006001600160a01b038216610ac55760405162461bcd60e51b815260206004820152602960248201527f4552433732313a2061646472657373207a65726f206973206e6f7420612076616044820152683634b21037bbb732b960b91b606482015260840161064f565b506001600160a01b031660009081526003602052604090205490565b6000805b6000838152600c6020526040902054811015610bf4576000838152600c602052604081208054600b91839185908110610b2057610b206121f6565b60009182526020808320909101548352828101939093526040918201902081516080810183528154815260018201546001600160a01b0316938101939093526002808201549284019290925260038101549091606084019160ff1690811115610b8b57610b8b611dfc565b6002811115610b9c57610b9c611dfc565b815250509050846001600160a01b031681602001516001600160a01b031603610be157600181606001516002811115610bd757610bd7611dfc565b149250505061051c565b5080610bec81612222565b915050610ae5565b5060009392505050565b60009182526006602090815260408084206001600160a01b0393909316845291905290205460ff1690565b6060600180546105319061219f565b6109aa3383836114e8565b610c4d33836115b6565b610caf5760405162461bcd60e51b815260206004820152602d60248201527f4552433732313a2063616c6c6572206973206e6f7420746f6b656e206f776e6560448201526c1c881bdc88185c1c1c9bdd9959609a1b606482015260840161064f565b610cbb84848484611635565b50505050565b6000818152600a60205260408120546060919067ffffffffffffffff811115610cec57610cec611f16565b604051908082528060200260200182016040528015610d2557816020015b610d12611c3f565b815260200190600190039081610d0a5790505b50905060005b6000848152600a6020526040902054811015610ecc576000848152600a602052604081208054600992919084908110610d6657610d666121f6565b906000526020600020015481526020019081526020016000206040518060c0016040529081600082015481526020016001820160009054906101000a90046001600160a01b03166001600160a01b03166001600160a01b0316815260200160028201548152602001600382018054610ddd9061219f565b80601f0160208091040260200160405190810160405280929190818152602001828054610e099061219f565b8015610e565780601f10610e2b57610100808354040283529160200191610e56565b820191906000526020600020905b815481529060010190602001808311610e3957829003601f168201915b505050918352505060048201546020820152600582015460409091019060ff166002811115610e8757610e87611dfc565b6002811115610e9857610e98611dfc565b81525050828281518110610eae57610eae6121f6565b60200260200101819052508080610ec490612222565b915050610d2b565b5092915050565b6000828152600b602052604090819020600d54600282015492516331a9108f60e11b81526004810193909352909133916001600160a01b031690636352211e90602401602060405180830381865afa158015610f33573d6000803e3d6000fd5b505050506040513d601f19601f82011682018060405250810190610f5791906121d9565b6001600160a01b031614610fad5760405162461bcd60e51b815260206004820152601c60248201527f4e6f7420746865206f776e6572206f6620746865206368617074657200000000604482015260640161064f565b60038101805483919060ff191660018360028111156107f0576107f0611dfc565b6060610fd982611324565b6000610ff060408051602081019091526000815290565b90506000815111611010576040518060200160405280600081525061103b565b8061101a84611668565b60405160200161102b92919061223b565b6040516020818303038152906040525b9392505050565b600061104d60075490565b90506110593385610ae1565b6110b65760405162461bcd60e51b815260206004820152602860248201527f596f7520617265206e6f742077686974656c697374656420666f7220746869736044820152671031b430b83a32b960c11b606482015260840161064f565b6040805160c0810182528281523360208083019182528284018881526060840188815260808501889052600060a086018190528781526009909352949091208351815591516001830180546001600160a01b0319166001600160a01b03909216919091179055516002820155915190918291600382019061113790826122b8565b506080820151600482015560a082015160058201805460ff1916600183600281111561116557611165611dfc565b021790555050506000858152600a602090815260408220805460018101825590835291200182905561119b600780546001019055565b5050505050565b6109088160026106f5565b6000828152600660205260409020600101546111c8816113f1565b6106f08383611481565b60006111dd60075490565b60408051608081018252828152336020808301918252828401878152600060608501818152878252600b90935294909420835181559151600180840180546001600160a01b0319166001600160a01b0390931692909217909155935160028084019190915590516003830180549697509395869593949193919260ff199091169190849081111561127057611270611dfc565b021790555050506000838152600c60209081526040822080546001810182559083529120018290556106f0600880546001019055565b80546001019055565b60006001600160e01b031982166380ac58cd60e01b14806112e057506001600160e01b03198216635b5e139f60e01b145b8061051c57506301ffc9a760e01b6001600160e01b031983161461051c565b60006001600160e01b03198216637965db0b60e01b148061051c575061051c826112af565b6000818152600260205260409020546001600160a01b03166109085760405162461bcd60e51b8152602060048201526018602482015277115490cdcc8c4e881a5b9d985b1a59081d1bdad95b88125160421b604482015260640161064f565b600081815260046020526040902080546001600160a01b0319166001600160a01b03841690811790915581906113b8826109df565b6001600160a01b03167f8c5be1e5ebec7d5bd14f71427d1e84f3dd0314c0f7b2291e5b200ac8c7c3b92560405160405180910390a45050565b61090881336116fb565b6114058282610bfe565b6109aa5760008281526006602090815260408083206001600160a01b03851684529091529020805460ff1916600117905561143d3390565b6001600160a01b0316816001600160a01b0316837f2f8788117e7eff1d82e926ec794901d17c78024a50270940304540a733656f0d60405160405180910390a45050565b61148b8282610bfe565b156109aa5760008281526006602090815260408083206001600160a01b0385168085529252808320805460ff1916905551339285917ff6391f5c32d9c69d2a47ea670b442974b53935d1edc7fd64eb21e047a839171b9190a45050565b816001600160a01b0316836001600160a01b0316036115495760405162461bcd60e51b815260206004820152601960248201527f4552433732313a20617070726f766520746f2063616c6c657200000000000000604482015260640161064f565b6001600160a01b03838116600081815260056020908152604080832094871680845294825291829020805460ff191686151590811790915591519182527f17307eab39ab6107e8899845ad3d59bd9653f200f220920489ca2b5937696c31910160405180910390a3505050565b6000806115c2836109df565b9050806001600160a01b0316846001600160a01b0316148061160957506001600160a01b0380821660009081526005602090815260408083209388168352929052205460ff165b8061162d5750836001600160a01b0316611622846105b4565b6001600160a01b0316145b949350505050565b611640848484611754565b61164c848484846118b8565b610cbb5760405162461bcd60e51b815260040161064f90612378565b60606000611675836119b9565b600101905060008167ffffffffffffffff81111561169557611695611f16565b6040519080825280601f01601f1916602001820160405280156116bf576020820181803683370190505b5090508181016020015b600019016f181899199a1a9b1b9c1cb0b131b232b360811b600a86061a8153600a85049450846116c957509392505050565b6117058282610bfe565b6109aa5761171281611a91565b61171d836020611aa3565b60405160200161172e9291906123ca565b60408051601f198184030181529082905262461bcd60e51b825261064f91600401611d11565b826001600160a01b0316611767826109df565b6001600160a01b03161461178d5760405162461bcd60e51b815260040161064f9061243f565b6001600160a01b0382166117ef5760405162461bcd60e51b8152602060048201526024808201527f4552433732313a207472616e7366657220746f20746865207a65726f206164646044820152637265737360e01b606482015260840161064f565b826001600160a01b0316611802826109df565b6001600160a01b0316146118285760405162461bcd60e51b815260040161064f9061243f565b600081815260046020908152604080832080546001600160a01b03199081169091556001600160a01b0387811680865260038552838620805460001901905590871680865283862080546001019055868652600290945282852080549092168417909155905184937fddf252ad1be2c89b69c2b068fc378daa952ba7f163c4a11628f55a4df523b3ef91a4505050565b60006001600160a01b0384163b156119ae57604051630a85bd0160e11b81526001600160a01b0385169063150b7a02906118fc903390899088908890600401612484565b6020604051808303816000875af1925050508015611937575060408051601f3d908101601f19168201909252611934918101906124c1565b60015b611994573d808015611965576040519150601f19603f3d011682016040523d82523d6000602084013e61196a565b606091505b50805160000361198c5760405162461bcd60e51b815260040161064f90612378565b805181602001fd5b6001600160e01b031916630a85bd0160e11b14905061162d565b506001949350505050565b60008072184f03e93ff9f4daa797ed6e38ed64bf6a1f0160401b83106119f85772184f03e93ff9f4daa797ed6e38ed64bf6a1f0160401b830492506040015b6d04ee2d6d415b85acef81000000008310611a24576d04ee2d6d415b85acef8100000000830492506020015b662386f26fc100008310611a4257662386f26fc10000830492506010015b6305f5e1008310611a5a576305f5e100830492506008015b6127108310611a6e57612710830492506004015b60648310611a80576064830492506002015b600a831061051c5760010192915050565b606061051c6001600160a01b03831660145b60606000611ab28360026124de565b611abd9060026124f5565b67ffffffffffffffff811115611ad557611ad5611f16565b6040519080825280601f01601f191660200182016040528015611aff576020820181803683370190505b509050600360fc1b81600081518110611b1a57611b1a6121f6565b60200101906001600160f81b031916908160001a905350600f60fb1b81600181518110611b4957611b496121f6565b60200101906001600160f81b031916908160001a9053506000611b6d8460026124de565b611b789060016124f5565b90505b6001811115611bf0576f181899199a1a9b1b9c1cb0b131b232b360811b85600f1660108110611bac57611bac6121f6565b1a60f81b828281518110611bc257611bc26121f6565b60200101906001600160f81b031916908160001a90535060049490941c93611be981612508565b9050611b7b565b50831561103b5760405162461bcd60e51b815260206004820181905260248201527f537472696e67733a20686578206c656e67746820696e73756666696369656e74604482015260640161064f565b6040518060c001604052806000815260200160006001600160a01b0316815260200160008152602001606081526020016000815260200160006002811115611c8957611c89611dfc565b905290565b6001600160e01b03198116811461090857600080fd5b600060208284031215611cb657600080fd5b813561103b81611c8e565b60005b83811015611cdc578181015183820152602001611cc4565b50506000910152565b60008151808452611cfd816020860160208601611cc1565b601f01601f19169290920160200192915050565b60208152600061103b6020830184611ce5565b600060208284031215611d3657600080fd5b5035919050565b6001600160a01b038116811461090857600080fd5b60008060408385031215611d6557600080fd5b8235611d7081611d3d565b946020939093013593505050565b6003811061090857600080fd5b60008060408385031215611d9e57600080fd5b823591506020830135611db081611d7e565b809150509250929050565b600080600060608486031215611dd057600080fd5b8335611ddb81611d3d565b92506020840135611deb81611d3d565b929592945050506040919091013590565b634e487b7160e01b600052602160045260246000fd5b6003811061090857634e487b7160e01b600052602160045260246000fd5b86815260018060a01b038616602082015284604082015260c060608201526000611e5d60c0830186611ce5565b9050836080830152611e6e83611e12565b8260a0830152979650505050505050565b60008060408385031215611e9257600080fd5b823591506020830135611db081611d3d565b60008060408385031215611eb757600080fd5b50508035926020909101359150565b600060208284031215611ed857600080fd5b813561103b81611d3d565b60008060408385031215611ef657600080fd5b8235611f0181611d3d565b915060208301358015158114611db057600080fd5b634e487b7160e01b600052604160045260246000fd5b600067ffffffffffffffff80841115611f4757611f47611f16565b604051601f8501601f19908116603f01168101908282118183101715611f6f57611f6f611f16565b81604052809350858152868686011115611f8857600080fd5b858560208301376000602087830101525050509392505050565b60008060008060808587031215611fb857600080fd5b8435611fc381611d3d565b93506020850135611fd381611d3d565b925060408501359150606085013567ffffffffffffffff811115611ff657600080fd5b8501601f8101871361200757600080fd5b61201687823560208401611f2c565b91505092959194509250565b60006020808301818452808551808352604092508286019150828160051b87010184880160005b838110156120ca57888303603f19018552815180518452878101516001600160a01b031688850152868101518785015260608082015160c0828701819052919061209583880182611ce5565b92505050608080830151818701525060a08083015192506120b583611e12565b94909401529386019390860190600101612049565b509098975050505050505050565b6000806000606084860312156120ed57600080fd5b83359250602084013567ffffffffffffffff81111561210b57600080fd5b8401601f8101861361211c57600080fd5b61212b86823560208401611f2c565b925050604084013590509250925092565b8481526001600160a01b0384166020820152604081018390526080810161216283611e12565b82606083015295945050505050565b6000806040838503121561218457600080fd5b823561218f81611d3d565b91506020830135611db081611d3d565b600181811c908216806121b357607f821691505b6020821081036121d357634e487b7160e01b600052602260045260246000fd5b50919050565b6000602082840312156121eb57600080fd5b815161103b81611d3d565b634e487b7160e01b600052603260045260246000fd5b634e487b7160e01b600052601160045260246000fd5b6000600182016122345761223461220c565b5060010190565b6000835161224d818460208801611cc1565b835190830190612261818360208801611cc1565b01949350505050565b601f8211156106f057600081815260208120601f850160051c810160208610156122915750805b601f850160051c820191505b818110156122b05782815560010161229d565b505050505050565b815167ffffffffffffffff8111156122d2576122d2611f16565b6122e6816122e0845461219f565b8461226a565b602080601f83116001811461231b57600084156123035750858301515b600019600386901b1c1916600185901b1785556122b0565b600085815260208120601f198616915b8281101561234a5788860151825594840194600190910190840161232b565b50858210156123685787850151600019600388901b60f8161c191681555b5050505050600190811b01905550565b60208082526032908201527f4552433732313a207472616e7366657220746f206e6f6e20455243373231526560408201527131b2b4bb32b91034b6b83632b6b2b73a32b960711b606082015260800190565b7f416363657373436f6e74726f6c3a206163636f756e7420000000000000000000815260008351612402816017850160208801611cc1565b7001034b99036b4b9b9b4b733903937b6329607d1b6017918401918201528351612433816028840160208801611cc1565b01602801949350505050565b60208082526025908201527f4552433732313a207472616e736665722066726f6d20696e636f72726563742060408201526437bbb732b960d91b606082015260800190565b6001600160a01b03858116825284166020820152604081018390526080606082018190526000906124b790830184611ce5565b9695505050505050565b6000602082840312156124d357600080fd5b815161103b81611c8e565b808202811582820484141761051c5761051c61220c565b8082018082111561051c5761051c61220c565b6000816125175761251761220c565b50600019019056fea2646970667358221220c0ea8ec15933813efe160528f1a3ba8eb97ff280de3995e1cd574c2a5fb5db4a64736f6c63430008110033",
  "linkReferences": {},
  "deployedLinkReferences": {}
}