{
  "_format": "hh-sol-artifact-1",
  "contractName": "Feedback",
  "sourceName": "contracts/Feedback.sol",
  "abi": [
    {
      "inputs": [
        {
          "internalType": "address",
          "name": "_chapterContractAddress",
          "type": "address"
        }
      ],
      "stateMutability": "nonpayable",
      "type": "constructor"
    },
    {
      "inputs": [],
      "name": "DER_Split_Error",
      "type": "error"
    },
    {
      "inputs": [],
      "name": "expmod_Error",
      "type": "error"
    },
    {
      "inputs": [],
      "name": "k256Decompress_Invalid_Length_Error",
      "type": "error"
    },
    {
      "inputs": [],
      "name": "k256DeriveY_Invalid_Prefix_Error",
      "type": "error"
    },
    {
      "inputs": [],
      "name": "recoverV_Error",
      "type": "error"
    },
    {
      "anonymous": false,
      "inputs": [
        {
          "indexed": true,
          "internalType": "address",
          "name": "owner",
          "type": "address"
        },
        {
          "indexed": true,
          "internalType": "address",
          "name": "approved",
          "type": "address"
        },
        {
          "indexed": true,
          "internalType": "uint256",
          "name": "tokenId",
          "type": "uint256"
        }
      ],
      "name": "Approval",
      "type": "event"
    },
    {
      "anonymous": false,
      "inputs": [
        {
          "indexed": true,
          "internalType": "address",
          "name": "owner",
          "type": "address"
        },
        {
          "indexed": true,
          "internalType": "address",
          "name": "operator",
          "type": "address"
        },
        {
          "indexed": false,
          "internalType": "bool",
          "name": "approved",
          "type": "bool"
        }
      ],
      "name": "ApprovalForAll",
      "type": "event"
    },
    {
      "anonymous": false,
      "inputs": [
        {
          "indexed": true,
          "internalType": "bytes32",
          "name": "role",
          "type": "bytes32"
        },
        {
          "indexed": true,
          "internalType": "bytes32",
          "name": "previousAdminRole",
          "type": "bytes32"
        },
        {
          "indexed": true,
          "internalType": "bytes32",
          "name": "newAdminRole",
          "type": "bytes32"
        }
      ],
      "name": "RoleAdminChanged",
      "type": "event"
    },
    {
      "anonymous": false,
      "inputs": [
        {
          "indexed": true,
          "internalType": "bytes32",
          "name": "role",
          "type": "bytes32"
        },
        {
          "indexed": true,
          "internalType": "address",
          "name": "account",
          "type": "address"
        },
        {
          "indexed": true,
          "internalType": "address",
          "name": "sender",
          "type": "address"
        }
      ],
      "name": "RoleGranted",
      "type": "event"
    },
    {
      "anonymous": false,
      "inputs": [
        {
          "indexed": true,
          "internalType": "bytes32",
          "name": "role",
          "type": "bytes32"
        },
        {
          "indexed": true,
          "internalType": "address",
          "name": "account",
          "type": "address"
        },
        {
          "indexed": true,
          "internalType": "address",
          "name": "sender",
          "type": "address"
        }
      ],
      "name": "RoleRevoked",
      "type": "event"
    },
    {
      "anonymous": false,
      "inputs": [
        {
          "indexed": true,
          "internalType": "address",
          "name": "from",
          "type": "address"
        },
        {
          "indexed": true,
          "internalType": "address",
          "name": "to",
          "type": "address"
        },
        {
          "indexed": true,
          "internalType": "uint256",
          "name": "tokenId",
          "type": "uint256"
        }
      ],
      "name": "Transfer",
      "type": "event"
    },
    {
      "inputs": [],
      "name": "DEFAULT_ADMIN_ROLE",
      "outputs": [
        {
          "internalType": "bytes32",
          "name": "",
          "type": "bytes32"
        }
      ],
      "stateMutability": "view",
      "type": "function"
    },
    {
      "inputs": [
        {
          "internalType": "uint256",
          "name": "_feedbackId",
          "type": "uint256"
        }
      ],
      "name": "acceptFeedback",
      "outputs": [],
      "stateMutability": "nonpayable",
      "type": "function"
    },
    {
      "inputs": [
        {
          "internalType": "uint256",
          "name": "_chapterId",
          "type": "uint256"
        }
      ],
      "name": "applyToWhitelist",
      "outputs": [],
      "stateMutability": "nonpayable",
      "type": "function"
    },
    {
      "inputs": [
        {
          "internalType": "address",
          "name": "to",
          "type": "address"
        },
        {
          "internalType": "uint256",
          "name": "tokenId",
          "type": "uint256"
        }
      ],
      "name": "approve",
      "outputs": [],
      "stateMutability": "nonpayable",
      "type": "function"
    },
    {
      "inputs": [
        {
          "internalType": "address",
          "name": "owner",
          "type": "address"
        }
      ],
      "name": "balanceOf",
      "outputs": [
        {
          "internalType": "uint256",
          "name": "",
          "type": "uint256"
        }
      ],
      "stateMutability": "view",
      "type": "function"
    },
    {
      "inputs": [
        {
          "internalType": "uint256",
          "name": "_feedbackId",
          "type": "uint256"
        },
        {
          "internalType": "enum Feedback.FeedbackStatus",
          "name": "_status",
          "type": "uint8"
        }
      ],
      "name": "changeFeedbackStatus",
      "outputs": [],
      "stateMutability": "nonpayable",
      "type": "function"
    },
    {
      "inputs": [
        {
          "internalType": "uint256",
          "name": "_waitingListId",
          "type": "uint256"
        },
        {
          "internalType": "enum Feedback.WaitingListStatus",
          "name": "_status",
          "type": "uint8"
        }
      ],
      "name": "changeWhiteListStatus",
      "outputs": [],
      "stateMutability": "nonpayable",
      "type": "function"
    },
    {
      "inputs": [
        {
          "internalType": "uint256",
          "name": "",
          "type": "uint256"
        },
        {
          "internalType": "uint256",
          "name": "",
          "type": "uint256"
        }
      ],
      "name": "chapterFeedbacks",
      "outputs": [
        {
          "internalType": "uint256",
          "name": "",
          "type": "uint256"
        }
      ],
      "stateMutability": "view",
      "type": "function"
    },
    {
      "inputs": [],
      "name": "chapterIdContract",
      "outputs": [
        {
          "internalType": "contract IChapter",
          "name": "",
          "type": "address"
        }
      ],
      "stateMutability": "view",
      "type": "function"
    },
    {
      "inputs": [
        {
          "internalType": "uint256",
          "name": "",
          "type": "uint256"
        },
        {
          "internalType": "uint256",
          "name": "",
          "type": "uint256"
        }
      ],
      "name": "chapterWaitingLists",
      "outputs": [
        {
          "internalType": "uint256",
          "name": "",
          "type": "uint256"
        }
      ],
      "stateMutability": "view",
      "type": "function"
    },
    {
      "inputs": [
        {
          "internalType": "uint256",
          "name": "_chapterId",
          "type": "uint256"
        },
        {
          "internalType": "string",
          "name": "_content",
          "type": "string"
        },
        {
          "internalType": "uint256",
          "name": "_rating",
          "type": "uint256"
        }
      ],
      "name": "createFeedback",
      "outputs": [],
      "stateMutability": "nonpayable",
      "type": "function"
    },
    {
      "inputs": [
        {
          "internalType": "uint256",
          "name": "",
          "type": "uint256"
        }
      ],
      "name": "feedbacks",
      "outputs": [
        {
          "internalType": "uint256",
          "name": "id",
          "type": "uint256"
        },
        {
          "internalType": "address",
          "name": "owner",
          "type": "address"
        },
        {
          "internalType": "uint256",
          "name": "chapterId",
          "type": "uint256"
        },
        {
          "internalType": "string",
          "name": "content",
          "type": "string"
        },
        {
          "internalType": "uint256",
          "name": "rating",
          "type": "uint256"
        },
        {
          "internalType": "enum Feedback.FeedbackStatus",
          "name": "status",
          "type": "uint8"
        }
      ],
      "stateMutability": "view",
      "type": "function"
    },
    {
      "inputs": [
        {
          "internalType": "uint256",
          "name": "_chapterId",
          "type": "uint256"
        }
      ],
      "name": "getAllFeedbacks",
      "outputs": [
        {
          "components": [
            {
              "internalType": "uint256",
              "name": "id",
              "type": "uint256"
            },
            {
              "internalType": "address",
              "name": "owner",
              "type": "address"
            },
            {
              "internalType": "uint256",
              "name": "chapterId",
              "type": "uint256"
            },
            {
              "internalType": "string",
              "name": "content",
              "type": "string"
            },
            {
              "internalType": "uint256",
              "name": "rating",
              "type": "uint256"
            },
            {
              "internalType": "enum Feedback.FeedbackStatus",
              "name": "status",
              "type": "uint8"
            }
          ],
          "internalType": "struct Feedback.FeedbackDetails[]",
          "name": "",
          "type": "tuple[]"
        }
      ],
      "stateMutability": "view",
      "type": "function"
    },
    {
      "inputs": [
        {
          "internalType": "uint256",
          "name": "_chapterId",
          "type": "uint256"
        }
      ],
      "name": "getAllWaitingList",
      "outputs": [
        {
          "components": [
            {
              "internalType": "uint256",
              "name": "id",
              "type": "uint256"
            },
            {
              "internalType": "address",
              "name": "owner",
              "type": "address"
            },
            {
              "internalType": "uint256",
              "name": "chapterId",
              "type": "uint256"
            },
            {
              "internalType": "enum Feedback.WaitingListStatus",
              "name": "status",
              "type": "uint8"
            }
          ],
          "internalType": "struct Feedback.WaitingListDetails[]",
          "name": "",
          "type": "tuple[]"
        }
      ],
      "stateMutability": "view",
      "type": "function"
    },
    {
      "inputs": [
        {
          "internalType": "uint256",
          "name": "tokenId",
          "type": "uint256"
        }
      ],
      "name": "getApproved",
      "outputs": [
        {
          "internalType": "address",
          "name": "",
          "type": "address"
        }
      ],
      "stateMutability": "view",
      "type": "function"
    },
    {
      "inputs": [
        {
          "internalType": "bytes32",
          "name": "role",
          "type": "bytes32"
        }
      ],
      "name": "getRoleAdmin",
      "outputs": [
        {
          "internalType": "bytes32",
          "name": "",
          "type": "bytes32"
        }
      ],
      "stateMutability": "view",
      "type": "function"
    },
    {
      "inputs": [
        {
          "internalType": "bytes32",
          "name": "role",
          "type": "bytes32"
        },
        {
          "internalType": "address",
          "name": "account",
          "type": "address"
        }
      ],
      "name": "grantRole",
      "outputs": [],
      "stateMutability": "nonpayable",
      "type": "function"
    },
    {
      "inputs": [
        {
          "internalType": "bytes32",
          "name": "role",
          "type": "bytes32"
        },
        {
          "internalType": "address",
          "name": "account",
          "type": "address"
        }
      ],
      "name": "hasRole",
      "outputs": [
        {
          "internalType": "bool",
          "name": "",
          "type": "bool"
        }
      ],
      "stateMutability": "view",
      "type": "function"
    },
    {
      "inputs": [
        {
          "internalType": "address",
          "name": "owner",
          "type": "address"
        },
        {
          "internalType": "address",
          "name": "operator",
          "type": "address"
        }
      ],
      "name": "isApprovedForAll",
      "outputs": [
        {
          "internalType": "bool",
          "name": "",
          "type": "bool"
        }
      ],
      "stateMutability": "view",
      "type": "function"
    },
    {
      "inputs": [
        {
          "internalType": "uint256",
          "name": "_chapterId",
          "type": "uint256"
        }
      ],
      "name": "isWhitelisted",
      "outputs": [
        {
          "internalType": "bool",
          "name": "",
          "type": "bool"
        }
      ],
      "stateMutability": "view",
      "type": "function"
    },
    {
      "inputs": [
        {
          "internalType": "address",
          "name": "_user",
          "type": "address"
        },
        {
          "internalType": "uint256",
          "name": "_chapterId",
          "type": "uint256"
        }
      ],
      "name": "isWhitelistedUser",
      "outputs": [
        {
          "internalType": "bool",
          "name": "",
          "type": "bool"
        }
      ],
      "stateMutability": "view",
      "type": "function"
    },
    {
      "inputs": [],
      "name": "name",
      "outputs": [
        {
          "internalType": "string",
          "name": "",
          "type": "string"
        }
      ],
      "stateMutability": "view",
      "type": "function"
    },
    {
      "inputs": [
        {
          "internalType": "uint256",
          "name": "tokenId",
          "type": "uint256"
        }
      ],
      "name": "ownerOf",
      "outputs": [
        {
          "internalType": "address",
          "name": "",
          "type": "address"
        }
      ],
      "stateMutability": "view",
      "type": "function"
    },
    {
      "inputs": [
        {
          "internalType": "bytes",
          "name": "data",
          "type": "bytes"
        }
      ],
      "name": "proxy",
      "outputs": [],
      "stateMutability": "payable",
      "type": "function"
    },
    {
      "inputs": [
        {
          "internalType": "uint256",
          "name": "_chapterId",
          "type": "uint256"
        },
        {
          "internalType": "string",
          "name": "_content",
          "type": "string"
        },
        {
          "internalType": "uint256",
          "name": "_rating",
          "type": "uint256"
        }
      ],
      "name": "proxyCreateFeedback",
      "outputs": [
        {
          "internalType": "bytes",
          "name": "output",
          "type": "bytes"
        }
      ],
      "stateMutability": "view",
      "type": "function"
    },
    {
      "inputs": [
        {
          "internalType": "uint256",
          "name": "_feedbackId",
          "type": "uint256"
        }
      ],
      "name": "rejectFeedback",
      "outputs": [],
      "stateMutability": "nonpayable",
      "type": "function"
    },
    {
      "inputs": [
        {
          "internalType": "bytes32",
          "name": "role",
          "type": "bytes32"
        },
        {
          "internalType": "address",
          "name": "account",
          "type": "address"
        }
      ],
      "name": "renounceRole",
      "outputs": [],
      "stateMutability": "nonpayable",
      "type": "function"
    },
    {
      "inputs": [
        {
          "internalType": "bytes32",
          "name": "role",
          "type": "bytes32"
        },
        {
          "internalType": "address",
          "name": "account",
          "type": "address"
        }
      ],
      "name": "revokeRole",
      "outputs": [],
      "stateMutability": "nonpayable",
      "type": "function"
    },
    {
      "inputs": [
        {
          "internalType": "address",
          "name": "",
          "type": "address"
        },
        {
          "internalType": "address",
          "name": "",
          "type": "address"
        },
        {
          "internalType": "uint256",
          "name": "",
          "type": "uint256"
        }
      ],
      "name": "safeTransferFrom",
      "outputs": [],
      "stateMutability": "nonpayable",
      "type": "function"
    },
    {
      "inputs": [
        {
          "internalType": "address",
          "name": "from",
          "type": "address"
        },
        {
          "internalType": "address",
          "name": "to",
          "type": "address"
        },
        {
          "internalType": "uint256",
          "name": "tokenId",
          "type": "uint256"
        },
        {
          "internalType": "bytes",
          "name": "data",
          "type": "bytes"
        }
      ],
      "name": "safeTransferFrom",
      "outputs": [],
      "stateMutability": "nonpayable",
      "type": "function"
    },
    {
      "inputs": [
        {
          "internalType": "address",
          "name": "operator",
          "type": "address"
        },
        {
          "internalType": "bool",
          "name": "approved",
          "type": "bool"
        }
      ],
      "name": "setApprovalForAll",
      "outputs": [],
      "stateMutability": "nonpayable",
      "type": "function"
    },
    {
      "inputs": [
        {
          "internalType": "bytes4",
          "name": "interfaceId",
          "type": "bytes4"
        }
      ],
      "name": "supportsInterface",
      "outputs": [
        {
          "internalType": "bool",
          "name": "",
          "type": "bool"
        }
      ],
      "stateMutability": "view",
      "type": "function"
    },
    {
      "inputs": [],
      "name": "symbol",
      "outputs": [
        {
          "internalType": "string",
          "name": "",
          "type": "string"
        }
      ],
      "stateMutability": "view",
      "type": "function"
    },
    {
      "inputs": [
        {
          "internalType": "uint256",
          "name": "tokenId",
          "type": "uint256"
        }
      ],
      "name": "tokenURI",
      "outputs": [
        {
          "internalType": "string",
          "name": "",
          "type": "string"
        }
      ],
      "stateMutability": "view",
      "type": "function"
    },
    {
      "inputs": [
        {
          "internalType": "address",
          "name": "",
          "type": "address"
        },
        {
          "internalType": "address",
          "name": "",
          "type": "address"
        },
        {
          "internalType": "uint256",
          "name": "",
          "type": "uint256"
        }
      ],
      "name": "transferFrom",
      "outputs": [],
      "stateMutability": "nonpayable",
      "type": "function"
    },
    {
      "inputs": [
        {
          "internalType": "uint256",
          "name": "",
          "type": "uint256"
        }
      ],
      "name": "waitingList",
      "outputs": [
        {
          "internalType": "uint256",
          "name": "id",
          "type": "uint256"
        },
        {
          "internalType": "address",
          "name": "owner",
          "type": "address"
        },
        {
          "internalType": "uint256",
          "name": "chapterId",
          "type": "uint256"
        },
        {
          "internalType": "enum Feedback.WaitingListStatus",
          "name": "status",
          "type": "uint8"
        }
      ],
      "stateMutability": "view",
      "type": "function"
    }
  ],
  "bytecode": "0x60806040523480156200001157600080fd5b5060405162004b4738038062004b478339810160408190526200003491620005fc565b6040518060400160405280600a81526020016911995959189858dad25160b21b8152506040518060400160405280600381526020016246424960e81b8152508160009081620000849190620006cc565b506001620000938282620006cc565b5050600d80546001600160a01b0319166001600160a01b03841617905550620000c9600762000133602090811b6200184317901c565b620000e060086200013360201b620018431760201c565b620000f56200013c60201b6200184c1760201c565b600f55600e80546001600160a01b039092166001600160a01b031990921691909117905550601080546001600160401b0319166096179055620009f0565b80546001019055565b600080600062000168602060405180602001604052806000815250620001a760201b620018991760201c565b9050620001758162000798565b91506000620001916004836200029f60201b6200196c1760201c565b5090506200019f81620003ad565b935050509091565b60606000807301000000000000000000000000000000000000016001600160a01b03168585604051602001620001df92919062000811565b60408051601f1981840301815290829052620001fb916200082c565b600060405180830381855afa9150503d806000811462000238576040519150601f19603f3d011682016040523d82523d6000602084013e6200023d565b606091505b509150915081620002955760405162461bcd60e51b815260206004820152601360248201527f72616e646f6d42797465733a206661696c65640000000000000000000000000060448201526064015b60405180910390fd5b9150505b92915050565b6060806000807301000000000000000000000000000000000000056001600160a01b03168686604051602001620002d89291906200084a565b60408051601f1981840301815290829052620002f4916200082c565b600060405180830381855afa9150503d806000811462000331576040519150601f19603f3d011682016040523d82523d6000602084013e62000336565b606091505b5091509150816200038a5760405162461bcd60e51b815260206004820152601b60248201527f67656e207369676e696e67206b6579706169723a206661696c6564000000000060448201526064016200028c565b80806020019051810190620003a091906200090b565b9350935050509250929050565b60008080620003bc84620003d5565b9092509050620003cd828262000432565b949350505050565b6000808251602114620003fb57604051636446a2c560e11b815260040160405180910390fd5b602183015191506200042b836000815181106200041c576200041c62000975565b016020015160f81c836200047b565b9050915091565b600080838360405160200162000452929190918252602082015260400190565b60408051808303601f1901815291905280516020909101206001600160a01b0316949350505050565b60008260ff166002141580156200049657508260ff16600314155b15620004b55760405163ab4be04160e01b815260040160405180910390fd5b6401000003d01960076401000003d019808586098509089050620004eb8163400000f4600160fe1b036401000003d01962000529565b90506002620004fe60ff851683620009a1565b6200050a9190620009b7565b15620002995762000522816401000003d019620009da565b9392505050565b60408051602081810181905291810182905260608101919091526080810184905260a0810183905260c081018290526000908190819060059060e00160408051601f198184030181529082905262000581916200082c565b600060405180830381855afa9150503d8060008114620005be576040519150601f19603f3d011682016040523d82523d6000602084013e620005c3565b606091505b509150915081620005e75760405163102875ed60e01b815260040160405180910390fd5b620005f28162000798565b9695505050505050565b6000602082840312156200060f57600080fd5b81516001600160a01b03811681146200052257600080fd5b634e487b7160e01b600052604160045260246000fd5b600181811c908216806200065257607f821691505b6020821081036200067357634e487b7160e01b600052602260045260246000fd5b50919050565b601f821115620006c757600081815260208120601f850160051c81016020861015620006a25750805b601f850160051c820191505b81811015620006c357828155600101620006ae565b5050505b505050565b81516001600160401b03811115620006e857620006e862000627565b6200070081620006f984546200063d565b8462000679565b602080601f8311600181146200073857600084156200071f5750858301515b600019600386901b1c1916600185901b178555620006c3565b600085815260208120601f198616915b82811015620007695788860151825594840194600190910190840162000748565b5085821015620007885787850151600019600388901b60f8161c191681555b5050505050600190811b01905550565b80516020808301519190811015620006735760001960209190910360031b1b16919050565b60005b83811015620007da578181015183820152602001620007c0565b50506000910152565b60008151808452620007fd816020860160208601620007bd565b601f01601f19169290920160200192915050565b828152604060208201526000620003cd6040830184620007e3565b6000825162000840818460208701620007bd565b9190910192915050565b6000600984106200086b57634e487b7160e01b600052602160045260246000fd5b83825260406020830152620003cd6040830184620007e3565b600082601f8301126200089657600080fd5b81516001600160401b0380821115620008b357620008b362000627565b604051601f8301601f19908116603f01168101908282118183101715620008de57620008de62000627565b81604052838152866020858801011115620008f857600080fd5b620005f2846020830160208901620007bd565b600080604083850312156200091f57600080fd5b82516001600160401b03808211156200093757600080fd5b620009458683870162000884565b935060208501519150808211156200095c57600080fd5b506200096b8582860162000884565b9150509250929050565b634e487b7160e01b600052603260045260246000fd5b634e487b7160e01b600052601160045260246000fd5b808201808211156200029957620002996200098b565b600082620009d557634e487b7160e01b600052601260045260246000fd5b500690565b818103818111156200029957620002996200098b565b6141478062000a006000396000f3fe60806040526004361061020f5760003560e01c806370a0823111610118578063c6b6fd79116100a0578063d2b27c981161006f578063d2b27c981461062c578063d547741f1461064c578063e148ca391461066c578063e7a20f3f1461068c578063e985e9c5146106eb57600080fd5b8063c6b6fd791461059f578063c87b56dd146105cc578063d117b8bd146105ec578063d20eb0161461060c57600080fd5b8063a217fddf116100e7578063a217fddf146104fd578063a22cb46514610512578063b88d4fde14610532578063bfa121eb14610552578063c1d738a61461057f57600080fd5b806370a0823114610488578063751b02c2146104a857806391d14854146104c857806395d89b41146104e857600080fd5b80632dc12c531161019b578063442886d41161016a578063442886d4146103e85780635c969877146104085780635e994087146104285780636352211e146104485780636f15561d1461046857600080fd5b80632dc12c53146103885780632f2ff15d146103a857806336568abe146103c857806342842e0e146102f857600080fd5b80630a98140c116101e25780630a98140c146102c557806310498e9c146102e557806323b872dd146102f8578063248a9ca3146103185780632bb8b0dc1461035657600080fd5b806301ffc9a71461021457806306fdde0314610249578063081812fc1461026b578063095ea7b3146102a3575b600080fd5b34801561022057600080fd5b5061023461022f366004613449565b610734565b60405190151581526020015b60405180910390f35b34801561025557600080fd5b5061025e610754565b60405161024091906134b6565b34801561027757600080fd5b5061028b6102863660046134c9565b6107e6565b6040516001600160a01b039091168152602001610240565b3480156102af57600080fd5b506102c36102be3660046134f7565b61080d565b005b3480156102d157600080fd5b506102c36102e0366004613530565b610927565b6102c36102f336600461362b565b610a2c565b34801561030457600080fd5b506102c361031336600461365f565b610b01565b34801561032457600080fd5b506103486103333660046134c9565b60009081526006602052604090206001015490565b604051908152602001610240565b34801561036257600080fd5b506103766103713660046134c9565b610b37565b604051610240969594939291906136c6565b34801561039457600080fd5b506102c36103a33660046134c9565b610c04565b3480156103b457600080fd5b506102c36103c3366004613715565b610c12565b3480156103d457600080fd5b506102c36103e3366004613715565b610c37565b3480156103f457600080fd5b50600d5461028b906001600160a01b031681565b34801561041457600080fd5b5061034861042336600461373a565b610cb5565b34801561043457600080fd5b506102346104433660046134f7565b610ce6565b34801561045457600080fd5b5061028b6104633660046134c9565b610e03565b34801561047457600080fd5b5061034861048336600461373a565b610e63565b34801561049457600080fd5b506103486104a336600461375c565b610e7f565b3480156104b457600080fd5b506102346104c33660046134c9565b610f05565b3480156104d457600080fd5b506102346104e3366004613715565b610f11565b3480156104f457600080fd5b5061025e610f3c565b34801561050957600080fd5b50610348600081565b34801561051e57600080fd5b506102c361052d366004613779565b610f4b565b34801561053e57600080fd5b506102c361054d3660046137ac565b610f56565b34801561055e57600080fd5b5061057261056d3660046134c9565b610fd4565b6040516102409190613817565b34801561058b57600080fd5b506102c361059a366004613530565b6111e5565b3480156105ab57600080fd5b506105bf6105ba3660046134c9565b6112e0565b60405161024091906138cd565b3480156105d857600080fd5b5061025e6105e73660046134c9565b611454565b3480156105f857600080fd5b506102c3610607366004613943565b6114c8565b34801561061857600080fd5b506102c36106273660046134c9565b611627565b34801561063857600080fd5b5061025e610647366004613943565b611632565b34801561065857600080fd5b506102c3610667366004613715565b61174a565b34801561067857600080fd5b506102c36106873660046134c9565b61176f565b34801561069857600080fd5b506106db6106a73660046134c9565b600b60205260009081526040902080546001820154600283015460039093015491926001600160a01b039091169160ff1684565b60405161024094939291906139a6565b3480156106f757600080fd5b506102346107063660046139db565b6001600160a01b03918216600090815260056020908152604080832093909416825291909152205460ff1690565b600061073f82611a63565b8061074e575061074e82611ab3565b92915050565b60606000805461076390613a09565b80601f016020809104026020016040519081016040528092919081815260200182805461078f90613a09565b80156107dc5780601f106107b1576101008083540402835291602001916107dc565b820191906000526020600020905b8154815290600101906020018083116107bf57829003601f168201915b5050505050905090565b60006107f182611ad8565b506000908152600460205260409020546001600160a01b031690565b600061081882610e03565b9050806001600160a01b0316836001600160a01b03160361088a5760405162461bcd60e51b815260206004820152602160248201527f4552433732313a20617070726f76616c20746f2063757272656e74206f776e656044820152603960f91b60648201526084015b60405180910390fd5b336001600160a01b03821614806108a657506108a68133610706565b6109185760405162461bcd60e51b815260206004820152603d60248201527f4552433732313a20617070726f76652063616c6c6572206973206e6f7420746f60448201527f6b656e206f776e6572206f7220617070726f76656420666f7220616c6c0000006064820152608401610881565b6109228383611b37565b505050565b60008281526009602052604090819020600d54600282015492516331a9108f60e11b81526004810193909352909133916001600160a01b031690636352211e90602401602060405180830381865afa158015610987573d6000803e3d6000fd5b505050506040513d601f19601f820116820180604052508101906109ab9190613a43565b6001600160a01b031614610a015760405162461bcd60e51b815260206004820152601c60248201527f4e6f7420746865206f776e6572206f66207468652063686170746572000000006044820152606401610881565b60058101805483919060ff19166001836002811115610a2257610a226136a0565b0217905550505050565b60008082806020019051810190610a439190613aa5565b91509150600080836001600160a01b03163484604051610a639190613af5565b60006040518083038185875af1925050503d8060008114610aa0576040519150601f19603f3d011682016040523d82523d6000602084013e610aa5565b606091505b509150915081610ab757805160208201fd5b6010805460019190600090610ad69084906001600160401b0316613b27565b92506101000a8154816001600160401b0302191690836001600160401b031602179055505050505050565b60405162461bcd60e51b815260206004820152600b60248201526a139bdd08185b1b1bddd95960aa1b6044820152606401610881565b600960205260009081526040902080546001820154600283015460038401805493946001600160a01b0390931693919291610b7190613a09565b80601f0160208091040260200160405190810160405280929190818152602001828054610b9d90613a09565b8015610bea5780601f10610bbf57610100808354040283529160200191610bea565b820191906000526020600020905b815481529060010190602001808311610bcd57829003601f168201915b50505050600483015460059093015491929160ff16905086565b610c0f816001610927565b50565b600082815260066020526040902060010154610c2d81611ba5565b6109228383611baf565b6001600160a01b0381163314610ca75760405162461bcd60e51b815260206004820152602f60248201527f416363657373436f6e74726f6c3a2063616e206f6e6c792072656e6f756e636560448201526e103937b632b9903337b91039b2b63360891b6064820152608401610881565b610cb18282611c35565b5050565b600c6020528160005260406000208181548110610cd157600080fd5b90600052602060002001600091509150505481565b6000805b6000838152600c6020526040902054811015610df9576000838152600c602052604081208054600b91839185908110610d2557610d25613b47565b60009182526020808320909101548352828101939093526040918201902081516080810183528154815260018201546001600160a01b0316938101939093526002808201549284019290925260038101549091606084019160ff1690811115610d9057610d906136a0565b6002811115610da157610da16136a0565b815250509050846001600160a01b031681602001516001600160a01b031603610de657600181606001516002811115610ddc57610ddc6136a0565b149250505061074e565b5080610df181613b5d565b915050610cea565b5060009392505050565b6000818152600260205260408120546001600160a01b03168061074e5760405162461bcd60e51b8152602060048201526018602482015277115490cdcc8c4e881a5b9d985b1a59081d1bdad95b88125160421b6044820152606401610881565b600a6020528160005260406000208181548110610cd157600080fd5b60006001600160a01b038216610ee95760405162461bcd60e51b815260206004820152602960248201527f4552433732313a2061646472657373207a65726f206973206e6f7420612076616044820152683634b21037bbb732b960b91b6064820152608401610881565b506001600160a01b031660009081526003602052604090205490565b600061074e3383610ce6565b60009182526006602090815260408084206001600160a01b0393909316845291905290205460ff1690565b60606001805461076390613a09565b610cb1338383611c9c565b610f603383611d6a565b610fc25760405162461bcd60e51b815260206004820152602d60248201527f4552433732313a2063616c6c6572206973206e6f7420746f6b656e206f776e6560448201526c1c881bdc88185c1c1c9bdd9959609a1b6064820152608401610881565b610fce84848484611de8565b50505050565b6000818152600a6020526040812054606091906001600160401b03811115610ffe57610ffe613560565b60405190808252806020026020018201604052801561103757816020015b6110246133e4565b81526020019060019003908161101c5790505b50905060005b6000848152600a60205260409020548110156111de576000848152600a60205260408120805460099291908490811061107857611078613b47565b906000526020600020015481526020019081526020016000206040518060c0016040529081600082015481526020016001820160009054906101000a90046001600160a01b03166001600160a01b03166001600160a01b03168152602001600282015481526020016003820180546110ef90613a09565b80601f016020809104026020016040519081016040528092919081815260200182805461111b90613a09565b80156111685780601f1061113d57610100808354040283529160200191611168565b820191906000526020600020905b81548152906001019060200180831161114b57829003601f168201915b505050918352505060048201546020820152600582015460409091019060ff166002811115611199576111996136a0565b60028111156111aa576111aa6136a0565b815250508282815181106111c0576111c0613b47565b602002602001018190525080806111d690613b5d565b91505061103d565b5092915050565b6000828152600b602052604090819020600d54600282015492516331a9108f60e11b81526004810193909352909133916001600160a01b031690636352211e90602401602060405180830381865afa158015611245573d6000803e3d6000fd5b505050506040513d601f19601f820116820180604052508101906112699190613a43565b6001600160a01b0316146112bf5760405162461bcd60e51b815260206004820152601c60248201527f4e6f7420746865206f776e6572206f66207468652063686170746572000000006044820152606401610881565b60038101805483919060ff19166001836002811115610a2257610a226136a0565b6000818152600c6020526040812054606091906001600160401b0381111561130a5761130a613560565b60405190808252806020026020018201604052801561136357816020015b6113506040805160808101825260008082526020820181905291810182905290606082015290565b8152602001906001900390816113285790505b50905060005b6000848152600c60205260409020548110156111de576000848152600c602052604081208054600b929190849081106113a4576113a4613b47565b60009182526020808320909101548352828101939093526040918201902081516080810183528154815260018201546001600160a01b0316938101939093526002808201549284019290925260038101549091606084019160ff169081111561140f5761140f6136a0565b6002811115611420576114206136a0565b8152505082828151811061143657611436613b47565b6020026020010181905250808061144c90613b5d565b915050611369565b606061145f82611ad8565b600061147660408051602081019091526000815290565b9050600081511161149657604051806020016040528060008152506114c1565b806114a084611e1b565b6040516020016114b1929190613b76565b6040516020818303038152906040525b9392505050565b60006114d360075490565b90506114de84610f05565b61153b5760405162461bcd60e51b815260206004820152602860248201527f596f7520617265206e6f742077686974656c697374656420666f7220746869736044820152671031b430b83a32b960c11b6064820152608401610881565b6040805160c0810182528281523360208083019182528284018881526060840188815260808501889052600060a086018190528781526009909352949091208351815591516001830180546001600160a01b0319166001600160a01b0390921691909117905551600282015591519091829160038201906115bc9082613bf3565b506080820151600482015560a082015160058201805460ff191660018360028111156115ea576115ea6136a0565b021790555050506000858152600a6020908152604082208054600181018255908352912001829055611620600780546001019055565b5050505050565b610c0f816002610927565b6060600084848460405160240161164b93929190613cb2565b60408051601f19818403018152918152602080830180516001600160e01b031663d117b8bd60e01b179052905191925060009161168c913091859101613cdb565b60408051601f19818403018152600e54600f5460e0850184526010546001600160401b031685526305f5e10060208601526203d090858501523060608601819052600060808701529351929550611740946001600160a01b0390921693909260a0830191906310498e9c906117059089906024016134b6565b604051602081830303815290604052915060e01b6020820180516001600160e01b038381831617835250505050815260200146815250611eae565b9695505050505050565b60008281526006602052604090206001015461176581611ba5565b6109228383611c35565b600061177a60085490565b60408051608081018252828152336020808301918252828401878152600060608501818152878252600b90935294909420835181559151600180840180546001600160a01b0319166001600160a01b0390931692909217909155935160028084019190915590516003830180549697509395869593949193919260ff199091169190849081111561180d5761180d6136a0565b021790555050506000838152600c6020908152604082208054600181018255908352912001829055610922600880546001019055565b80546001019055565b600080600061186b602060405180602001604052806000815250611899565b905061187681613cff565b9150600061188560048361196c565b50905061189181611f0e565b935050509091565b60606000806001600160981b016001600160a01b031685856040516020016118c2929190613d23565b60408051601f19818403018152908290526118dc91613af5565b600060405180830381855afa9150503d8060008114611917576040519150601f19603f3d011682016040523d82523d6000602084013e61191c565b606091505b5091509150816119645760405162461bcd60e51b81526020600482015260136024820152721c985b991bdb509e5d195cce8819985a5b1959606a1b6044820152606401610881565b949350505050565b6060806000806005600160981b016001600160a01b03168686604051602001611996929190613d50565b60408051601f19818403018152908290526119b091613af5565b600060405180830381855afa9150503d80600081146119eb576040519150601f19603f3d011682016040523d82523d6000602084013e6119f0565b606091505b509150915081611a425760405162461bcd60e51b815260206004820152601b60248201527f67656e207369676e696e67206b6579706169723a206661696c656400000000006044820152606401610881565b80806020019051810190611a569190613d70565b9350935050509250929050565b60006001600160e01b031982166380ac58cd60e01b1480611a9457506001600160e01b03198216635b5e139f60e01b145b8061074e57506301ffc9a760e01b6001600160e01b031983161461074e565b60006001600160e01b03198216637965db0b60e01b148061074e575061074e82611a63565b6000818152600260205260409020546001600160a01b0316610c0f5760405162461bcd60e51b8152602060048201526018602482015277115490cdcc8c4e881a5b9d985b1a59081d1bdad95b88125160421b6044820152606401610881565b600081815260046020526040902080546001600160a01b0319166001600160a01b0384169081179091558190611b6c82610e03565b6001600160a01b03167f8c5be1e5ebec7d5bd14f71427d1e84f3dd0314c0f7b2291e5b200ac8c7c3b92560405160405180910390a45050565b610c0f8133611f2a565b611bb98282610f11565b610cb15760008281526006602090815260408083206001600160a01b03851684529091529020805460ff19166001179055611bf13390565b6001600160a01b0316816001600160a01b0316837f2f8788117e7eff1d82e926ec794901d17c78024a50270940304540a733656f0d60405160405180910390a45050565b611c3f8282610f11565b15610cb15760008281526006602090815260408083206001600160a01b0385168085529252808320805460ff1916905551339285917ff6391f5c32d9c69d2a47ea670b442974b53935d1edc7fd64eb21e047a839171b9190a45050565b816001600160a01b0316836001600160a01b031603611cfd5760405162461bcd60e51b815260206004820152601960248201527f4552433732313a20617070726f766520746f2063616c6c6572000000000000006044820152606401610881565b6001600160a01b03838116600081815260056020908152604080832094871680845294825291829020805460ff191686151590811790915591519182527f17307eab39ab6107e8899845ad3d59bd9653f200f220920489ca2b5937696c31910160405180910390a3505050565b600080611d7683610e03565b9050806001600160a01b0316846001600160a01b03161480611dbd57506001600160a01b0380821660009081526005602090815260408083209388168352929052205460ff165b806119645750836001600160a01b0316611dd6846107e6565b6001600160a01b031614949350505050565b611df3848484611f83565b611dff848484846120e7565b610fce5760405162461bcd60e51b815260040161088190613dc9565b60606000611e28836121e8565b60010190506000816001600160401b03811115611e4757611e47613560565b6040519080825280601f01601f191660200182016040528015611e71576020820181803683370190505b5090508181016020015b600019016f181899199a1a9b1b9c1cb0b131b232b360811b600a86061a8153600a8504945084611e7b575b509392505050565b60606000611ebd8386866122c0565b90508260c001516002611ed09190613e31565b601b8260400151611ee19190613e48565b611eeb9190613e5b565b611ef6906023613e5b565b6040820152611f058382612345565b95945050505050565b6000806000611f1c84612516565b91509150611964828261256d565b611f348282610f11565b610cb157611f41816125b5565b611f4c8360206125c7565b604051602001611f5d929190613e6e565b60408051601f198184030181529082905262461bcd60e51b8252610881916004016134b6565b826001600160a01b0316611f9682610e03565b6001600160a01b031614611fbc5760405162461bcd60e51b815260040161088190613ee3565b6001600160a01b03821661201e5760405162461bcd60e51b8152602060048201526024808201527f4552433732313a207472616e7366657220746f20746865207a65726f206164646044820152637265737360e01b6064820152608401610881565b826001600160a01b031661203182610e03565b6001600160a01b0316146120575760405162461bcd60e51b815260040161088190613ee3565b600081815260046020908152604080832080546001600160a01b03199081169091556001600160a01b0387811680865260038552838620805460001901905590871680865283862080546001019055868652600290945282852080549092168417909155905184937fddf252ad1be2c89b69c2b068fc378daa952ba7f163c4a11628f55a4df523b3ef91a4505050565b60006001600160a01b0384163b156121dd57604051630a85bd0160e11b81526001600160a01b0385169063150b7a029061212b903390899088908890600401613f28565b6020604051808303816000875af1925050508015612166575060408051601f3d908101601f1916820190925261216391810190613f5b565b60015b6121c3573d808015612194576040519150601f19603f3d011682016040523d82523d6000602084013e612199565b606091505b5080516000036121bb5760405162461bcd60e51b815260040161088190613dc9565b805181602001fd5b6001600160e01b031916630a85bd0160e11b149050611964565b506001949350505050565b60008072184f03e93ff9f4daa797ed6e38ed64bf6a1f0160401b83106122275772184f03e93ff9f4daa797ed6e38ed64bf6a1f0160401b830492506040015b6d04ee2d6d415b85acef81000000008310612253576d04ee2d6d415b85acef8100000000830492506020015b662386f26fc10000831061227157662386f26fc10000830492506010015b6305f5e1008310612289576305f5e100830492506008015b612710831061229d57612710830492506004015b606483106122af576064830492506002015b600a831061074e5760010192915050565b6040805160608101825260008082526020820181905291810191909152600061230d8560405180606001604052806000801b81526020016000801b81526020018860c00151815250612345565b90506000816040516020016123229190613af5565b604051602081830303815290604052805190602001209050611740858583612762565b604080516009808252610140820190925260609160009190816020015b6060815260200190600190039081612362575050845190915061238d906001600160401b03166127e8565b816000815181106123a0576123a0613b47565b60200260200101819052506123b884602001516127e8565b816001815181106123cb576123cb613b47565b60200260200101819052506123ec84604001516001600160401b03166127e8565b816002815181106123ff576123ff613b47565b602002602001018190525061241784606001516127fb565b8160038151811061242a5761242a613b47565b602002602001018190525061244284608001516127e8565b8160048151811061245557612455613b47565b602002602001018190525061246d8460a0015161282f565b8160058151811061248057612480613b47565b602002602001018190525061249883604001516127e8565b816006815181106124ab576124ab613b47565b602090810291909101015282516124c1906127e8565b816007815181106124d4576124d4613b47565b60200260200101819052506124ef836020015160001c6127e8565b8160088151811061250257612502613b47565b60200260200101819052506119648161289e565b600080825160211461253b57604051636446a2c560e11b815260040160405180910390fd5b602183015191506125668360008151811061255857612558613b47565b016020015160f81c836128cb565b9050915091565b600080838360405160200161258c929190918252602082015260400190565b60408051808303601f1901815291905280516020909101206001600160a01b0316949350505050565b606061074e6001600160a01b03831660145b606060006125d6836002613e31565b6125e1906002613e5b565b6001600160401b038111156125f8576125f8613560565b6040519080825280601f01601f191660200182016040528015612622576020820181803683370190505b509050600360fc1b8160008151811061263d5761263d613b47565b60200101906001600160f81b031916908160001a905350600f60fb1b8160018151811061266c5761266c613b47565b60200101906001600160f81b031916908160001a9053506000612690846002613e31565b61269b906001613e5b565b90505b6001811115612713576f181899199a1a9b1b9c1cb0b131b232b360811b85600f16601081106126cf576126cf613b47565b1a60f81b8282815181106126e5576126e5613b47565b60200101906001600160f81b031916908160001a90535060049490941c9361270c81613f78565b905061269e565b5083156114c15760405162461bcd60e51b815260206004820181905260248201527f537472696e67733a20686578206c656e67746820696e73756666696369656e746044820152606401610881565b604080516060810182526000808252602082018190529181019190915260006127d060048560405160200161279991815260200190565b60408051601f1981840301815282825260208301889052910160408051601f19818403018152602083019091526000825290612967565b90506127db81612a2f565b9150611ea6858484612d9d565b606061074e6127f683612eb0565b61282f565b604051606082811b6bffffffffffffffffffffffff191660208301529061074e906034016040516020818303038152906040525b6060808251600114801561285d575060808360008151811061285357612853613b47565b016020015160f81c105b1561286957508161074e565b61287583516080612fe7565b83604051602001612887929190613b76565b604051602081830303815290604052905092915050565b606060006128ab83613195565b90506128b9815160c0612fe7565b816040516020016114b1929190613b76565b60008260ff166002141580156128e557508260ff16600314155b156129035760405163ab4be04160e01b815260040160405180910390fd5b6401000003d01960076401000003d0198085860985090890506129378163400000f4600160fe1b036401000003d0196132c5565b9050600261294860ff851683613e5b565b6129529190613f8f565b1561074e576114c1816401000003d019613e48565b60606000806006600160981b016001600160a01b0316878787876040516020016129949493929190613fa3565b60408051601f19818403018152908290526129ae91613af5565b600060405180830381855afa9150503d80600081146129e9576040519150601f19603f3d011682016040523d82523d6000602084013e6129ee565b606091505b5091509150816117405760405162461bcd60e51b815260206004820152600c60248201526b1cda59db8e8819985a5b195960a21b6044820152606401610881565b6040805160608101825260008082526020820181905291810191909152600882511015612a6f576040516386cd05c560e01b815260040160405180910390fd5b81600081518110612a8257612a82613b47565b6020910101516001600160f81b031916600360fc1b14612ab5576040516386cd05c560e01b815260040160405180910390fd5b81600281518110612ac857612ac8613b47565b6020910101516001600160f81b031916600160f91b14612afb576040516386cd05c560e01b815260040160405180910390fd5b600082600181518110612b1057612b10613b47565b602001015160f81c60f81b60f81c60ff169050600083600381518110612b3857612b38613b47565b016020015160f81c90506021811115612b64576040516386cd05c560e01b815260040160405180910390fd5b6000612b71826004613e5b565b9050600085612b81836001613e5b565b81518110612b9157612b91613b47565b016020015160f81c90506021811115612bbd576040516386cd05c560e01b815260040160405180910390fd5b858281518110612bcf57612bcf613b47565b6020910101516001600160f81b031916600160f91b14612c02576040516386cd05c560e01b815260040160405180910390fd5b83612c0d8285613e5b565b612c18906004613e5b565b14612c36576040516386cd05c560e01b815260040160405180910390fd5b612c41846002613e5b565b865114612c61576040516386cd05c560e01b815260040160405180910390fd5b612c6c600283613e5b565b915060046021849003612cd45786600481518110612c8c57612c8c613b47565b01602001516001600160f81b03191615612cb9576040516386cd05c560e01b815260040160405180910390fd5b612cc4600182613e5b565b9050612cd1600185613e48565b93505b81602103612d3657868381518110612cee57612cee613b47565b01602001516001600160f81b03191615612d1b576040516386cd05c560e01b815260040160405180910390fd5b612d26600184613e5b565b9250612d33600183613e48565b91505b60208188018101518489018201519091861015612d6957612d58866020613e48565b612d63906008613e31565b82901c91505b6020841015612d8a57612d7d846020613e48565b612d88906008613e31565b1c5b9087526020870152509395945050505050565b601b6040828101829052825160208085015183516000815291820180855287905292810193909352606083015260808201526001600160a01b0384169060019060a0016020604051602081039080840390855afa158015612e02573d6000803e3d6000fd5b505050602060405103516001600160a01b03161461092257601c6040828101829052825160208085015183516000815291820180855287905292810193909352606083015260808201526001600160a01b0384169060019060a0016020604051602081039080840390855afa158015612e7f573d6000803e3d6000fd5b505050602060405103516001600160a01b03161461092257604051634532600d60e01b815260040160405180910390fd5b6060600082604051602001612ec791815260200190565b604051602081830303815290604052905060005b6020811015612f1e57818181518110612ef657612ef6613b47565b01602001516001600160f81b031916600003612f1e5780612f1681613b5d565b915050612edb565b6000612f2b826020613e48565b6001600160401b03811115612f4257612f42613560565b6040519080825280601f01601f191660200182016040528015612f6c576020820181803683370190505b50905060005b8151811015612fde578383612f8681613b5d565b945081518110612f9857612f98613b47565b602001015160f81c60f81b828281518110612fb557612fb5613b47565b60200101906001600160f81b031916908160001a90535080612fd681613b5d565b915050612f72565b50949350505050565b606080603884101561304e576040805160018082528183019092529060208201818036833701905050905061301c8385613ff4565b60f81b8160008151811061303257613032613b47565b60200101906001600160f81b031916908160001a9053506114c1565b600060015b61305d818761400d565b15613083578161306c81613b5d565b925061307c905061010082613e31565b9050613053565b61308e826001613e5b565b6001600160401b038111156130a5576130a5613560565b6040519080825280601f01601f1916602001820160405280156130cf576020820181803683370190505b5092506130dc8583613ff4565b6130e7906037613ff4565b60f81b836000815181106130fd576130fd613b47565b60200101906001600160f81b031916908160001a905350600190505b81811161318b5761010061312d8284613e48565b61313990610100614105565b613143908861400d565b61314d9190613f8f565b60f81b83828151811061316257613162613b47565b60200101906001600160f81b031916908160001a9053508061318381613b5d565b915050613119565b5050905092915050565b606081516000036131b65760408051600080825260208201909252906111de565b6000805b83518110156131fd578381815181106131d5576131d5613b47565b602002602001015151826131e99190613e5b565b9150806131f581613b5d565b9150506131ba565b6000826001600160401b0381111561321757613217613560565b6040519080825280601f01601f191660200182016040528015613241576020820181803683370190505b50600092509050602081015b8551831015612fde57600086848151811061326a5761326a613b47565b60200260200101519050600060208201905061328883828451613387565b87858151811061329a5761329a613b47565b602002602001015151836132ae9190613e5b565b9250505082806132bd90613b5d565b93505061324d565b60408051602081810181905291810182905260608101919091526080810184905260a0810183905260c081018290526000908190819060059060e00160408051601f198184030181529082905261331b91613af5565b600060405180830381855afa9150503d8060008114613356576040519150601f19603f3d011682016040523d82523d6000602084013e61335b565b606091505b50915091508161337e5760405163102875ed60e01b815260040160405180910390fd5b61174081613cff565b8282825b602081106133c357815183526133a2602084613e5b565b92506133af602083613e5b565b91506133bc602082613e48565b905061338b565b905182516020929092036101000a6000190180199091169116179052505050565b6040518060c001604052806000815260200160006001600160a01b031681526020016000815260200160608152602001600081526020016000600281111561342e5761342e6136a0565b905290565b6001600160e01b031981168114610c0f57600080fd5b60006020828403121561345b57600080fd5b81356114c181613433565b60005b83811015613481578181015183820152602001613469565b50506000910152565b600081518084526134a2816020860160208601613466565b601f01601f19169290920160200192915050565b6020815260006114c1602083018461348a565b6000602082840312156134db57600080fd5b5035919050565b6001600160a01b0381168114610c0f57600080fd5b6000806040838503121561350a57600080fd5b8235613515816134e2565b946020939093013593505050565b60038110610c0f57600080fd5b6000806040838503121561354357600080fd5b82359150602083013561355581613523565b809150509250929050565b634e487b7160e01b600052604160045260246000fd5b604051601f8201601f191681016001600160401b038111828210171561359e5761359e613560565b604052919050565b60006001600160401b038211156135bf576135bf613560565b50601f01601f191660200190565b60006135e06135db846135a6565b613576565b90508281528383830111156135f457600080fd5b828260208301376000602084830101529392505050565b600082601f83011261361c57600080fd5b6114c1838335602085016135cd565b60006020828403121561363d57600080fd5b81356001600160401b0381111561365357600080fd5b6119648482850161360b565b60008060006060848603121561367457600080fd5b833561367f816134e2565b9250602084013561368f816134e2565b929592945050506040919091013590565b634e487b7160e01b600052602160045260246000fd5b60038110610c0f57610c0f6136a0565b86815260018060a01b038616602082015284604082015260c0606082015260006136f360c083018661348a565b9050836080830152613704836136b6565b8260a0830152979650505050505050565b6000806040838503121561372857600080fd5b823591506020830135613555816134e2565b6000806040838503121561374d57600080fd5b50508035926020909101359150565b60006020828403121561376e57600080fd5b81356114c1816134e2565b6000806040838503121561378c57600080fd5b8235613797816134e2565b91506020830135801515811461355557600080fd5b600080600080608085870312156137c257600080fd5b84356137cd816134e2565b935060208501356137dd816134e2565b92506040850135915060608501356001600160401b038111156137ff57600080fd5b61380b8782880161360b565b91505092959194509250565b60006020808301818452808551808352604092508286019150828160051b87010184880160005b838110156138bf57888303603f19018552815180518452878101516001600160a01b031688850152868101518785015260608082015160c0828701819052919061388a8388018261348a565b92505050608080830151818701525060a08083015192506138aa836136b6565b9490940152938601939086019060010161383e565b509098975050505050505050565b602080825282518282018190526000919060409081850190868401855b8281101561393657815180518552868101516001600160a01b031687860152858101518686015260609081015190613921826136b6565b850152608090930192908501906001016138ea565b5091979650505050505050565b60008060006060848603121561395857600080fd5b8335925060208401356001600160401b0381111561397557600080fd5b8401601f8101861361398657600080fd5b613995868235602084016135cd565b925050604084013590509250925092565b8481526001600160a01b038416602082015260408101839052608081016139cc836136b6565b82606083015295945050505050565b600080604083850312156139ee57600080fd5b82356139f9816134e2565b91506020830135613555816134e2565b600181811c90821680613a1d57607f821691505b602082108103613a3d57634e487b7160e01b600052602260045260246000fd5b50919050565b600060208284031215613a5557600080fd5b81516114c1816134e2565b600082601f830112613a7157600080fd5b8151613a7f6135db826135a6565b818152846020838601011115613a9457600080fd5b611964826020830160208701613466565b60008060408385031215613ab857600080fd5b8251613ac3816134e2565b60208401519092506001600160401b03811115613adf57600080fd5b613aeb85828601613a60565b9150509250929050565b60008251613b07818460208701613466565b9190910192915050565b634e487b7160e01b600052601160045260246000fd5b6001600160401b038181168382160190808211156111de576111de613b11565b634e487b7160e01b600052603260045260246000fd5b600060018201613b6f57613b6f613b11565b5060010190565b60008351613b88818460208801613466565b835190830190613b9c818360208801613466565b01949350505050565b601f82111561092257600081815260208120601f850160051c81016020861015613bcc5750805b601f850160051c820191505b81811015613beb57828155600101613bd8565b505050505050565b81516001600160401b03811115613c0c57613c0c613560565b613c2081613c1a8454613a09565b84613ba5565b602080601f831160018114613c555760008415613c3d5750858301515b600019600386901b1c1916600185901b178555613beb565b600085815260208120601f198616915b82811015613c8457888601518255948401946001909101908401613c65565b5085821015613ca25787850151600019600388901b60f8161c191681555b5050505050600190811b01905550565b838152606060208201526000613ccb606083018561348a565b9050826040830152949350505050565b6001600160a01b03831681526040602082018190526000906119649083018461348a565b80516020808301519190811015613a3d5760001960209190910360031b1b16919050565b828152604060208201526000611964604083018461348a565b60098110613d4c57613d4c6136a0565b9052565b613d5a8184613d3c565b604060208201526000611964604083018461348a565b60008060408385031215613d8357600080fd5b82516001600160401b0380821115613d9a57600080fd5b613da686838701613a60565b93506020850151915080821115613dbc57600080fd5b50613aeb85828601613a60565b60208082526032908201527f4552433732313a207472616e7366657220746f206e6f6e20455243373231526560408201527131b2b4bb32b91034b6b83632b6b2b73a32b960711b606082015260800190565b634e487b7160e01b600052601260045260246000fd5b808202811582820484141761074e5761074e613b11565b8181038181111561074e5761074e613b11565b8082018082111561074e5761074e613b11565b7f416363657373436f6e74726f6c3a206163636f756e7420000000000000000000815260008351613ea6816017850160208801613466565b7001034b99036b4b9b9b4b733903937b6329607d1b6017918401918201528351613ed7816028840160208801613466565b01602801949350505050565b60208082526025908201527f4552433732313a207472616e736665722066726f6d20696e636f72726563742060408201526437bbb732b960d91b606082015260800190565b6001600160a01b03858116825284166020820152604081018390526080606082018190526000906117409083018461348a565b600060208284031215613f6d57600080fd5b81516114c181613433565b600081613f8757613f87613b11565b506000190190565b600082613f9e57613f9e613e1b565b500690565b613fad8186613d3c565b608060208201526000613fc3608083018661348a565b8281036040840152613fd5818661348a565b90508281036060840152613fe9818561348a565b979650505050505050565b60ff818116838216019081111561074e5761074e613b11565b60008261401c5761401c613e1b565b500490565b600181815b8085111561405c57816000190482111561404257614042613b11565b8085161561404f57918102915b93841c9390800290614026565b509250929050565b6000826140735750600161074e565b816140805750600061074e565b816001811461409657600281146140a0576140bc565b600191505061074e565b60ff8411156140b1576140b1613b11565b50506001821b61074e565b5060208310610133831016604e8410600b84101617156140df575081810a61074e565b6140e98383614021565b80600019048211156140fd576140fd613b11565b029392505050565b60006114c1838361406456fea2646970667358221220ec8a18933c4b9eb7f6f78653067e28e1d8b0938c95bfd8afe1a6e7bd88c0a64764736f6c63430008110033",
  "linkReferences": {},
  "deployedLinkReferences": {}
}