{
  "_format": "hh-sol-artifact-1",
  "contractName": "Feedback",
  "sourceName": "contracts/Feedback.sol",
  "abi": [
    {
      "inputs": [
        {
          "internalType": "address",
          "name": "_chapterContractAddress",
          "type": "address"
        }
      ],
      "stateMutability": "nonpayable",
      "type": "constructor"
    },
    {
      "anonymous": false,
      "inputs": [
        {
          "indexed": true,
          "internalType": "address",
          "name": "owner",
          "type": "address"
        },
        {
          "indexed": true,
          "internalType": "address",
          "name": "approved",
          "type": "address"
        },
        {
          "indexed": true,
          "internalType": "uint256",
          "name": "tokenId",
          "type": "uint256"
        }
      ],
      "name": "Approval",
      "type": "event"
    },
    {
      "anonymous": false,
      "inputs": [
        {
          "indexed": true,
          "internalType": "address",
          "name": "owner",
          "type": "address"
        },
        {
          "indexed": true,
          "internalType": "address",
          "name": "operator",
          "type": "address"
        },
        {
          "indexed": false,
          "internalType": "bool",
          "name": "approved",
          "type": "bool"
        }
      ],
      "name": "ApprovalForAll",
      "type": "event"
    },
    {
      "anonymous": false,
      "inputs": [
        {
          "indexed": true,
          "internalType": "bytes32",
          "name": "role",
          "type": "bytes32"
        },
        {
          "indexed": true,
          "internalType": "bytes32",
          "name": "previousAdminRole",
          "type": "bytes32"
        },
        {
          "indexed": true,
          "internalType": "bytes32",
          "name": "newAdminRole",
          "type": "bytes32"
        }
      ],
      "name": "RoleAdminChanged",
      "type": "event"
    },
    {
      "anonymous": false,
      "inputs": [
        {
          "indexed": true,
          "internalType": "bytes32",
          "name": "role",
          "type": "bytes32"
        },
        {
          "indexed": true,
          "internalType": "address",
          "name": "account",
          "type": "address"
        },
        {
          "indexed": true,
          "internalType": "address",
          "name": "sender",
          "type": "address"
        }
      ],
      "name": "RoleGranted",
      "type": "event"
    },
    {
      "anonymous": false,
      "inputs": [
        {
          "indexed": true,
          "internalType": "bytes32",
          "name": "role",
          "type": "bytes32"
        },
        {
          "indexed": true,
          "internalType": "address",
          "name": "account",
          "type": "address"
        },
        {
          "indexed": true,
          "internalType": "address",
          "name": "sender",
          "type": "address"
        }
      ],
      "name": "RoleRevoked",
      "type": "event"
    },
    {
      "anonymous": false,
      "inputs": [
        {
          "indexed": true,
          "internalType": "address",
          "name": "from",
          "type": "address"
        },
        {
          "indexed": true,
          "internalType": "address",
          "name": "to",
          "type": "address"
        },
        {
          "indexed": true,
          "internalType": "uint256",
          "name": "tokenId",
          "type": "uint256"
        }
      ],
      "name": "Transfer",
      "type": "event"
    },
    {
      "inputs": [],
      "name": "DEFAULT_ADMIN_ROLE",
      "outputs": [
        {
          "internalType": "bytes32",
          "name": "",
          "type": "bytes32"
        }
      ],
      "stateMutability": "view",
      "type": "function"
    },
    {
      "inputs": [
        {
          "internalType": "uint256",
          "name": "_feedbackId",
          "type": "uint256"
        }
      ],
      "name": "acceptFeedback",
      "outputs": [],
      "stateMutability": "nonpayable",
      "type": "function"
    },
    {
      "inputs": [
        {
          "internalType": "uint256",
          "name": "_chapterId",
          "type": "uint256"
        }
      ],
      "name": "applyToWhitelist",
      "outputs": [],
      "stateMutability": "nonpayable",
      "type": "function"
    },
    {
      "inputs": [
        {
          "internalType": "address",
          "name": "to",
          "type": "address"
        },
        {
          "internalType": "uint256",
          "name": "tokenId",
          "type": "uint256"
        }
      ],
      "name": "approve",
      "outputs": [],
      "stateMutability": "nonpayable",
      "type": "function"
    },
    {
      "inputs": [
        {
          "internalType": "address",
          "name": "owner",
          "type": "address"
        }
      ],
      "name": "balanceOf",
      "outputs": [
        {
          "internalType": "uint256",
          "name": "",
          "type": "uint256"
        }
      ],
      "stateMutability": "view",
      "type": "function"
    },
    {
      "inputs": [
        {
          "internalType": "uint256",
          "name": "_feedbackId",
          "type": "uint256"
        },
        {
          "internalType": "enum Feedback.FeedbackStatus",
          "name": "_status",
          "type": "uint8"
        }
      ],
      "name": "changeFeedbackStatus",
      "outputs": [],
      "stateMutability": "nonpayable",
      "type": "function"
    },
    {
      "inputs": [
        {
          "internalType": "uint256",
          "name": "_waitingListId",
          "type": "uint256"
        },
        {
          "internalType": "enum Feedback.WaitingListStatus",
          "name": "_status",
          "type": "uint8"
        }
      ],
      "name": "changeWhiteListStatus",
      "outputs": [],
      "stateMutability": "nonpayable",
      "type": "function"
    },
    {
      "inputs": [
        {
          "internalType": "uint256",
          "name": "",
          "type": "uint256"
        },
        {
          "internalType": "uint256",
          "name": "",
          "type": "uint256"
        }
      ],
      "name": "chapterFeedbacks",
      "outputs": [
        {
          "internalType": "uint256",
          "name": "",
          "type": "uint256"
        }
      ],
      "stateMutability": "view",
      "type": "function"
    },
    {
      "inputs": [],
      "name": "chapterIdContract",
      "outputs": [
        {
          "internalType": "contract IChapter",
          "name": "",
          "type": "address"
        }
      ],
      "stateMutability": "view",
      "type": "function"
    },
    {
      "inputs": [
        {
          "internalType": "uint256",
          "name": "",
          "type": "uint256"
        },
        {
          "internalType": "uint256",
          "name": "",
          "type": "uint256"
        }
      ],
      "name": "chapterWaitingLists",
      "outputs": [
        {
          "internalType": "uint256",
          "name": "",
          "type": "uint256"
        }
      ],
      "stateMutability": "view",
      "type": "function"
    },
    {
      "inputs": [
        {
          "internalType": "uint256",
          "name": "_chapterId",
          "type": "uint256"
        },
        {
          "internalType": "string",
          "name": "_content",
          "type": "string"
        },
        {
          "internalType": "uint256",
          "name": "_rating",
          "type": "uint256"
        }
      ],
      "name": "createFeedback",
      "outputs": [],
      "stateMutability": "nonpayable",
      "type": "function"
    },
    {
      "inputs": [
        {
          "internalType": "uint256",
          "name": "",
          "type": "uint256"
        }
      ],
      "name": "feedbacks",
      "outputs": [
        {
          "internalType": "uint256",
          "name": "id",
          "type": "uint256"
        },
        {
          "internalType": "address",
          "name": "owner",
          "type": "address"
        },
        {
          "internalType": "uint256",
          "name": "chapterId",
          "type": "uint256"
        },
        {
          "internalType": "string",
          "name": "content",
          "type": "string"
        },
        {
          "internalType": "uint256",
          "name": "rating",
          "type": "uint256"
        },
        {
          "internalType": "enum Feedback.FeedbackStatus",
          "name": "status",
          "type": "uint8"
        }
      ],
      "stateMutability": "view",
      "type": "function"
    },
    {
      "inputs": [
        {
          "internalType": "uint256",
          "name": "_chapterId",
          "type": "uint256"
        }
      ],
      "name": "getAllFeedbacks",
      "outputs": [
        {
          "components": [
            {
              "internalType": "uint256",
              "name": "id",
              "type": "uint256"
            },
            {
              "internalType": "address",
              "name": "owner",
              "type": "address"
            },
            {
              "internalType": "uint256",
              "name": "chapterId",
              "type": "uint256"
            },
            {
              "internalType": "string",
              "name": "content",
              "type": "string"
            },
            {
              "internalType": "uint256",
              "name": "rating",
              "type": "uint256"
            },
            {
              "internalType": "enum Feedback.FeedbackStatus",
              "name": "status",
              "type": "uint8"
            }
          ],
          "internalType": "struct Feedback.FeedbackDetails[]",
          "name": "",
          "type": "tuple[]"
        }
      ],
      "stateMutability": "view",
      "type": "function"
    },
    {
      "inputs": [
        {
          "internalType": "uint256",
          "name": "tokenId",
          "type": "uint256"
        }
      ],
      "name": "getApproved",
      "outputs": [
        {
          "internalType": "address",
          "name": "",
          "type": "address"
        }
      ],
      "stateMutability": "view",
      "type": "function"
    },
    {
      "inputs": [
        {
          "internalType": "bytes32",
          "name": "role",
          "type": "bytes32"
        }
      ],
      "name": "getRoleAdmin",
      "outputs": [
        {
          "internalType": "bytes32",
          "name": "",
          "type": "bytes32"
        }
      ],
      "stateMutability": "view",
      "type": "function"
    },
    {
      "inputs": [
        {
          "internalType": "bytes32",
          "name": "role",
          "type": "bytes32"
        },
        {
          "internalType": "address",
          "name": "account",
          "type": "address"
        }
      ],
      "name": "grantRole",
      "outputs": [],
      "stateMutability": "nonpayable",
      "type": "function"
    },
    {
      "inputs": [
        {
          "internalType": "bytes32",
          "name": "role",
          "type": "bytes32"
        },
        {
          "internalType": "address",
          "name": "account",
          "type": "address"
        }
      ],
      "name": "hasRole",
      "outputs": [
        {
          "internalType": "bool",
          "name": "",
          "type": "bool"
        }
      ],
      "stateMutability": "view",
      "type": "function"
    },
    {
      "inputs": [
        {
          "internalType": "address",
          "name": "owner",
          "type": "address"
        },
        {
          "internalType": "address",
          "name": "operator",
          "type": "address"
        }
      ],
      "name": "isApprovedForAll",
      "outputs": [
        {
          "internalType": "bool",
          "name": "",
          "type": "bool"
        }
      ],
      "stateMutability": "view",
      "type": "function"
    },
    {
      "inputs": [
        {
          "internalType": "uint256",
          "name": "_chapterId",
          "type": "uint256"
        }
      ],
      "name": "isWhitelisted",
      "outputs": [
        {
          "internalType": "bool",
          "name": "",
          "type": "bool"
        }
      ],
      "stateMutability": "view",
      "type": "function"
    },
    {
      "inputs": [],
      "name": "name",
      "outputs": [
        {
          "internalType": "string",
          "name": "",
          "type": "string"
        }
      ],
      "stateMutability": "view",
      "type": "function"
    },
    {
      "inputs": [
        {
          "internalType": "uint256",
          "name": "tokenId",
          "type": "uint256"
        }
      ],
      "name": "ownerOf",
      "outputs": [
        {
          "internalType": "address",
          "name": "",
          "type": "address"
        }
      ],
      "stateMutability": "view",
      "type": "function"
    },
    {
      "inputs": [
        {
          "internalType": "uint256",
          "name": "_feedbackId",
          "type": "uint256"
        }
      ],
      "name": "rejectFeedback",
      "outputs": [],
      "stateMutability": "nonpayable",
      "type": "function"
    },
    {
      "inputs": [
        {
          "internalType": "bytes32",
          "name": "role",
          "type": "bytes32"
        },
        {
          "internalType": "address",
          "name": "account",
          "type": "address"
        }
      ],
      "name": "renounceRole",
      "outputs": [],
      "stateMutability": "nonpayable",
      "type": "function"
    },
    {
      "inputs": [
        {
          "internalType": "bytes32",
          "name": "role",
          "type": "bytes32"
        },
        {
          "internalType": "address",
          "name": "account",
          "type": "address"
        }
      ],
      "name": "revokeRole",
      "outputs": [],
      "stateMutability": "nonpayable",
      "type": "function"
    },
    {
      "inputs": [
        {
          "internalType": "address",
          "name": "from",
          "type": "address"
        },
        {
          "internalType": "address",
          "name": "to",
          "type": "address"
        },
        {
          "internalType": "uint256",
          "name": "tokenId",
          "type": "uint256"
        }
      ],
      "name": "safeTransferFrom",
      "outputs": [],
      "stateMutability": "nonpayable",
      "type": "function"
    },
    {
      "inputs": [
        {
          "internalType": "address",
          "name": "from",
          "type": "address"
        },
        {
          "internalType": "address",
          "name": "to",
          "type": "address"
        },
        {
          "internalType": "uint256",
          "name": "tokenId",
          "type": "uint256"
        },
        {
          "internalType": "bytes",
          "name": "data",
          "type": "bytes"
        }
      ],
      "name": "safeTransferFrom",
      "outputs": [],
      "stateMutability": "nonpayable",
      "type": "function"
    },
    {
      "inputs": [
        {
          "internalType": "address",
          "name": "operator",
          "type": "address"
        },
        {
          "internalType": "bool",
          "name": "approved",
          "type": "bool"
        }
      ],
      "name": "setApprovalForAll",
      "outputs": [],
      "stateMutability": "nonpayable",
      "type": "function"
    },
    {
      "inputs": [
        {
          "internalType": "bytes4",
          "name": "interfaceId",
          "type": "bytes4"
        }
      ],
      "name": "supportsInterface",
      "outputs": [
        {
          "internalType": "bool",
          "name": "",
          "type": "bool"
        }
      ],
      "stateMutability": "view",
      "type": "function"
    },
    {
      "inputs": [],
      "name": "symbol",
      "outputs": [
        {
          "internalType": "string",
          "name": "",
          "type": "string"
        }
      ],
      "stateMutability": "view",
      "type": "function"
    },
    {
      "inputs": [
        {
          "internalType": "uint256",
          "name": "tokenId",
          "type": "uint256"
        }
      ],
      "name": "tokenURI",
      "outputs": [
        {
          "internalType": "string",
          "name": "",
          "type": "string"
        }
      ],
      "stateMutability": "view",
      "type": "function"
    },
    {
      "inputs": [
        {
          "internalType": "address",
          "name": "from",
          "type": "address"
        },
        {
          "internalType": "address",
          "name": "to",
          "type": "address"
        },
        {
          "internalType": "uint256",
          "name": "tokenId",
          "type": "uint256"
        }
      ],
      "name": "transferFrom",
      "outputs": [],
      "stateMutability": "nonpayable",
      "type": "function"
    },
    {
      "inputs": [
        {
          "internalType": "uint256",
          "name": "",
          "type": "uint256"
        }
      ],
      "name": "waitingList",
      "outputs": [
        {
          "internalType": "uint256",
          "name": "id",
          "type": "uint256"
        },
        {
          "internalType": "address",
          "name": "owner",
          "type": "address"
        },
        {
          "internalType": "uint256",
          "name": "chapterId",
          "type": "uint256"
        },
        {
          "internalType": "enum Feedback.WaitingListStatus",
          "name": "status",
          "type": "uint8"
        }
      ],
      "stateMutability": "view",
      "type": "function"
    }
  ],
  "bytecode": "0x60806040523480156200001157600080fd5b5060405162002803380380620028038339810160408190526200003491620000f0565b6040518060400160405280600a81526020016911995959189858dad25160b21b8152506040518060400160405280600381526020016246424960e81b8152508160009081620000849190620001c7565b506001620000938282620001c7565b5050600d80546001600160a01b0319166001600160a01b03841617905550620000c96007620000e7602090811b6200119417901c565b620000e06008620000e760201b620011941760201c565b5062000293565b80546001019055565b6000602082840312156200010357600080fd5b81516001600160a01b03811681146200011b57600080fd5b9392505050565b634e487b7160e01b600052604160045260246000fd5b600181811c908216806200014d57607f821691505b6020821081036200016e57634e487b7160e01b600052602260045260246000fd5b50919050565b601f821115620001c257600081815260208120601f850160051c810160208610156200019d5750805b601f850160051c820191505b81811015620001be57828155600101620001a9565b5050505b505050565b81516001600160401b03811115620001e357620001e362000122565b620001fb81620001f4845462000138565b8462000174565b602080601f8311600181146200023357600084156200021a5750858301515b600019600386901b1c1916600185901b178555620001be565b600085815260208120601f198616915b82811015620002645788860151825594840194600190910190840162000243565b5085821015620002835787850151600019600388901b60f8161c191681555b5050505050600190811b01905550565b61256080620002a36000396000f3fe608060405234801561001057600080fd5b50600436106101f05760003560e01c806370a082311161010f578063c1d738a6116100a2578063d547741f11610071578063d547741f1461044e578063e148ca3914610461578063e7a20f3f14610474578063e985e9c5146104c657600080fd5b8063c1d738a614610402578063c87b56dd14610415578063d117b8bd14610428578063d20eb0161461043b57600080fd5b8063a217fddf116100de578063a217fddf146103b4578063a22cb465146103bc578063b88d4fde146103cf578063bfa121eb146103e257600080fd5b806370a0823114610373578063751b02c21461038657806391d148541461039957806395d89b41146103ac57600080fd5b80632dc12c5311610187578063442886d411610156578063442886d4146103275780635c9698771461033a5780636352211e1461034d5780636f15561d1461036057600080fd5b80632dc12c53146102ee5780632f2ff15d1461030157806336568abe1461031457806342842e0e1461028557600080fd5b80630a98140c116101c35780630a98140c1461027257806323b872dd14610285578063248a9ca3146102985780632bb8b0dc146102c957600080fd5b806301ffc9a7146101f557806306fdde031461021d578063081812fc14610232578063095ea7b31461025d575b600080fd5b610208610203366004611caf565b610502565b60405190151581526020015b60405180910390f35b610225610522565b6040516102149190611d1c565b610245610240366004611d2f565b6105b4565b6040516001600160a01b039091168152602001610214565b61027061026b366004611d5d565b6105db565b005b610270610280366004611d96565b6106f5565b610270610293366004611dc6565b6107fa565b6102bb6102a6366004611d2f565b60009081526006602052604090206001015490565b604051908152602001610214565b6102dc6102d7366004611d2f565b610830565b60405161021496959493929190611e3b565b6102706102fc366004611d2f565b6108fd565b61027061030f366004611e8a565b61090b565b610270610322366004611e8a565b610930565b600d54610245906001600160a01b031681565b6102bb610348366004611eaf565b6109ae565b61024561035b366004611d2f565b6109df565b6102bb61036e366004611eaf565b610a3f565b6102bb610381366004611ed1565b610a5b565b610208610394366004611d2f565b610ae1565b6102086103a7366004611e8a565b610aed565b610225610b18565b6102bb600081565b6102706103ca366004611eee565b610b27565b6102706103dd366004611fad565b610b32565b6103f56103f0366004611d2f565b610bb0565b604051610214919061202d565b610270610410366004611d96565b610dc2565b610225610423366004611d2f565b610ebd565b6102706104363660046120e3565b610f31565b610270610449366004611d2f565b611090565b61027061045c366004611e8a565b61109b565b61027061046f366004611d2f565b6110c0565b6104b6610482366004611d2f565b600b60205260009081526040902080546001820154600283015460039093015491926001600160a01b039091169160ff1684565b6040516102149493929190612147565b6102086104d436600461217c565b6001600160a01b03918216600090815260056020908152604080832093909416825291909152205460ff1690565b600061050d8261119d565b8061051c575061051c826111ed565b92915050565b606060008054610531906121aa565b80601f016020809104026020016040519081016040528092919081815260200182805461055d906121aa565b80156105aa5780601f1061057f576101008083540402835291602001916105aa565b820191906000526020600020905b81548152906001019060200180831161058d57829003601f168201915b5050505050905090565b60006105bf82611212565b506000908152600460205260409020546001600160a01b031690565b60006105e6826109df565b9050806001600160a01b0316836001600160a01b0316036106585760405162461bcd60e51b815260206004820152602160248201527f4552433732313a20617070726f76616c20746f2063757272656e74206f776e656044820152603960f91b60648201526084015b60405180910390fd5b336001600160a01b0382161480610674575061067481336104d4565b6106e65760405162461bcd60e51b815260206004820152603d60248201527f4552433732313a20617070726f76652063616c6c6572206973206e6f7420746f60448201527f6b656e206f776e6572206f7220617070726f76656420666f7220616c6c000000606482015260840161064f565b6106f08383611271565b505050565b60008281526009602052604090819020600d54600282015492516331a9108f60e11b81526004810193909352909133916001600160a01b031690636352211e90602401602060405180830381865afa158015610755573d6000803e3d6000fd5b505050506040513d601f19601f8201168201806040525081019061077991906121e4565b6001600160a01b0316146107cf5760405162461bcd60e51b815260206004820152601c60248201527f4e6f7420746865206f776e6572206f6620746865206368617074657200000000604482015260640161064f565b60058101805483919060ff191660018360028111156107f0576107f0611e07565b0217905550505050565b60405162461bcd60e51b815260206004820152600b60248201526a139bdd08185b1b1bddd95960aa1b604482015260640161064f565b600960205260009081526040902080546001820154600283015460038401805493946001600160a01b039093169391929161086a906121aa565b80601f0160208091040260200160405190810160405280929190818152602001828054610896906121aa565b80156108e35780601f106108b8576101008083540402835291602001916108e3565b820191906000526020600020905b8154815290600101906020018083116108c657829003601f168201915b50505050600483015460059093015491929160ff16905086565b6109088160016106f5565b50565b600082815260066020526040902060010154610926816112df565b6106f083836112e9565b6001600160a01b03811633146109a05760405162461bcd60e51b815260206004820152602f60248201527f416363657373436f6e74726f6c3a2063616e206f6e6c792072656e6f756e636560448201526e103937b632b9903337b91039b2b63360891b606482015260840161064f565b6109aa828261136f565b5050565b600c60205281600052604060002081815481106109ca57600080fd5b90600052602060002001600091509150505481565b6000818152600260205260408120546001600160a01b03168061051c5760405162461bcd60e51b8152602060048201526018602482015277115490cdcc8c4e881a5b9d985b1a59081d1bdad95b88125160421b604482015260640161064f565b600a60205281600052604060002081815481106109ca57600080fd5b60006001600160a01b038216610ac55760405162461bcd60e51b815260206004820152602960248201527f4552433732313a2061646472657373207a65726f206973206e6f7420612076616044820152683634b21037bbb732b960b91b606482015260840161064f565b506001600160a01b031660009081526003602052604090205490565b600061051c33836113d6565b60009182526006602090815260408084206001600160a01b0393909316845291905290205460ff1690565b606060018054610531906121aa565b6109aa3383836114f3565b610b3c33836115c1565b610b9e5760405162461bcd60e51b815260206004820152602d60248201527f4552433732313a2063616c6c6572206973206e6f7420746f6b656e206f776e6560448201526c1c881bdc88185c1c1c9bdd9959609a1b606482015260840161064f565b610baa84848484611640565b50505050565b6000818152600a60205260408120546060919067ffffffffffffffff811115610bdb57610bdb611f21565b604051908082528060200260200182016040528015610c1457816020015b610c01611c4a565b815260200190600190039081610bf95790505b50905060005b6000848152600a6020526040902054811015610dbb576000848152600a602052604081208054600992919084908110610c5557610c55612201565b906000526020600020015481526020019081526020016000206040518060c0016040529081600082015481526020016001820160009054906101000a90046001600160a01b03166001600160a01b03166001600160a01b0316815260200160028201548152602001600382018054610ccc906121aa565b80601f0160208091040260200160405190810160405280929190818152602001828054610cf8906121aa565b8015610d455780601f10610d1a57610100808354040283529160200191610d45565b820191906000526020600020905b815481529060010190602001808311610d2857829003601f168201915b505050918352505060048201546020820152600582015460409091019060ff166002811115610d7657610d76611e07565b6002811115610d8757610d87611e07565b81525050828281518110610d9d57610d9d612201565b60200260200101819052508080610db39061222d565b915050610c1a565b5092915050565b6000828152600b602052604090819020600d54600282015492516331a9108f60e11b81526004810193909352909133916001600160a01b031690636352211e90602401602060405180830381865afa158015610e22573d6000803e3d6000fd5b505050506040513d601f19601f82011682018060405250810190610e4691906121e4565b6001600160a01b031614610e9c5760405162461bcd60e51b815260206004820152601c60248201527f4e6f7420746865206f776e6572206f6620746865206368617074657200000000604482015260640161064f565b60038101805483919060ff191660018360028111156107f0576107f0611e07565b6060610ec882611212565b6000610edf60408051602081019091526000815290565b90506000815111610eff5760405180602001604052806000815250610f2a565b80610f0984611673565b604051602001610f1a929190612246565b6040516020818303038152906040525b9392505050565b6000610f3c60075490565b9050610f4784610ae1565b610fa45760405162461bcd60e51b815260206004820152602860248201527f596f7520617265206e6f742077686974656c697374656420666f7220746869736044820152671031b430b83a32b960c11b606482015260840161064f565b6040805160c0810182528281523360208083019182528284018881526060840188815260808501889052600060a086018190528781526009909352949091208351815591516001830180546001600160a01b0319166001600160a01b03909216919091179055516002820155915190918291600382019061102590826122c3565b506080820151600482015560a082015160058201805460ff1916600183600281111561105357611053611e07565b021790555050506000858152600a6020908152604082208054600181018255908352912001829055611089600780546001019055565b5050505050565b6109088160026106f5565b6000828152600660205260409020600101546110b6816112df565b6106f0838361136f565b60006110cb60075490565b60408051608081018252828152336020808301918252828401878152600060608501818152878252600b90935294909420835181559151600180840180546001600160a01b0319166001600160a01b0390931692909217909155935160028084019190915590516003830180549697509395869593949193919260ff199091169190849081111561115e5761115e611e07565b021790555050506000838152600c60209081526040822080546001810182559083529120018290556106f0600880546001019055565b80546001019055565b60006001600160e01b031982166380ac58cd60e01b14806111ce57506001600160e01b03198216635b5e139f60e01b145b8061051c57506301ffc9a760e01b6001600160e01b031983161461051c565b60006001600160e01b03198216637965db0b60e01b148061051c575061051c8261119d565b6000818152600260205260409020546001600160a01b03166109085760405162461bcd60e51b8152602060048201526018602482015277115490cdcc8c4e881a5b9d985b1a59081d1bdad95b88125160421b604482015260640161064f565b600081815260046020526040902080546001600160a01b0319166001600160a01b03841690811790915581906112a6826109df565b6001600160a01b03167f8c5be1e5ebec7d5bd14f71427d1e84f3dd0314c0f7b2291e5b200ac8c7c3b92560405160405180910390a45050565b6109088133611706565b6112f38282610aed565b6109aa5760008281526006602090815260408083206001600160a01b03851684529091529020805460ff1916600117905561132b3390565b6001600160a01b0316816001600160a01b0316837f2f8788117e7eff1d82e926ec794901d17c78024a50270940304540a733656f0d60405160405180910390a45050565b6113798282610aed565b156109aa5760008281526006602090815260408083206001600160a01b0385168085529252808320805460ff1916905551339285917ff6391f5c32d9c69d2a47ea670b442974b53935d1edc7fd64eb21e047a839171b9190a45050565b6000805b6000838152600c60205260409020548110156114e9576000838152600c602052604081208054600b9183918590811061141557611415612201565b60009182526020808320909101548352828101939093526040918201902081516080810183528154815260018201546001600160a01b0316938101939093526002808201549284019290925260038101549091606084019160ff169081111561148057611480611e07565b600281111561149157611491611e07565b815250509050846001600160a01b031681602001516001600160a01b0316036114d6576001816060015160028111156114cc576114cc611e07565b149250505061051c565b50806114e18161222d565b9150506113da565b5060009392505050565b816001600160a01b0316836001600160a01b0316036115545760405162461bcd60e51b815260206004820152601960248201527f4552433732313a20617070726f766520746f2063616c6c657200000000000000604482015260640161064f565b6001600160a01b03838116600081815260056020908152604080832094871680845294825291829020805460ff191686151590811790915591519182527f17307eab39ab6107e8899845ad3d59bd9653f200f220920489ca2b5937696c31910160405180910390a3505050565b6000806115cd836109df565b9050806001600160a01b0316846001600160a01b0316148061161457506001600160a01b0380821660009081526005602090815260408083209388168352929052205460ff165b806116385750836001600160a01b031661162d846105b4565b6001600160a01b0316145b949350505050565b61164b84848461175f565b611657848484846118c3565b610baa5760405162461bcd60e51b815260040161064f90612383565b60606000611680836119c4565b600101905060008167ffffffffffffffff8111156116a0576116a0611f21565b6040519080825280601f01601f1916602001820160405280156116ca576020820181803683370190505b5090508181016020015b600019016f181899199a1a9b1b9c1cb0b131b232b360811b600a86061a8153600a85049450846116d457509392505050565b6117108282610aed565b6109aa5761171d81611a9c565b611728836020611aae565b6040516020016117399291906123d5565b60408051601f198184030181529082905262461bcd60e51b825261064f91600401611d1c565b826001600160a01b0316611772826109df565b6001600160a01b0316146117985760405162461bcd60e51b815260040161064f9061244a565b6001600160a01b0382166117fa5760405162461bcd60e51b8152602060048201526024808201527f4552433732313a207472616e7366657220746f20746865207a65726f206164646044820152637265737360e01b606482015260840161064f565b826001600160a01b031661180d826109df565b6001600160a01b0316146118335760405162461bcd60e51b815260040161064f9061244a565b600081815260046020908152604080832080546001600160a01b03199081169091556001600160a01b0387811680865260038552838620805460001901905590871680865283862080546001019055868652600290945282852080549092168417909155905184937fddf252ad1be2c89b69c2b068fc378daa952ba7f163c4a11628f55a4df523b3ef91a4505050565b60006001600160a01b0384163b156119b957604051630a85bd0160e11b81526001600160a01b0385169063150b7a029061190790339089908890889060040161248f565b6020604051808303816000875af1925050508015611942575060408051601f3d908101601f1916820190925261193f918101906124cc565b60015b61199f573d808015611970576040519150601f19603f3d011682016040523d82523d6000602084013e611975565b606091505b5080516000036119975760405162461bcd60e51b815260040161064f90612383565b805181602001fd5b6001600160e01b031916630a85bd0160e11b149050611638565b506001949350505050565b60008072184f03e93ff9f4daa797ed6e38ed64bf6a1f0160401b8310611a035772184f03e93ff9f4daa797ed6e38ed64bf6a1f0160401b830492506040015b6d04ee2d6d415b85acef81000000008310611a2f576d04ee2d6d415b85acef8100000000830492506020015b662386f26fc100008310611a4d57662386f26fc10000830492506010015b6305f5e1008310611a65576305f5e100830492506008015b6127108310611a7957612710830492506004015b60648310611a8b576064830492506002015b600a831061051c5760010192915050565b606061051c6001600160a01b03831660145b60606000611abd8360026124e9565b611ac8906002612500565b67ffffffffffffffff811115611ae057611ae0611f21565b6040519080825280601f01601f191660200182016040528015611b0a576020820181803683370190505b509050600360fc1b81600081518110611b2557611b25612201565b60200101906001600160f81b031916908160001a905350600f60fb1b81600181518110611b5457611b54612201565b60200101906001600160f81b031916908160001a9053506000611b788460026124e9565b611b83906001612500565b90505b6001811115611bfb576f181899199a1a9b1b9c1cb0b131b232b360811b85600f1660108110611bb757611bb7612201565b1a60f81b828281518110611bcd57611bcd612201565b60200101906001600160f81b031916908160001a90535060049490941c93611bf481612513565b9050611b86565b508315610f2a5760405162461bcd60e51b815260206004820181905260248201527f537472696e67733a20686578206c656e67746820696e73756666696369656e74604482015260640161064f565b6040518060c001604052806000815260200160006001600160a01b0316815260200160008152602001606081526020016000815260200160006002811115611c9457611c94611e07565b905290565b6001600160e01b03198116811461090857600080fd5b600060208284031215611cc157600080fd5b8135610f2a81611c99565b60005b83811015611ce7578181015183820152602001611ccf565b50506000910152565b60008151808452611d08816020860160208601611ccc565b601f01601f19169290920160200192915050565b602081526000610f2a6020830184611cf0565b600060208284031215611d4157600080fd5b5035919050565b6001600160a01b038116811461090857600080fd5b60008060408385031215611d7057600080fd5b8235611d7b81611d48565b946020939093013593505050565b6003811061090857600080fd5b60008060408385031215611da957600080fd5b823591506020830135611dbb81611d89565b809150509250929050565b600080600060608486031215611ddb57600080fd5b8335611de681611d48565b92506020840135611df681611d48565b929592945050506040919091013590565b634e487b7160e01b600052602160045260246000fd5b6003811061090857634e487b7160e01b600052602160045260246000fd5b86815260018060a01b038616602082015284604082015260c060608201526000611e6860c0830186611cf0565b9050836080830152611e7983611e1d565b8260a0830152979650505050505050565b60008060408385031215611e9d57600080fd5b823591506020830135611dbb81611d48565b60008060408385031215611ec257600080fd5b50508035926020909101359150565b600060208284031215611ee357600080fd5b8135610f2a81611d48565b60008060408385031215611f0157600080fd5b8235611f0c81611d48565b915060208301358015158114611dbb57600080fd5b634e487b7160e01b600052604160045260246000fd5b600067ffffffffffffffff80841115611f5257611f52611f21565b604051601f8501601f19908116603f01168101908282118183101715611f7a57611f7a611f21565b81604052809350858152868686011115611f9357600080fd5b858560208301376000602087830101525050509392505050565b60008060008060808587031215611fc357600080fd5b8435611fce81611d48565b93506020850135611fde81611d48565b925060408501359150606085013567ffffffffffffffff81111561200157600080fd5b8501601f8101871361201257600080fd5b61202187823560208401611f37565b91505092959194509250565b60006020808301818452808551808352604092508286019150828160051b87010184880160005b838110156120d557888303603f19018552815180518452878101516001600160a01b031688850152868101518785015260608082015160c082870181905291906120a083880182611cf0565b92505050608080830151818701525060a08083015192506120c083611e1d565b94909401529386019390860190600101612054565b509098975050505050505050565b6000806000606084860312156120f857600080fd5b83359250602084013567ffffffffffffffff81111561211657600080fd5b8401601f8101861361212757600080fd5b61213686823560208401611f37565b925050604084013590509250925092565b8481526001600160a01b0384166020820152604081018390526080810161216d83611e1d565b82606083015295945050505050565b6000806040838503121561218f57600080fd5b823561219a81611d48565b91506020830135611dbb81611d48565b600181811c908216806121be57607f821691505b6020821081036121de57634e487b7160e01b600052602260045260246000fd5b50919050565b6000602082840312156121f657600080fd5b8151610f2a81611d48565b634e487b7160e01b600052603260045260246000fd5b634e487b7160e01b600052601160045260246000fd5b60006001820161223f5761223f612217565b5060010190565b60008351612258818460208801611ccc565b83519083019061226c818360208801611ccc565b01949350505050565b601f8211156106f057600081815260208120601f850160051c8101602086101561229c5750805b601f850160051c820191505b818110156122bb578281556001016122a8565b505050505050565b815167ffffffffffffffff8111156122dd576122dd611f21565b6122f1816122eb84546121aa565b84612275565b602080601f831160018114612326576000841561230e5750858301515b600019600386901b1c1916600185901b1785556122bb565b600085815260208120601f198616915b8281101561235557888601518255948401946001909101908401612336565b50858210156123735787850151600019600388901b60f8161c191681555b5050505050600190811b01905550565b60208082526032908201527f4552433732313a207472616e7366657220746f206e6f6e20455243373231526560408201527131b2b4bb32b91034b6b83632b6b2b73a32b960711b606082015260800190565b7f416363657373436f6e74726f6c3a206163636f756e742000000000000000000081526000835161240d816017850160208801611ccc565b7001034b99036b4b9b9b4b733903937b6329607d1b601791840191820152835161243e816028840160208801611ccc565b01602801949350505050565b60208082526025908201527f4552433732313a207472616e736665722066726f6d20696e636f72726563742060408201526437bbb732b960d91b606082015260800190565b6001600160a01b03858116825284166020820152604081018390526080606082018190526000906124c290830184611cf0565b9695505050505050565b6000602082840312156124de57600080fd5b8151610f2a81611c99565b808202811582820484141761051c5761051c612217565b8082018082111561051c5761051c612217565b60008161252257612522612217565b50600019019056fea26469706673582212206f1936cf232d162bffc5bd8c5574ebc2214cb49d12449780e4b41f8724cb72b064736f6c63430008110033",
  "linkReferences": {},
  "deployedLinkReferences": {}
}