{
  "_format": "hh-sol-artifact-1",
  "contractName": "Feedback",
  "sourceName": "contracts/Feedback.sol",
  "abi": [
    {
      "inputs": [
        {
          "internalType": "address",
          "name": "_chapterContractAddress",
          "type": "address"
        }
      ],
      "stateMutability": "nonpayable",
      "type": "constructor"
    },
    {
      "anonymous": false,
      "inputs": [
        {
          "indexed": true,
          "internalType": "address",
          "name": "owner",
          "type": "address"
        },
        {
          "indexed": true,
          "internalType": "address",
          "name": "approved",
          "type": "address"
        },
        {
          "indexed": true,
          "internalType": "uint256",
          "name": "tokenId",
          "type": "uint256"
        }
      ],
      "name": "Approval",
      "type": "event"
    },
    {
      "anonymous": false,
      "inputs": [
        {
          "indexed": true,
          "internalType": "address",
          "name": "owner",
          "type": "address"
        },
        {
          "indexed": true,
          "internalType": "address",
          "name": "operator",
          "type": "address"
        },
        {
          "indexed": false,
          "internalType": "bool",
          "name": "approved",
          "type": "bool"
        }
      ],
      "name": "ApprovalForAll",
      "type": "event"
    },
    {
      "anonymous": false,
      "inputs": [
        {
          "indexed": true,
          "internalType": "bytes32",
          "name": "role",
          "type": "bytes32"
        },
        {
          "indexed": true,
          "internalType": "bytes32",
          "name": "previousAdminRole",
          "type": "bytes32"
        },
        {
          "indexed": true,
          "internalType": "bytes32",
          "name": "newAdminRole",
          "type": "bytes32"
        }
      ],
      "name": "RoleAdminChanged",
      "type": "event"
    },
    {
      "anonymous": false,
      "inputs": [
        {
          "indexed": true,
          "internalType": "bytes32",
          "name": "role",
          "type": "bytes32"
        },
        {
          "indexed": true,
          "internalType": "address",
          "name": "account",
          "type": "address"
        },
        {
          "indexed": true,
          "internalType": "address",
          "name": "sender",
          "type": "address"
        }
      ],
      "name": "RoleGranted",
      "type": "event"
    },
    {
      "anonymous": false,
      "inputs": [
        {
          "indexed": true,
          "internalType": "bytes32",
          "name": "role",
          "type": "bytes32"
        },
        {
          "indexed": true,
          "internalType": "address",
          "name": "account",
          "type": "address"
        },
        {
          "indexed": true,
          "internalType": "address",
          "name": "sender",
          "type": "address"
        }
      ],
      "name": "RoleRevoked",
      "type": "event"
    },
    {
      "anonymous": false,
      "inputs": [
        {
          "indexed": true,
          "internalType": "address",
          "name": "from",
          "type": "address"
        },
        {
          "indexed": true,
          "internalType": "address",
          "name": "to",
          "type": "address"
        },
        {
          "indexed": true,
          "internalType": "uint256",
          "name": "tokenId",
          "type": "uint256"
        }
      ],
      "name": "Transfer",
      "type": "event"
    },
    {
      "inputs": [],
      "name": "DEFAULT_ADMIN_ROLE",
      "outputs": [
        {
          "internalType": "bytes32",
          "name": "",
          "type": "bytes32"
        }
      ],
      "stateMutability": "view",
      "type": "function"
    },
    {
      "inputs": [
        {
          "internalType": "uint256",
          "name": "_feedbackId",
          "type": "uint256"
        }
      ],
      "name": "acceptFeedback",
      "outputs": [],
      "stateMutability": "nonpayable",
      "type": "function"
    },
    {
      "inputs": [
        {
          "internalType": "uint256",
          "name": "_chapterId",
          "type": "uint256"
        }
      ],
      "name": "applyToWhitelist",
      "outputs": [],
      "stateMutability": "nonpayable",
      "type": "function"
    },
    {
      "inputs": [
        {
          "internalType": "address",
          "name": "to",
          "type": "address"
        },
        {
          "internalType": "uint256",
          "name": "tokenId",
          "type": "uint256"
        }
      ],
      "name": "approve",
      "outputs": [],
      "stateMutability": "nonpayable",
      "type": "function"
    },
    {
      "inputs": [
        {
          "internalType": "address",
          "name": "owner",
          "type": "address"
        }
      ],
      "name": "balanceOf",
      "outputs": [
        {
          "internalType": "uint256",
          "name": "",
          "type": "uint256"
        }
      ],
      "stateMutability": "view",
      "type": "function"
    },
    {
      "inputs": [
        {
          "internalType": "uint256",
          "name": "_feedbackId",
          "type": "uint256"
        },
        {
          "internalType": "enum Feedback.FeedbackStatus",
          "name": "_status",
          "type": "uint8"
        }
      ],
      "name": "changeFeedbackStatus",
      "outputs": [],
      "stateMutability": "nonpayable",
      "type": "function"
    },
    {
      "inputs": [
        {
          "internalType": "uint256",
          "name": "_waitingListId",
          "type": "uint256"
        },
        {
          "internalType": "enum Feedback.WaitingListStatus",
          "name": "_status",
          "type": "uint8"
        }
      ],
      "name": "changeWhiteListStatus",
      "outputs": [],
      "stateMutability": "nonpayable",
      "type": "function"
    },
    {
      "inputs": [
        {
          "internalType": "uint256",
          "name": "",
          "type": "uint256"
        },
        {
          "internalType": "uint256",
          "name": "",
          "type": "uint256"
        }
      ],
      "name": "chapterFeedbacks",
      "outputs": [
        {
          "internalType": "uint256",
          "name": "",
          "type": "uint256"
        }
      ],
      "stateMutability": "view",
      "type": "function"
    },
    {
      "inputs": [],
      "name": "chapterIdContract",
      "outputs": [
        {
          "internalType": "contract IChapter",
          "name": "",
          "type": "address"
        }
      ],
      "stateMutability": "view",
      "type": "function"
    },
    {
      "inputs": [
        {
          "internalType": "uint256",
          "name": "",
          "type": "uint256"
        },
        {
          "internalType": "uint256",
          "name": "",
          "type": "uint256"
        }
      ],
      "name": "chapterWaitingLists",
      "outputs": [
        {
          "internalType": "uint256",
          "name": "",
          "type": "uint256"
        }
      ],
      "stateMutability": "view",
      "type": "function"
    },
    {
      "inputs": [
        {
          "internalType": "uint256",
          "name": "_chapterId",
          "type": "uint256"
        },
        {
          "internalType": "string",
          "name": "_content",
          "type": "string"
        },
        {
          "internalType": "uint256",
          "name": "_rating",
          "type": "uint256"
        }
      ],
      "name": "createFeedback",
      "outputs": [],
      "stateMutability": "nonpayable",
      "type": "function"
    },
    {
      "inputs": [
        {
          "internalType": "uint256",
          "name": "",
          "type": "uint256"
        }
      ],
      "name": "feedbacks",
      "outputs": [
        {
          "internalType": "uint256",
          "name": "id",
          "type": "uint256"
        },
        {
          "internalType": "address",
          "name": "owner",
          "type": "address"
        },
        {
          "internalType": "uint256",
          "name": "chapterId",
          "type": "uint256"
        },
        {
          "internalType": "string",
          "name": "content",
          "type": "string"
        },
        {
          "internalType": "uint256",
          "name": "rating",
          "type": "uint256"
        },
        {
          "internalType": "enum Feedback.FeedbackStatus",
          "name": "status",
          "type": "uint8"
        }
      ],
      "stateMutability": "view",
      "type": "function"
    },
    {
      "inputs": [
        {
          "internalType": "uint256",
          "name": "_chapterId",
          "type": "uint256"
        }
      ],
      "name": "getAllFeedbacks",
      "outputs": [
        {
          "components": [
            {
              "internalType": "uint256",
              "name": "id",
              "type": "uint256"
            },
            {
              "internalType": "address",
              "name": "owner",
              "type": "address"
            },
            {
              "internalType": "uint256",
              "name": "chapterId",
              "type": "uint256"
            },
            {
              "internalType": "string",
              "name": "content",
              "type": "string"
            },
            {
              "internalType": "uint256",
              "name": "rating",
              "type": "uint256"
            },
            {
              "internalType": "enum Feedback.FeedbackStatus",
              "name": "status",
              "type": "uint8"
            }
          ],
          "internalType": "struct Feedback.FeedbackDetails[]",
          "name": "",
          "type": "tuple[]"
        }
      ],
      "stateMutability": "view",
      "type": "function"
    },
    {
      "inputs": [
        {
          "internalType": "uint256",
          "name": "_chapterId",
          "type": "uint256"
        }
      ],
      "name": "getAllWaitingList",
      "outputs": [
        {
          "components": [
            {
              "internalType": "uint256",
              "name": "id",
              "type": "uint256"
            },
            {
              "internalType": "address",
              "name": "owner",
              "type": "address"
            },
            {
              "internalType": "uint256",
              "name": "chapterId",
              "type": "uint256"
            },
            {
              "internalType": "enum Feedback.WaitingListStatus",
              "name": "status",
              "type": "uint8"
            }
          ],
          "internalType": "struct Feedback.WaitingListDetails[]",
          "name": "",
          "type": "tuple[]"
        }
      ],
      "stateMutability": "view",
      "type": "function"
    },
    {
      "inputs": [
        {
          "internalType": "uint256",
          "name": "tokenId",
          "type": "uint256"
        }
      ],
      "name": "getApproved",
      "outputs": [
        {
          "internalType": "address",
          "name": "",
          "type": "address"
        }
      ],
      "stateMutability": "view",
      "type": "function"
    },
    {
      "inputs": [
        {
          "internalType": "bytes32",
          "name": "role",
          "type": "bytes32"
        }
      ],
      "name": "getRoleAdmin",
      "outputs": [
        {
          "internalType": "bytes32",
          "name": "",
          "type": "bytes32"
        }
      ],
      "stateMutability": "view",
      "type": "function"
    },
    {
      "inputs": [
        {
          "internalType": "bytes32",
          "name": "role",
          "type": "bytes32"
        },
        {
          "internalType": "address",
          "name": "account",
          "type": "address"
        }
      ],
      "name": "grantRole",
      "outputs": [],
      "stateMutability": "nonpayable",
      "type": "function"
    },
    {
      "inputs": [
        {
          "internalType": "bytes32",
          "name": "role",
          "type": "bytes32"
        },
        {
          "internalType": "address",
          "name": "account",
          "type": "address"
        }
      ],
      "name": "hasRole",
      "outputs": [
        {
          "internalType": "bool",
          "name": "",
          "type": "bool"
        }
      ],
      "stateMutability": "view",
      "type": "function"
    },
    {
      "inputs": [
        {
          "internalType": "address",
          "name": "owner",
          "type": "address"
        },
        {
          "internalType": "address",
          "name": "operator",
          "type": "address"
        }
      ],
      "name": "isApprovedForAll",
      "outputs": [
        {
          "internalType": "bool",
          "name": "",
          "type": "bool"
        }
      ],
      "stateMutability": "view",
      "type": "function"
    },
    {
      "inputs": [
        {
          "internalType": "uint256",
          "name": "_chapterId",
          "type": "uint256"
        }
      ],
      "name": "isWhitelisted",
      "outputs": [
        {
          "internalType": "bool",
          "name": "",
          "type": "bool"
        }
      ],
      "stateMutability": "view",
      "type": "function"
    },
    {
      "inputs": [],
      "name": "name",
      "outputs": [
        {
          "internalType": "string",
          "name": "",
          "type": "string"
        }
      ],
      "stateMutability": "view",
      "type": "function"
    },
    {
      "inputs": [
        {
          "internalType": "uint256",
          "name": "tokenId",
          "type": "uint256"
        }
      ],
      "name": "ownerOf",
      "outputs": [
        {
          "internalType": "address",
          "name": "",
          "type": "address"
        }
      ],
      "stateMutability": "view",
      "type": "function"
    },
    {
      "inputs": [
        {
          "internalType": "uint256",
          "name": "_feedbackId",
          "type": "uint256"
        }
      ],
      "name": "rejectFeedback",
      "outputs": [],
      "stateMutability": "nonpayable",
      "type": "function"
    },
    {
      "inputs": [
        {
          "internalType": "bytes32",
          "name": "role",
          "type": "bytes32"
        },
        {
          "internalType": "address",
          "name": "account",
          "type": "address"
        }
      ],
      "name": "renounceRole",
      "outputs": [],
      "stateMutability": "nonpayable",
      "type": "function"
    },
    {
      "inputs": [
        {
          "internalType": "bytes32",
          "name": "role",
          "type": "bytes32"
        },
        {
          "internalType": "address",
          "name": "account",
          "type": "address"
        }
      ],
      "name": "revokeRole",
      "outputs": [],
      "stateMutability": "nonpayable",
      "type": "function"
    },
    {
      "inputs": [
        {
          "internalType": "address",
          "name": "",
          "type": "address"
        },
        {
          "internalType": "address",
          "name": "",
          "type": "address"
        },
        {
          "internalType": "uint256",
          "name": "",
          "type": "uint256"
        }
      ],
      "name": "safeTransferFrom",
      "outputs": [],
      "stateMutability": "nonpayable",
      "type": "function"
    },
    {
      "inputs": [
        {
          "internalType": "address",
          "name": "from",
          "type": "address"
        },
        {
          "internalType": "address",
          "name": "to",
          "type": "address"
        },
        {
          "internalType": "uint256",
          "name": "tokenId",
          "type": "uint256"
        },
        {
          "internalType": "bytes",
          "name": "data",
          "type": "bytes"
        }
      ],
      "name": "safeTransferFrom",
      "outputs": [],
      "stateMutability": "nonpayable",
      "type": "function"
    },
    {
      "inputs": [
        {
          "internalType": "address",
          "name": "operator",
          "type": "address"
        },
        {
          "internalType": "bool",
          "name": "approved",
          "type": "bool"
        }
      ],
      "name": "setApprovalForAll",
      "outputs": [],
      "stateMutability": "nonpayable",
      "type": "function"
    },
    {
      "inputs": [
        {
          "internalType": "bytes4",
          "name": "interfaceId",
          "type": "bytes4"
        }
      ],
      "name": "supportsInterface",
      "outputs": [
        {
          "internalType": "bool",
          "name": "",
          "type": "bool"
        }
      ],
      "stateMutability": "view",
      "type": "function"
    },
    {
      "inputs": [],
      "name": "symbol",
      "outputs": [
        {
          "internalType": "string",
          "name": "",
          "type": "string"
        }
      ],
      "stateMutability": "view",
      "type": "function"
    },
    {
      "inputs": [
        {
          "internalType": "uint256",
          "name": "tokenId",
          "type": "uint256"
        }
      ],
      "name": "tokenURI",
      "outputs": [
        {
          "internalType": "string",
          "name": "",
          "type": "string"
        }
      ],
      "stateMutability": "view",
      "type": "function"
    },
    {
      "inputs": [
        {
          "internalType": "address",
          "name": "",
          "type": "address"
        },
        {
          "internalType": "address",
          "name": "",
          "type": "address"
        },
        {
          "internalType": "uint256",
          "name": "",
          "type": "uint256"
        }
      ],
      "name": "transferFrom",
      "outputs": [],
      "stateMutability": "nonpayable",
      "type": "function"
    },
    {
      "inputs": [
        {
          "internalType": "uint256",
          "name": "",
          "type": "uint256"
        }
      ],
      "name": "waitingList",
      "outputs": [
        {
          "internalType": "uint256",
          "name": "id",
          "type": "uint256"
        },
        {
          "internalType": "address",
          "name": "owner",
          "type": "address"
        },
        {
          "internalType": "uint256",
          "name": "chapterId",
          "type": "uint256"
        },
        {
          "internalType": "enum Feedback.WaitingListStatus",
          "name": "status",
          "type": "uint8"
        }
      ],
      "stateMutability": "view",
      "type": "function"
    }
  ],
  "bytecode": "0x60806040523480156200001157600080fd5b5060405162002a1938038062002a198339810160408190526200003491620000f0565b6040518060400160405280600a81526020016911995959189858dad25160b21b8152506040518060400160405280600381526020016246424960e81b8152508160009081620000849190620001c7565b506001620000938282620001c7565b5050600d80546001600160a01b0319166001600160a01b03841617905550620000c96007620000e7602090811b6200133417901c565b620000e06008620000e760201b620013341760201c565b5062000293565b80546001019055565b6000602082840312156200010357600080fd5b81516001600160a01b03811681146200011b57600080fd5b9392505050565b634e487b7160e01b600052604160045260246000fd5b600181811c908216806200014d57607f821691505b6020821081036200016e57634e487b7160e01b600052602260045260246000fd5b50919050565b601f821115620001c257600081815260208120601f850160051c810160208610156200019d5750805b601f850160051c820191505b81811015620001be57828155600101620001a9565b5050505b505050565b81516001600160401b03811115620001e357620001e362000122565b620001fb81620001f4845462000138565b8462000174565b602080601f8311600181146200023357600084156200021a5750858301515b600019600386901b1c1916600185901b178555620001be565b600085815260208120601f198616915b82811015620002645788860151825594840194600190910190840162000243565b5085821015620002835787850151600019600388901b60f8161c191681555b5050505050600190811b01905550565b61277680620002a36000396000f3fe608060405234801561001057600080fd5b50600436106101fb5760003560e01c806370a082311161011a578063c1d738a6116100ad578063d20eb0161161007c578063d20eb01614610466578063d547741f14610479578063e148ca391461048c578063e7a20f3f1461049f578063e985e9c5146104f157600080fd5b8063c1d738a61461040d578063c6b6fd7914610420578063c87b56dd14610440578063d117b8bd1461045357600080fd5b8063a217fddf116100e9578063a217fddf146103bf578063a22cb465146103c7578063b88d4fde146103da578063bfa121eb146103ed57600080fd5b806370a082311461037e578063751b02c21461039157806391d14854146103a457806395d89b41146103b757600080fd5b80632dc12c5311610192578063442886d411610161578063442886d4146103325780635c969877146103455780636352211e146103585780636f15561d1461036b57600080fd5b80632dc12c53146102f95780632f2ff15d1461030c57806336568abe1461031f57806342842e0e1461029057600080fd5b80630a98140c116101ce5780630a98140c1461027d57806323b872dd14610290578063248a9ca3146102a35780632bb8b0dc146102d457600080fd5b806301ffc9a71461020057806306fdde0314610228578063081812fc1461023d578063095ea7b314610268575b600080fd5b61021361020e366004611e4f565b61052d565b60405190151581526020015b60405180910390f35b61023061054d565b60405161021f9190611ebc565b61025061024b366004611ecf565b6105df565b6040516001600160a01b03909116815260200161021f565b61027b610276366004611efd565b610606565b005b61027b61028b366004611f36565b610720565b61027b61029e366004611f66565b610825565b6102c66102b1366004611ecf565b60009081526006602052604090206001015490565b60405190815260200161021f565b6102e76102e2366004611ecf565b61085b565b60405161021f96959493929190611fdb565b61027b610307366004611ecf565b610928565b61027b61031a36600461202a565b610936565b61027b61032d36600461202a565b61095b565b600d54610250906001600160a01b031681565b6102c661035336600461204f565b6109d9565b610250610366366004611ecf565b610a0a565b6102c661037936600461204f565b610a6a565b6102c661038c366004612071565b610a86565b61021361039f366004611ecf565b610b0c565b6102136103b236600461202a565b610b18565b610230610b43565b6102c6600081565b61027b6103d536600461208e565b610b52565b61027b6103e836600461214d565b610b5d565b6104006103fb366004611ecf565b610bdb565b60405161021f91906121cd565b61027b61041b366004611f36565b610ded565b61043361042e366004611ecf565b610ee8565b60405161021f9190612283565b61023061044e366004611ecf565b61105d565b61027b6104613660046122f9565b6110d1565b61027b610474366004611ecf565b611230565b61027b61048736600461202a565b61123b565b61027b61049a366004611ecf565b611260565b6104e16104ad366004611ecf565b600b60205260009081526040902080546001820154600283015460039093015491926001600160a01b039091169160ff1684565b60405161021f949392919061235d565b6102136104ff366004612392565b6001600160a01b03918216600090815260056020908152604080832093909416825291909152205460ff1690565b60006105388261133d565b8061054757506105478261138d565b92915050565b60606000805461055c906123c0565b80601f0160208091040260200160405190810160405280929190818152602001828054610588906123c0565b80156105d55780601f106105aa576101008083540402835291602001916105d5565b820191906000526020600020905b8154815290600101906020018083116105b857829003601f168201915b5050505050905090565b60006105ea826113b2565b506000908152600460205260409020546001600160a01b031690565b600061061182610a0a565b9050806001600160a01b0316836001600160a01b0316036106835760405162461bcd60e51b815260206004820152602160248201527f4552433732313a20617070726f76616c20746f2063757272656e74206f776e656044820152603960f91b60648201526084015b60405180910390fd5b336001600160a01b038216148061069f575061069f81336104ff565b6107115760405162461bcd60e51b815260206004820152603d60248201527f4552433732313a20617070726f76652063616c6c6572206973206e6f7420746f60448201527f6b656e206f776e6572206f7220617070726f76656420666f7220616c6c000000606482015260840161067a565b61071b8383611411565b505050565b60008281526009602052604090819020600d54600282015492516331a9108f60e11b81526004810193909352909133916001600160a01b031690636352211e90602401602060405180830381865afa158015610780573d6000803e3d6000fd5b505050506040513d601f19601f820116820180604052508101906107a491906123fa565b6001600160a01b0316146107fa5760405162461bcd60e51b815260206004820152601c60248201527f4e6f7420746865206f776e6572206f6620746865206368617074657200000000604482015260640161067a565b60058101805483919060ff1916600183600281111561081b5761081b611fa7565b0217905550505050565b60405162461bcd60e51b815260206004820152600b60248201526a139bdd08185b1b1bddd95960aa1b604482015260640161067a565b600960205260009081526040902080546001820154600283015460038401805493946001600160a01b0390931693919291610895906123c0565b80601f01602080910402602001604051908101604052809291908181526020018280546108c1906123c0565b801561090e5780601f106108e35761010080835404028352916020019161090e565b820191906000526020600020905b8154815290600101906020018083116108f157829003601f168201915b50505050600483015460059093015491929160ff16905086565b610933816001610720565b50565b6000828152600660205260409020600101546109518161147f565b61071b8383611489565b6001600160a01b03811633146109cb5760405162461bcd60e51b815260206004820152602f60248201527f416363657373436f6e74726f6c3a2063616e206f6e6c792072656e6f756e636560448201526e103937b632b9903337b91039b2b63360891b606482015260840161067a565b6109d5828261150f565b5050565b600c60205281600052604060002081815481106109f557600080fd5b90600052602060002001600091509150505481565b6000818152600260205260408120546001600160a01b0316806105475760405162461bcd60e51b8152602060048201526018602482015277115490cdcc8c4e881a5b9d985b1a59081d1bdad95b88125160421b604482015260640161067a565b600a60205281600052604060002081815481106109f557600080fd5b60006001600160a01b038216610af05760405162461bcd60e51b815260206004820152602960248201527f4552433732313a2061646472657373207a65726f206973206e6f7420612076616044820152683634b21037bbb732b960b91b606482015260840161067a565b506001600160a01b031660009081526003602052604090205490565b60006105473383611576565b60009182526006602090815260408084206001600160a01b0393909316845291905290205460ff1690565b60606001805461055c906123c0565b6109d5338383611693565b610b673383611761565b610bc95760405162461bcd60e51b815260206004820152602d60248201527f4552433732313a2063616c6c6572206973206e6f7420746f6b656e206f776e6560448201526c1c881bdc88185c1c1c9bdd9959609a1b606482015260840161067a565b610bd5848484846117e0565b50505050565b6000818152600a60205260408120546060919067ffffffffffffffff811115610c0657610c066120c1565b604051908082528060200260200182016040528015610c3f57816020015b610c2c611dea565b815260200190600190039081610c245790505b50905060005b6000848152600a6020526040902054811015610de6576000848152600a602052604081208054600992919084908110610c8057610c80612417565b906000526020600020015481526020019081526020016000206040518060c0016040529081600082015481526020016001820160009054906101000a90046001600160a01b03166001600160a01b03166001600160a01b0316815260200160028201548152602001600382018054610cf7906123c0565b80601f0160208091040260200160405190810160405280929190818152602001828054610d23906123c0565b8015610d705780601f10610d4557610100808354040283529160200191610d70565b820191906000526020600020905b815481529060010190602001808311610d5357829003601f168201915b505050918352505060048201546020820152600582015460409091019060ff166002811115610da157610da1611fa7565b6002811115610db257610db2611fa7565b81525050828281518110610dc857610dc8612417565b60200260200101819052508080610dde90612443565b915050610c45565b5092915050565b6000828152600b602052604090819020600d54600282015492516331a9108f60e11b81526004810193909352909133916001600160a01b031690636352211e90602401602060405180830381865afa158015610e4d573d6000803e3d6000fd5b505050506040513d601f19601f82011682018060405250810190610e7191906123fa565b6001600160a01b031614610ec75760405162461bcd60e51b815260206004820152601c60248201527f4e6f7420746865206f776e6572206f6620746865206368617074657200000000604482015260640161067a565b60038101805483919060ff1916600183600281111561081b5761081b611fa7565b6000818152600c60205260408120546060919067ffffffffffffffff811115610f1357610f136120c1565b604051908082528060200260200182016040528015610f6c57816020015b610f596040805160808101825260008082526020820181905291810182905290606082015290565b815260200190600190039081610f315790505b50905060005b6000848152600c6020526040902054811015610de6576000848152600c602052604081208054600b92919084908110610fad57610fad612417565b60009182526020808320909101548352828101939093526040918201902081516080810183528154815260018201546001600160a01b0316938101939093526002808201549284019290925260038101549091606084019160ff169081111561101857611018611fa7565b600281111561102957611029611fa7565b8152505082828151811061103f5761103f612417565b6020026020010181905250808061105590612443565b915050610f72565b6060611068826113b2565b600061107f60408051602081019091526000815290565b9050600081511161109f57604051806020016040528060008152506110ca565b806110a984611813565b6040516020016110ba92919061245c565b6040516020818303038152906040525b9392505050565b60006110dc60075490565b90506110e784610b0c565b6111445760405162461bcd60e51b815260206004820152602860248201527f596f7520617265206e6f742077686974656c697374656420666f7220746869736044820152671031b430b83a32b960c11b606482015260840161067a565b6040805160c0810182528281523360208083019182528284018881526060840188815260808501889052600060a086018190528781526009909352949091208351815591516001830180546001600160a01b0319166001600160a01b0390921691909117905551600282015591519091829160038201906111c590826124d9565b506080820151600482015560a082015160058201805460ff191660018360028111156111f3576111f3611fa7565b021790555050506000858152600a6020908152604082208054600181018255908352912001829055611229600780546001019055565b5050505050565b610933816002610720565b6000828152600660205260409020600101546112568161147f565b61071b838361150f565b600061126b60085490565b60408051608081018252828152336020808301918252828401878152600060608501818152878252600b90935294909420835181559151600180840180546001600160a01b0319166001600160a01b0390931692909217909155935160028084019190915590516003830180549697509395869593949193919260ff19909116919084908111156112fe576112fe611fa7565b021790555050506000838152600c602090815260408220805460018101825590835291200182905561071b600880546001019055565b80546001019055565b60006001600160e01b031982166380ac58cd60e01b148061136e57506001600160e01b03198216635b5e139f60e01b145b8061054757506301ffc9a760e01b6001600160e01b0319831614610547565b60006001600160e01b03198216637965db0b60e01b148061054757506105478261133d565b6000818152600260205260409020546001600160a01b03166109335760405162461bcd60e51b8152602060048201526018602482015277115490cdcc8c4e881a5b9d985b1a59081d1bdad95b88125160421b604482015260640161067a565b600081815260046020526040902080546001600160a01b0319166001600160a01b038416908117909155819061144682610a0a565b6001600160a01b03167f8c5be1e5ebec7d5bd14f71427d1e84f3dd0314c0f7b2291e5b200ac8c7c3b92560405160405180910390a45050565b61093381336118a6565b6114938282610b18565b6109d55760008281526006602090815260408083206001600160a01b03851684529091529020805460ff191660011790556114cb3390565b6001600160a01b0316816001600160a01b0316837f2f8788117e7eff1d82e926ec794901d17c78024a50270940304540a733656f0d60405160405180910390a45050565b6115198282610b18565b156109d55760008281526006602090815260408083206001600160a01b0385168085529252808320805460ff1916905551339285917ff6391f5c32d9c69d2a47ea670b442974b53935d1edc7fd64eb21e047a839171b9190a45050565b6000805b6000838152600c6020526040902054811015611689576000838152600c602052604081208054600b918391859081106115b5576115b5612417565b60009182526020808320909101548352828101939093526040918201902081516080810183528154815260018201546001600160a01b0316938101939093526002808201549284019290925260038101549091606084019160ff169081111561162057611620611fa7565b600281111561163157611631611fa7565b815250509050846001600160a01b031681602001516001600160a01b0316036116765760018160600151600281111561166c5761166c611fa7565b1492505050610547565b508061168181612443565b91505061157a565b5060009392505050565b816001600160a01b0316836001600160a01b0316036116f45760405162461bcd60e51b815260206004820152601960248201527f4552433732313a20617070726f766520746f2063616c6c657200000000000000604482015260640161067a565b6001600160a01b03838116600081815260056020908152604080832094871680845294825291829020805460ff191686151590811790915591519182527f17307eab39ab6107e8899845ad3d59bd9653f200f220920489ca2b5937696c31910160405180910390a3505050565b60008061176d83610a0a565b9050806001600160a01b0316846001600160a01b031614806117b457506001600160a01b0380821660009081526005602090815260408083209388168352929052205460ff165b806117d85750836001600160a01b03166117cd846105df565b6001600160a01b0316145b949350505050565b6117eb8484846118ff565b6117f784848484611a63565b610bd55760405162461bcd60e51b815260040161067a90612599565b6060600061182083611b64565b600101905060008167ffffffffffffffff811115611840576118406120c1565b6040519080825280601f01601f19166020018201604052801561186a576020820181803683370190505b5090508181016020015b600019016f181899199a1a9b1b9c1cb0b131b232b360811b600a86061a8153600a850494508461187457509392505050565b6118b08282610b18565b6109d5576118bd81611c3c565b6118c8836020611c4e565b6040516020016118d99291906125eb565b60408051601f198184030181529082905262461bcd60e51b825261067a91600401611ebc565b826001600160a01b031661191282610a0a565b6001600160a01b0316146119385760405162461bcd60e51b815260040161067a90612660565b6001600160a01b03821661199a5760405162461bcd60e51b8152602060048201526024808201527f4552433732313a207472616e7366657220746f20746865207a65726f206164646044820152637265737360e01b606482015260840161067a565b826001600160a01b03166119ad82610a0a565b6001600160a01b0316146119d35760405162461bcd60e51b815260040161067a90612660565b600081815260046020908152604080832080546001600160a01b03199081169091556001600160a01b0387811680865260038552838620805460001901905590871680865283862080546001019055868652600290945282852080549092168417909155905184937fddf252ad1be2c89b69c2b068fc378daa952ba7f163c4a11628f55a4df523b3ef91a4505050565b60006001600160a01b0384163b15611b5957604051630a85bd0160e11b81526001600160a01b0385169063150b7a0290611aa79033908990889088906004016126a5565b6020604051808303816000875af1925050508015611ae2575060408051601f3d908101601f19168201909252611adf918101906126e2565b60015b611b3f573d808015611b10576040519150601f19603f3d011682016040523d82523d6000602084013e611b15565b606091505b508051600003611b375760405162461bcd60e51b815260040161067a90612599565b805181602001fd5b6001600160e01b031916630a85bd0160e11b1490506117d8565b506001949350505050565b60008072184f03e93ff9f4daa797ed6e38ed64bf6a1f0160401b8310611ba35772184f03e93ff9f4daa797ed6e38ed64bf6a1f0160401b830492506040015b6d04ee2d6d415b85acef81000000008310611bcf576d04ee2d6d415b85acef8100000000830492506020015b662386f26fc100008310611bed57662386f26fc10000830492506010015b6305f5e1008310611c05576305f5e100830492506008015b6127108310611c1957612710830492506004015b60648310611c2b576064830492506002015b600a83106105475760010192915050565b60606105476001600160a01b03831660145b60606000611c5d8360026126ff565b611c68906002612716565b67ffffffffffffffff811115611c8057611c806120c1565b6040519080825280601f01601f191660200182016040528015611caa576020820181803683370190505b509050600360fc1b81600081518110611cc557611cc5612417565b60200101906001600160f81b031916908160001a905350600f60fb1b81600181518110611cf457611cf4612417565b60200101906001600160f81b031916908160001a9053506000611d188460026126ff565b611d23906001612716565b90505b6001811115611d9b576f181899199a1a9b1b9c1cb0b131b232b360811b85600f1660108110611d5757611d57612417565b1a60f81b828281518110611d6d57611d6d612417565b60200101906001600160f81b031916908160001a90535060049490941c93611d9481612729565b9050611d26565b5083156110ca5760405162461bcd60e51b815260206004820181905260248201527f537472696e67733a20686578206c656e67746820696e73756666696369656e74604482015260640161067a565b6040518060c001604052806000815260200160006001600160a01b0316815260200160008152602001606081526020016000815260200160006002811115611e3457611e34611fa7565b905290565b6001600160e01b03198116811461093357600080fd5b600060208284031215611e6157600080fd5b81356110ca81611e39565b60005b83811015611e87578181015183820152602001611e6f565b50506000910152565b60008151808452611ea8816020860160208601611e6c565b601f01601f19169290920160200192915050565b6020815260006110ca6020830184611e90565b600060208284031215611ee157600080fd5b5035919050565b6001600160a01b038116811461093357600080fd5b60008060408385031215611f1057600080fd5b8235611f1b81611ee8565b946020939093013593505050565b6003811061093357600080fd5b60008060408385031215611f4957600080fd5b823591506020830135611f5b81611f29565b809150509250929050565b600080600060608486031215611f7b57600080fd5b8335611f8681611ee8565b92506020840135611f9681611ee8565b929592945050506040919091013590565b634e487b7160e01b600052602160045260246000fd5b6003811061093357634e487b7160e01b600052602160045260246000fd5b86815260018060a01b038616602082015284604082015260c06060820152600061200860c0830186611e90565b905083608083015261201983611fbd565b8260a0830152979650505050505050565b6000806040838503121561203d57600080fd5b823591506020830135611f5b81611ee8565b6000806040838503121561206257600080fd5b50508035926020909101359150565b60006020828403121561208357600080fd5b81356110ca81611ee8565b600080604083850312156120a157600080fd5b82356120ac81611ee8565b915060208301358015158114611f5b57600080fd5b634e487b7160e01b600052604160045260246000fd5b600067ffffffffffffffff808411156120f2576120f26120c1565b604051601f8501601f19908116603f0116810190828211818310171561211a5761211a6120c1565b8160405280935085815286868601111561213357600080fd5b858560208301376000602087830101525050509392505050565b6000806000806080858703121561216357600080fd5b843561216e81611ee8565b9350602085013561217e81611ee8565b925060408501359150606085013567ffffffffffffffff8111156121a157600080fd5b8501601f810187136121b257600080fd5b6121c1878235602084016120d7565b91505092959194509250565b60006020808301818452808551808352604092508286019150828160051b87010184880160005b8381101561227557888303603f19018552815180518452878101516001600160a01b031688850152868101518785015260608082015160c0828701819052919061224083880182611e90565b92505050608080830151818701525060a080830151925061226083611fbd565b949094015293860193908601906001016121f4565b509098975050505050505050565b602080825282518282018190526000919060409081850190868401855b828110156122ec57815180518552868101516001600160a01b0316878601528581015186860152606090810151906122d782611fbd565b850152608090930192908501906001016122a0565b5091979650505050505050565b60008060006060848603121561230e57600080fd5b83359250602084013567ffffffffffffffff81111561232c57600080fd5b8401601f8101861361233d57600080fd5b61234c868235602084016120d7565b925050604084013590509250925092565b8481526001600160a01b0384166020820152604081018390526080810161238383611fbd565b82606083015295945050505050565b600080604083850312156123a557600080fd5b82356123b081611ee8565b91506020830135611f5b81611ee8565b600181811c908216806123d457607f821691505b6020821081036123f457634e487b7160e01b600052602260045260246000fd5b50919050565b60006020828403121561240c57600080fd5b81516110ca81611ee8565b634e487b7160e01b600052603260045260246000fd5b634e487b7160e01b600052601160045260246000fd5b6000600182016124555761245561242d565b5060010190565b6000835161246e818460208801611e6c565b835190830190612482818360208801611e6c565b01949350505050565b601f82111561071b57600081815260208120601f850160051c810160208610156124b25750805b601f850160051c820191505b818110156124d1578281556001016124be565b505050505050565b815167ffffffffffffffff8111156124f3576124f36120c1565b6125078161250184546123c0565b8461248b565b602080601f83116001811461253c57600084156125245750858301515b600019600386901b1c1916600185901b1785556124d1565b600085815260208120601f198616915b8281101561256b5788860151825594840194600190910190840161254c565b50858210156125895787850151600019600388901b60f8161c191681555b5050505050600190811b01905550565b60208082526032908201527f4552433732313a207472616e7366657220746f206e6f6e20455243373231526560408201527131b2b4bb32b91034b6b83632b6b2b73a32b960711b606082015260800190565b7f416363657373436f6e74726f6c3a206163636f756e7420000000000000000000815260008351612623816017850160208801611e6c565b7001034b99036b4b9b9b4b733903937b6329607d1b6017918401918201528351612654816028840160208801611e6c565b01602801949350505050565b60208082526025908201527f4552433732313a207472616e736665722066726f6d20696e636f72726563742060408201526437bbb732b960d91b606082015260800190565b6001600160a01b03858116825284166020820152604081018390526080606082018190526000906126d890830184611e90565b9695505050505050565b6000602082840312156126f457600080fd5b81516110ca81611e39565b80820281158282048414176105475761054761242d565b808201808211156105475761054761242d565b6000816127385761273861242d565b50600019019056fea264697066735822122002d127c50327c6e969b0d14e4bba498041a379242279f6bd47b7f8eceb15455864736f6c63430008110033",
  "linkReferences": {},
  "deployedLinkReferences": {}
}